:020000040000FA
:100000001AD07F231F7F237F860CB73A72B71E5FFB
:1000100010CE048E7F043E4F1E8B7F1E4E7E40000E
:10002000BF044186027D39AF2A02860397299717BC
:100030007F043F73043F200C8E82AEBF04417F04D7
:10004000407F1E4E7F3A727F1E5F10CE048EC60820
:10005000F73A70108E38FF8E1F3E860131A81010BF
:100060008C39EF240C6DA42B04A78020EF6F802027
:10007000EB5F7D043E2702C608F73B40F71E89C6AA
:1000800080F73B607F1E88BDF6EB7F005E7F005FE0
:10009000B63A732A33C6028E2000BDCB7C43301F94
:1000A0003402F61E5F3404C60CBD8305C602BD4390
:1000B0004D3504BD8305301FC602BDCB7CA1E026B3
:1000C00004860220054F20028601B722DE7D237FB1
:1000D00027058603B722DE8E3B006D843088108CA6
:1000E0003BD023F68E048E7F1E607F1E61108E82B1
:1000F00030BD81F78618C658CE1E68BF1E6EBD8102
:10010000DFBF1E708620C610CE1E62BF1E72BD816C
:10011000DFBF1E748E1E4FBD839F8E1EC1BD839F89
:100120008E1ED1BD839F8E1EC5BD839F8E1ECDBDED
:10013000839F8E1ED5BD839F8E1EC9BD839F8E1E3D
:100140005BBD839F108E1E5B103F8E1E53BD839F31
:10015000108E1E53103F8E1E57BD839F8E1E80BD76
:10016000839F8E21ECBD839F7F00227F1E8BBDB1BC
:100170006734765F860F8E82B8CE1EB1BDAC9E35D9
:1001800076BDBD4F7D1E4E26428E82BC34765F8684
:100190000FCE1EA5BDAC9E3576BE0441C60CBD83F8
:1001A0000534765F860FCE1EA5BDAC9E35763476BF
:1001B0005F860FCE1EB1BDAC9E357634765F860F5E
:1001C000CE2216BDAC9E35767F03D0BE1E6010EEEB
:1001D000033504BD83053B30300D0030310D00AFD9
:1001E000C4108E000010AF4210AF441F133AAFC4CA
:1001F0004A26F810AFC4394FE6A42733C1012603BD
:10020000CC0130338BEC213606367F4FAA243602E0
:10021000A623A702EF031F23108E1E60BD83A84FE5
:10022000E6C4C1012603CC0130308B314520C839EA
:10023000F040033C04F0F7811E00F0EC4828000178
:1002400040003200C0B442C800C05EEA6400C0850D
:10025000AA9600C05D367804808557010080AA6D9B
:10026000FE0080794EFB00808BEAF900808C03F859
:1002700000808BC4E900807B2EE800808BD7E700EC
:10028000807C10E600808C36E100808C23D70080D3
:10029000CA30780080C1F07800805D8B6E04804A9F
:1002A00090640C80B1415A008047692308001742CE
:1002B0005245414B20494E030D15060D15010DCE3B
:1002C00040003402B61E5F3402BD83058D2310A3A7
:1002D000A13401A6611A50B73A72B71E5F350132D8
:1002E000613502270BB7232E8601B7232C8E456C70
:1002F000393470108E40008E0000E6C03A313F263F
:10030000F91F1035F034051A50F71E5FF73A7235B1
:10031000851A50F61E5F34041A50C604F73A70AEC0
:1003200022260DAEA48C03E824243001AFA4201EA5
:100330008D59FE1E6010EF43EC84ED2210BE1E604E
:10034000275A108E1E608D60FE1E6010EE4335042D
:10035000BD83053B1A50F61E5F34041A50C604F7DD
:100360003A70AEA42706301FAFA420198D1DBE1E03
:100370006010EF03EC84FD1E6031228D2BFE1E60A9
:10038000271A10EE433504BD83053BFC1E60C300F5
:1003900008340611ACE1250139C6043FC6033F6F9E
:1003A000036F026F016F84393462A602EEA427083E
:1003B000A14222041F3220F4EF84AFA435E234516D
:1003C0001F13BD8436EF036F028D0F35D134418D7D
:1003D0002BEE03BD844E1F3135C134731A501F23D9
:1003E000A646270CA1472E086F486F493148113F98
:1003F00031C48DB46C473142103F35F334671A5025
:100400001F233142113FAEC4A6474AA74710AE840E
:1004100010AFC46D46270E4848A1462C08EC4A2769
:10042000043148103F35E734241F12C60C6FA05A20
:100430002EFBA70635A434271A50BE1E62260810CC
:100440008E1E64113F20F3EC84FD1E6235A7343705
:100450001A50BC1E72251FBC1E74241A8C38FF242F
:1004600015FC1E62ED84BF1E62FC1E662706108E00
:100470001E64103F35B7C6053F34271A50BE24CB43
:10048000260AC670BDB38835271A0239EC84FD24CC
:10049000CBFC24CD830001FD24CD35271CFD393450
:1004A000371A508C24CF25188C38FF2413FC24CB0A
:1004B000ED84BF24CBFC24CDC30001FD24CD35B792
:1004C000C6073F34271A50BE1E682608108E1E6AC3
:1004D000113F20F3EC84FD1E6835A734371A50BC59
:1004E0001E6E251FBC1E70241A8C38FF2415FC1E9E
:1004F00068ED84BF1E68FC1E6C2706108E1E6A10F5
:100500003F35B7C6063F34118DB93388583591341D
:100510001130C8A88DC535913406E664B61E5F3427
:100520000284F33402EAE0BD8305EC61ADF80634E1
:1005300004E661BD8305350432633934161F41BDBD
:100540009119359634161F41BD91EF35965A2B06F9
:10055000A685A7A520F7391CAF108E209D7D1E4EC5
:100560002704108E1E4F103FD616C5BF26FAFC1E5C
:10057000CB26F59628BA002E261CB603CE270C7F74
:1005800003CE34041F89BD79283504FC1E86270656
:10059000108E1E84103F7F3A70FC1ECB26CA0D2899
:1005A00027C6108E1E7C103F20BE8E1E80BD839FEE
:1005B0001CAF7F1E807F1E81108E1E80113F7D39F3
:1005C000DF2B028D3C7D394F2B29B63B40841E2703
:1005D00008C632BDB3887F1EA2731EA226157F1ED9
:1005E000A3B61E89847FB71E897D1E8C260284FCDB
:1005F000B73B40B60016845026B88D287F034220B2
:10060000B13404F60010C4032609F602EDF7001019
:10061000F73BD1F603A1C10326087F03A1C665BD40
:10062000B36835843420108E1E57113F108E00772A
:100630008D0EBD8980BD8B73108E1E57103F35A067
:1006400034777D00222707B6005E8502260DBD8720
:10065000763406BD86BE3506B71E8ABD866035F780
:100660003477BD850634401A507D0022270CB60031
:100670005E850226258A02B7005E1CAF8E004FBD44
:10068000907D8E2171BD9088BD853BF7217030A48F
:10069000BDA1D5108E0004BD88061CAF8E000410CD
:1006A0008E3B50C608BD854DB61E88B73B60B61E52
:1006B000897D1E8C260284FCB73B407E87FF340276
:1006C0007D1E8B10270053F600223402840E340264
:1006D000B61E8A840EA8E027045F7F005EB61E8CDB
:1006E00027097D1E8D26045F7F005EB71E8D3502B3
:1006F000B01E8A2725402A026AE4BD87203402AB57
:1007000061B71E8ABD8730291335024D26EC7F0064
:100710005EBD87487F005EF71E8B3582326120FA0E
:100720003404C6FF4D27072A01503404ABE035845A
:100730003426C6053D108E879B31A5BD87487F00B6
:100740005E35A600CCCCCCCD3436BD8660BD89806C
:100750002915FC00B63406CC8743FD00B6BD87BC26
:100760003506FD00B68D0235B6108E1EC9113F103C
:100770008E1E5B103F393450BD8506344030A4BD19
:10078000A1D586FF8E87964C30058C87AF2C05BD92
:10079000A4212CF33540BD850F35D009960000000B
:1007A000118000000014A000000017C80000000F16
:1007B0009C4000007CCCCCCD018000003477BD850E
:1007C000063440BE00B6BD907DB6005E2B0E8A801A
:1007D000B7005E8E87B4BD907DBD8F62B600227D6E
:1007E0001E8B26098E87B8BD907DBD8F62B71E8B8C
:1007F0000F158E9AC9BD96562D020315BDB03F3513
:1008000040BD850F35F73413BD88BABD8888484888
:100810004848BD885A3402BDA1D5BD9C8E8D4CBDC3
:10082000A2B88620A0C4270B644166426643664492
:100830004A20F3EC41AAE084F73402B63A738510FB
:10084000260EB61E8984018801484848AAE4A7E418
:100850003502EDA4EC43ED223593F60004C4F034E8
:1008600004A1E02705C6FFF71E7B398E8883BDA152
:10087000D5BDA071398E8883BD907DBD8F6239BD95
:100880008F1E39008000000034528508270486043A
:10089000200580042E014FC6033D8E88AB3085A60F
:1008A00084AE01BF0009B7000B35D2FF18E7C31EA5
:1008B000E239639D057D83E10FF14F8E8936BDA43A
:1008C000212D0C8E89634CBDA1D5BD9C8E20ECF6EC
:1008D0001E89C4FC4D2704CA022002CA01F71E89E2
:1008E0008E897CA686B71E888E1E76BDA1E24F8EAD
:1008F0008913BDA4212D054C300520F68104260E58
:1009000034108E879BBDA42135102D02860D3089B1
:1009100000283900A7C5AC48000000000003D1B78B
:10092000175A0783126E980AA3D70A3E0DCCCCCC77
:10093000CE10800000001180000000189896800002
:100940000000000000189896800014F424000011A4
:10095000C35000000E9C4000000BFA0000000AFA91
:100960000000007DCCCCCCCD018000000004A000B4
:10097000000007C80000000AFA00000081898A8C84
:1009800034777D0022270EB6005E85101026FE7497
:100990008A10B7005EBD850634408D2D29218E005A
:1009A0000C108E3B30C604BD854DB61E898A08B733
:1009B0001E897D1E8C260284FCB73B407E87FF3556
:1009C00040BD850F35771A0239F61E89B60075B716
:1009D0002180273F8E0088BD907D3402A6C4847F8D
:1009E000A7C435028E0084BD907D8E8AF6BD907DB1
:1009F000BD8CA9BD8F628E9AD1BD9656102E006C0B
:100A00003344CA048E0088BD907D8E0084108E8B86
:100A10000A200FC4FB8E0080BD907D8E007C108E5E
:100A20008AFAF71E8934108E1E92BD9088334435A1
:100A300010BD59317D002226038EA78EBD907DBD4D
:100A40008A768E1E92BD907D312CBD8B568E1E9265
:100A5000BD90884D2A074353C3000120028A107DB0
:100A6000007626028A20FD000C1CFD39C622BDB38B
:100A70006833441A0239BD907DBD8B568E1E8EBDE3
:100A800090883404F61E89C40235042613BD8B1ADF
:100A900084033402B6000E84FCAAE0FD000E20445C
:100AA000F61E89CA303024BD96562E0DC40F8E8B8B
:100AB00006BD907DBD8CA920123028BD96562E0B08
:100AC000C41F8E9ACDBD907DBD8CA9F71E89BD8BAC
:100AD00056BD8B1A84033402B6000E84FCAAE0FDD6
:100AE000000E33446FE2840310830000270263E4A6
:100AF0003502B71E8C3901B504F308C800007BF538
:100B0000C28F7F99999A07C800000E9C4000769D7D
:100B1000494C79C49BA60D9C40007D237F26367DE1
:100B2000004426313404F63A73C52035042626F6EF
:100B30001E5F3404C60C1A50F71E5FF73A721CAFE2
:100B4000BD4D443406E6621A50F71E5FF73A721C38
:100B5000AF350632613930A4BD907DBD8CA9BD880A
:100B600075BD90C13406BD854430A4BD907DBD8D5A
:100B70008735863477C601BD731729078D2C290365
:100B8000B73B10C602BD731729078D1E2903B73B5B
:100B900020C603BD731729108D10290CB73BB0FC7C
:100BA000000EF73B33B73B3235F70D2E27078E008B
:100BB000C56D85270C327A1F42BD4E2232661CFD60
:100BC000391A02391CAF3425C600108E7AC9BDAF60
:100BD0003835258D4120EF1CAF3425C608108E7B9B
:100BE000FFBDAF3835258D2E20EF1CAF3425C60351
:100BF000108EAF93BDAF383525BDAC588D18BDAC48
:100C00004820E91CAF3425C602108EAF66BDAF3850
:100C100035258D0220EF34301F31108E1E96BD8396
:100C2000DA35B01CAF108E1EA5BD83FC108EAEAEA3
:100C3000C6028D1520EF1CAF108E1EB1BD83FC10B7
:100C40008EAED1C6038D0220EFADA43410AE05BD2B
:100C500084DB3510BD844E3935201CF034173270DA
:100C60006EA4334468C4646F66C432E81035B73389
:100C70004420F333442B16A6E8108A05A7E810CCCD
:100C80008000EDC4CC0000ED4220DB3344A6E81028
:100C90008A03A7E810CC7FFFEDC4CCFFFFED422014
:100CA000C5334420D2334420D63420BD8C584FE67F
:100CB000C4584968448900A7E9000FA641A445101B
:100CC0002AFFE2EB441029FFAAE7E9000D4F5FED90
:100CD000E4ED62A764A642E6473DE36324026C624A
:100CE000ED63A643E6463DE36324026C62ED63A632
:100CF00041E6473DE36224026C61ED62A642E646AE
:100D00003DE36224026C61ED62A643E6453DE36289
:100D100024026C61ED62A642E6453DE36124026C6B
:100D2000E4ED61A641E6463DE36124026CE4ED6139
:100D3000A641E6453DE3E424026C7FEDE42B166812
:100D4000636962696169E4A6E9000D80021029FF08
:100D500050A7E9000D6D632C1F6C62261B6C612689
:100D6000176CE42613CC0000ED618680A7E4A6E9A9
:100D7000000D8B02A7E9000DA6E9000DE6E4ED44A5
:100D8000EC61ED467E8C6F3402BD8D993401BD8CD3
:100D9000A91FA8AAE01F8A35823420BD8C584F684D
:100DA000C449A7E9000FE6C4C184102DFEDF4F5FE0
:100DB000ED65ED67ED69A76BE6411027FECF548E18
:100DC0008E9EA6855FED621F893DEDE4A6E4E642B6
:100DD0003DE36A24026C69ED6AA661E6413DE36A7F
:100DE00024026C69ED6AA6E4E6413DE36924026CE5
:100DF00068ED69EC62A369606B686B5949ED694FF6
:100E00005FEDE4ED62A764A66AE66A3DE36724024B
:100E10006C66ED67A669E66A3DE36624026C65EDE3
:100E200066A66AE6693DE36624026C65ED66A6691E
:100E3000E6693DE36524026C64ED65A643E6663D24
:100E4000E36324026C62ED63A642E6673DE363243C
:100E5000026C62ED63A643E6653DE36224026C61C9
:100E6000ED62A642E6663DE36224026C61ED62A695
:100E700041E6673DE36224026C61ED62A642E665ED
:100E80003DE36124026CE4ED61A641E6663DE36169
:100E900024026CE4ED61A641E6653DE3E424026CC6
:100EA0007FEDE44F5FA362ED62EC69E261A2E4EDE5
:100EB000E42A066AC46AC4200868636962696169D1
:100EC000E4AEE4AF41A662A74360C46CC46CC464E2
:100ED000E9000F66C432E90010BD97E535B7FEFAA8
:100EE000F6F3EFECE8E5E2DFDCD9D6D3D1CECCC91E
:100EF000C7C4C2C0BDBBB9B7B5B3B1AFADACAAA88A
:100F0000A6A5A3A1A09E9D9B9A9897969493929034
:100F10008F8E8D8B8A898887868584838281BD9216
:100F20001FBD8F62394D260139344033C581082EEB
:100F3000176441664266434A26F7A943A74324063D
:100F40006C4226026C4135C081102E0AAE41AF4280
:100F50006F41800820DBE641E7436F416F4280101C
:100F600020CF3420BD8C584F5F68C449684459ED88
:100F7000E9000EE8E9000E2663A6C4A04428042B6D
:100F80004A203647270B2E344081172E2C5FBD8F09
:100F900025EC42E346ED46A641A945A745241A663D
:100FA0004566466647240A6C4726066C4626026C50
:100FB000456C446C441029FCD27E8C6F81172E0B3B
:100FC000C604BD8F25A6C4A74420C6373033443697
:100FD00030A6E9000EA7E9000F7E8C66A6C4A044E7
:100FE00028042BE720D34727672D7981172EDCC6ED
:100FF00004BD8F25A6C4A744EC42A346ED46A641F6
:10100000A245A745A6E9000EA7E9000F6D452712E6
:101010002BA76A441029FC896A44684769466945D8
:1010200020EE6D462715AE46AF454FA74786F0AB7D
:10103000441029FC6CA7446D4520D5A647A745CC94
:101040000000ED4686E0AB441029FC55A74420E79C
:10105000EC4110A3452D182E9FA643A14725102231
:10106000977E8CA5408117102EFF4E5FBD8F25EC1B
:1010700046A342ED46A645A241A745208F3427103E
:10108000AE02EC84362635A73427ECC410AE42ED10
:101090008410AF0235A73427372634263726335C31
:1010A0003626352610AF46ED4435A734273726348B
:1010B00026EC8410AE0236263526ED8410AF0235BC
:1010C000A734161F41BD90CA35963420BD8C586F89
:1010D00061A6C410AE415F4859E7E9000F4D2E0DDF
:1010E000CC0000108C000027196C61201544801082
:1010F0002C42A7E41F202719445624026C616CE49B
:1011000026F66DE9000F270943536D612603C300DE
:1011100001ED8432E9001035B73420BD8C586FE9F9
:10112000000FA6C410AE414825374D2F3E44801015
:101130002E3E20BEE6E9000F27184D2606108C80B3
:1011400000270AA6E900108A03A7E90010CC800056
:1011500020BFA6E900108A03A7E90010CC7FFF207A
:10116000B0A6E900108A09A7E90010CC000020A170
:10117000A6E900108A03A7E90010CCFFFF209234F3
:1011800020BD8C58ECC410AE4236265F4859E7E9C2
:10119000000F4D2E0A33448E91E2BD907D202244F3
:1011A0008117221DC60181082F0580085C20F78E5B
:1011B00091E6A686A4C5A7C55CC10322046FC5201D
:1011C000F76DE9000F27103044BD965627098E9A17
:1011D000C9BD907DBD8F1EBD9096334432E900108D
:1011E00035B7400000000080C0E0F0F8FCFEFF349E
:1011F00020BD8C58108E0000CC100036266FE90000
:101200000FEC842E0F1027FA766CE9000F4350265E
:10121000034C2B066AC458492AFAED417E8C64348B
:1012200003A6C48880A7C435833420BD8C5830659C
:10123000BD90888603A7644FA7E9000F108E0000B9
:10124000A6C4482412E6E90010CA09E7E90010E63E
:10125000C4C880E7C4E765E641273A4747250CC183
:10126000C02C04C6C92007C6EF20034CC69B847F50
:10127000362630E4BD9088BD8D87BD907DBD8F62E0
:10128000A6C44A847FA7C46A64270A3065BD907DDE
:10129000BD909620DD7E8C6434108D26291134019A
:1012A0008E93ABBD907DBD8CA91FA8AAE01F8A3587
:1012B0009034108D0D29F88E93AFBD907DBD8CA913
:1012C00035903420BD8C588601A7E9000FA6C4488C
:1012D000240AE6E90010CA09E7E900106D41102769
:1012E000F9AB47A7E9000D6FC4CC4000108E000099
:1012F0003626E645C4705454E7648E93C73085BDE6
:10130000907DBD8F62E66454548E93BFA685A7631B
:101310006FE46F61A647E6633D588900A762A64661
:10132000E6633DE36124026CE4ED61A645E6633DBE
:10133000E3E424026C7FEDE4EC46E361ED46A64570
:10134000A9E4A74524AC2B15AA46AA47260837309E
:101350003344363020403730BD97E53630BD909667
:1013600030E4BD90888E93BBBD907DBD8CA98E93DB
:10137000B7BD907DBD8F6230E4BD907DBD8CA9BDB1
:10138000921F8E93B3BD907DBD8F6230E4BD907D82
:10139000BD8CA9BD8F62E6E9000D1DEDE430E4BD12
:1013A00091EFBD8F6232E9001035B77F9A209B0024
:1013B000B1721801B8AA0E00B87CA8FFE80000D8E6
:1013C000A880604030180880E1F4E580BA58FF80BA
:1013D00095C01AFFEB3A9FFFA4D3C2FEFDE0B6FE14
:1013E0008462C4FCB5D69C6F666F6767C4A6C42FC1
:1013F0001381062E3F274068436942694169666A46
:10140000C426F44F8B042F256843694269416967FC
:101410004A26F5867CA7C46D412B12A641AA42AA92
:101420004326078640A7C41CFD39BD97E568C46400
:10143000C41CFD391A0239A64181AE22F720B83406
:1014400020BD8C586FE9000F8E94C2BD907DBD8C7D
:10145000A968C4254FBD93E71029F83130E4BD9049
:10146000888E94CABD907DBD8CA98E94CEBD907D92
:10147000BD8F6230E4BD907DBD8CA98E94D2BD90AD
:101480007DBD8F628E94D6A66548483086BD907D1E
:10149000BD8CA9A6644868C4ABC41029F7D744A77B
:1014A000C47E8C64BD93E71029F7CC6364A66543C2
:1014B000840FA7658E94C6BD907DBD8F1EBD921F03
:1014C000209A01B8AA3B7D8000007EFB634E00B1EC
:1014D0006AE001800000018000000185AAC3018B41
:1014E00095C20191C3D3019837F0019EF53201A551
:1014F000FED701AD583F01B504F301BD08A401C5F5
:10150000672A01CE248C01D744FD01E0CCDF01EA3B
:10151000C0C701F5257D3420BD8C586FE9000F68E8
:10152000C469E9000F64C45F8E95D6BD96562D0937
:101530005CC1082704300420F25858E764273D3086
:10154000E4BD908833448E95F2E6643085BD907D8D
:101550008E9612E6643085BD907D3065BD90888E94
:101560009632E6643085BD907D30E4BD907D306577
:10157000BD907DBD8F62BD8D87BD8F1EC602E769A0
:101580008E95CAAF6A30E4BD9088BD907DBD8CA9B0
:101590003065BD90883344AE6ABD907D3004AF6A3B
:1015A0003065BD907DBD8CA9AE6ABD907D3004AF25
:1015B0006ABD8F626A6926E830E4BD907DBD8CA962
:1015C0006D642703BD8F627E8C647ECCCCCDFFAA78
:1015D000AAAB018000007DC9B5DC7F9B504200882A
:1015E000D5B900D21801019BF7EC01EF789E02D229
:1015F000FACF04A273637EC90FDB7FC90FDB0096AD
:10160000CBE400C90FDB00FB53D10196CBE401AF63
:10161000EDDF01C90FDB03A0DFF7029A827A01BF79
:1016200090C90180000000AB0DC17FD413CD7ECBEB
:10163000AFAF4000000005D2317203DA827A02CFE8
:10164000595B0280000001B925B10195F61A0185A8
:101650001081018000003422BD97E5A684A8C42B28
:1016600010A6842B168D1E2218250A1CF01A04358C
:10167000A26DC42A0C1CF01A0935A28D0827EC2291
:10168000F41CF035A2327F488B80A7E4A6C4488BB7
:1016900080A1E4260C10AE4110AC012604A643A1A3
:1016A0000332613964C48E97B9BD907DBD8CA96F3A
:1016B000626F63A6C4482B2A2729A6C4810F2E4433
:1016C00068436942694169624A26F5A6628403A7B4
:1016D000626FC46D412B0CA641AA42AA432718BDD4
:1016E00097E5398601A76363416342604326E86C4E
:1016F0004226E46C4120E0CC4000108E0000EDC496
:1017000010AF4239A6E900128A03A7E9001220E7C8
:101710003420BD8C584F68C449A7E9000FBD96A47A
:10172000A6E48402270AA6E9000F8801A7E9000FB2
:10173000A6E48401A861263B8E97BDAFE4BD977EE9
:101740003063BD907DBD8CA97E8C643420BD8C58E7
:1017500068C44FA7E9000FBD96A4A6E44C840227F5
:101760000AA6E9000F8801A7E9000FA6E48401A8F2
:101770006126C58E97D1AFE4BD977E7E8C648604CA
:10178000A7643065BD9088BD907DBD8CA9BD921FBA
:101790003069BD90883344AE62BD907D3004AF6245
:1017A0003069BD907DBD8CA9AE62BD907D3004AF27
:1017B00062BD8F626A6426E83900A2F98374A83C8E
:1017C0001A799969667DA335E300A55DE701C90F24
:1017D000DB76F0FA837BAAE9E47F81E0F8019DE9FA
:1017E000E6018000003420BD8C584F68C44967C4AE
:1017F000A7E9000F6D4127132B0E6AC41029F47757
:101800006843694269412AF27E8C646D4227161052
:10181000AE4210AF416F43E6C4CBF81029F458E74D
:10182000C46D4120E16D431027F454E643E7416F56
:10183000426F43E6C4CBF01029F43CE7C46D41206D
:10184000C53420BD8C586FE46F67CC4000108E000B
:10185000003626CC0180108E0000ED6210AF646F60
:10186000E9000D6FE9000F6F66A680AFE9001381F4
:101870002B27F6812D102700A28145102700B48167
:1018800065102700AE812E102700B78BC7102E00E1
:10189000BA8B09102D00B4A76186FFA767E6E4C1E3
:1018A0000227445D261C8E9ACDBD907DBD8CA9106B
:1018B00029F3DA8D4ABD8F621029F3D1AEE9001306
:1018C00020A73062BD907D8E9AD1BD907DBD8CA940
:1018D0003062BD90888D28BD8CA9BD8F621029F320
:1018E000ACAEE900132082A6E9000DC60A3DEB610B
:1018F000E7E9000D1025F3954D1026F39020E2CC7A
:101900004000108E00003626E663270E86045858E5
:1019100058582B044A5820FAEDC439A6E48102270E
:101920000B6FE9000F63E9000F16FF3D6F666366FA
:1019300016FF368602A1E427506D67270EA7E4162E
:10194000FF276DE426436CE416FF1E301FAFE9004D
:1019500013A6E9000D1027F30B6D6627168E9AD19A
:10196000BD907DBD8CA91025F30D6AE9000D26ED13
:101970007E8C648E9ACDBD907DBD8CA91025F30D13
:101980006AE9000D26ED7E8C64A6E900108A01A7A5
:10199000E90010CC4000108E0000EDC410AF426F83
:1019A000E9000F7E8C643420BD8C58ED63841F4C9D
:1019B000ED616FE46F65ECC410AE4236266FE9004E
:1019C0000F68C42506862BA7802008862DA7806C6B
:1019D000E9000F64C4AFE900134F6D412A1C8E9AD1
:1019E000C9BD96562D6A8E9ACDBD96562C744F68F9
:1019F0004369426941496AC426F5AEE900138B3058
:101A0000A7806D61276C862EA780860AA766CC000A
:101A100000ED67ED69A643E6663DE36924026C6864
:101A2000ED69A642E6663DE36824026C67ED68A6B0
:101A300041E6663DE36724026C66ED67A6678B307E
:101A4000A7806A61272CEC68ED41A66AA74320BEF7
:101A50006DE4269A8E9ACDBD907DBD8CA96A6516DF
:101A6000FF7C6CE48E9AD1BD907DBD8CA96C65160F
:101A7000FF6CE66227492A0586655020028645A745
:101A8000806D652D06862BA7802006862DA7806099
:101A900065C1012E0AA66581092E208B30201EE625
:101AA00065C1142607CC3230ED8120138630C10A7F
:101AB0002D034CC00ACB30ED812004862AA780BDBF
:101AC0009AD5AFE900137E8C620180000004A0006B
:101AD000007DCCCCCD3410AEE9001734673278AF3E
:101AE000E4AE6FAF62AF666F646F65A61F812A10A8
:101AF00027001DAEE4A680812E27FA81302D0481B7
:101B0000392FF2301FAF66A68281352D03BD9B476A
:101B1000AE66C6FFA61E812E2602C6FEA684A78537
:101B2000AC622C04300120F43085AF62AE663085A3
:101B3000AF66AEE4ECE81684E027037E9BD3AE628A
:101B4000326835673262393520C630A682812E2749
:101B5000FA8130102D00108139102E000A2D04E773
:101B60008420E86C846EA4AE62AC662608AEE4867F
:101B70002AA7842052AEE48631A784AE66A60181EE
:101B80002D2723AE62A68281302DFA81392D12864F
:101B900030A784A682812B102700288139102700C6
:101BA000226C847E9BC7AE62A68281302DFA2E0EF7
:101BB0008639A784A682812D2709813027056A846A
:101BC0007E9BC7862AA7016EA4362E353533353065
:101BD000303000AE62A61F8030E61DC12D260140C8
:101BE000E6E816C4E05454545454E7E8161F89EB51
:101BF000E81681012F1E81072C3DAEE4108E9BC993
:101C0000108C9BD22C0CE680A6A0A764E16427F080
:101C10002D25C608AEE43085AC662C1BAF6486303B
:101C2000E684C1352D07BD9B47AE648630E684C18E
:101C3000452704A78020F67E9B3E35201CF03417F4
:101C400032706EA4334568C4646F66C432E81035E0
:101C5000B7334520F333452B18A6E8108A05A7E8CB
:101C600010CC8000EDC4CC0000ED42A74420D93355
:101C700045A6E8108A03A7E810CC7FFFEDC486FFD5
:101C8000ED42A74420C2334520CF334520D3342032
:101C9000BD9C3A4FE6C4584968458900A7E9000F42
:101CA000A641A446102AFFE2EB451029FFA7E7E969
:101CB000000D4F5FEDE4ED62ED64A766A643E649D3
:101CC0003DE36524026C64ED65A644E6483DE365AA
:101CD00024026C64ED65A642E6493DE36424026C8F
:101CE00063ED64A643E6483DE36424026C63ED645F
:101CF000A644E6473DE36424026C63ED64A641E636
:101D0000493DE36324026C62ED63A642E6483DE38D
:101D10006324026C62ED63A643E6473DE36324025D
:101D20006C62ED63A644E6463DE36324026C62ED1B
:101D300063A641E6483DE36224026C61ED62A6427F
:101D4000E6473DE36224026C61ED62A643E6463D50
:101D5000E36224026C61ED62A641E6473DE3612443
:101D6000026CE4ED61A642E6463DE36124026CE4C8
:101D7000ED61A641E6463DE3E424026C7FEDE42BF1
:101D800018686469636962696169E4A6E9000D80A5
:101D9000021029FEF1A7E9000D6D642C256C632665
:101DA000216C62261D6C6126196CE42615CC00009E
:101DB000ED61A7638680A7E4A6E9000D8B02A7E981
:101DC000000DA6E9000DE6E4ED45EC61ED47A663E4
:101DD000A7497E9C513402BD9DE73401BD9C8E1FF6
:101DE000A8AAE01F8A35823420BD9C3A4F68C449B6
:101DF000A7E9000FE6C4C184102DFE754F5FED67A3
:101E0000ED69ED6BA76DE6411027FE658E9F113AD7
:101E1000A6845FED621F893DEDE4A6E4E6423DE362
:101E20006C24026C6BED6CA661E6413DE36C240210
:101E30006C6BED6CA6E4E6413DE36B24026C6AED4D
:101E40006BEC62A36B606D686D5949ED6B4F5FED94
:101E5000E4ED62ED64A766A66CE66C3DE3692402DE
:101E60006C68ED69A66BE66C3DE36824026C67ED77
:101E700068A66CE66B3DE36824026C67ED68A66BB0
:101E8000E66B3DE36724026C66ED67A643E66A3DB8
:101E9000E36524026C64ED65A644E6693DE36524D0
:101EA000026C64ED65A642E66A3DE36424026C635D
:101EB000ED64A643E6693DE36424026C63ED64A629
:101EC00044E6683DE36424026C63ED64A641E66A7F
:101ED0003DE36324026C62ED63A642E6693DE36381
:101EE00024026C62ED63A643E6683DE36324026C62
:101EF00062ED63A644E6673DE36324026C62ED6332
:101F0000A641E6693DE36224026C61ED62A642E609
:101F1000683DE36224026C61ED62A643E6673DE33F
:101F20006224026C61ED62A641E6683DE361240231
:101F30006CE4ED61A642E6673DE36124026CE4EDEA
:101F400061A641E6673DE3E424026C7FEDE44F5F68
:101F5000A363ED63C600E262E762EC6BE261A2E4B8
:101F6000EDE42A066AC46AC4200A68646963696287
:101F7000696169E4AEE4AF41AE62AF4360C46CC472
:101F80006CC464E9000F66C432E90010BDA4733567
:101F9000B7FEFDFBF9F7F5F4F2F0EEECEBE9E7E65E
:101FA000E4E3E1DFDEDCDBD9D8D7D5D4D2D1D0CEA3
:101FB000CDCCCBC9C8C7C6C4C3C2C1C0BFBEBCBBE1
:101FC000BAB9B8B7B6B5B4B3B2B1B0AFAEADACABE9
:101FD000ABAAA9A8A7A6A5A4A4A3A2A1A0A09F9EBE
:101FE0009D9D9C9B9A9A9998979796959594939373
:101FF000929191908F8F8E8D8D8C8C8B8A8A89890E
:10200000888887868685858484838382828181808F
:1020100080BDA1F7BDA071394D260139344033C5CB
:1020200081082E1D64416642664366444A26F5A92E
:1020300044A744240A6C4326066C4226026C4135B0
:10204000C081102E0EAE42AF43E641E7426F4180A1
:102050000820D181182E0CAE41AF436F416F4280F2
:102060001020C1E641E7446F416F426F4380182062
:10207000B33420BD9C3A4F5F68C449684559EDE9C7
:10208000000E6D412A566D462A64E8E9000E266F5F
:10209000A6C4A04528042B56204247270B2E4040BB
:1020A000811F2E385FBDA018EC43E348ED48A642DF
:1020B000A947A747A641A946A746242066466647E2
:1020C00066486649240E6C49260A6C4826066C4709
:1020D00026026C466C456C451029FB937E9C518111
:1020E0001F2E0BC605BDA018A6C4A74520BA3732BF
:1020F00033453632A6E9000EA7E9000F7E9C48A6BC
:10210000C4A04528042BE720D3471027008E102DAC
:1021100000A3811F2ED8C605BDA018A6C4A745ECF4
:1021200043A348ED48A642A247A747A641A246A717
:1021300046A6E9000EA7E9000F6D4627142B9D6AFD
:10214000451029FB416A4568496948694769462045
:10215000EC6D472718AE47AF46A649A7486F49869A
:10216000F0AB451029FB1FA7456D4620D06D4827D1
:1021700015AE48AF46CC0000ED4886E0AB451029CF
:10218000FB04A74520E3A649A7464F5FED48A747B4
:1021900086D0AB451029FAEEA74520CDEC4110A31F
:1021A000462D1D102EFF78EC4310A3482512102257
:1021B000FF6D7E9C8A40811F102EFF205FBDA018FE
:1021C000EC48A343ED48A647A242A747A646A24132
:1021D000A74616FF64343310AE03A684AE01363230
:1021E00035B33407A6C4A784EC41ED01EC43ED03FD
:1021F00035878DEE3345393403A6C48880A7C435AE
:10220000833433373234323732335B36323532A7A8
:1022100045AF4610AF4835B33420BD9C3AA6C41034
:10222000AE415F4859E7E9000F4D2E05CC00002074
:10223000114480102C37A7E41F20270E44566CE46D
:1022400026FA6DE9000F27024353ED8432E90010AE
:1022500035B73420BD9C3A6FE9000FA6C410AE41DB
:102260004825374D2F3E4480102E3E20C9E6E90018
:102270000F27184D2606108C8000270AA6E90010AB
:102280008A03A7E90010CC800020BFA6E900108ACD
:1022900003A7E90010CC7FFF20B0A6E900108A094F
:1022A000A7E90010CC000020A1A6E900108A03A72E
:1022B000E90010CCFFFF20923420BD9C3AA6C4AEAA
:1022C0004110AE4336325F4859E7E9000F4D2E0A00
:1022D00033458EA31DBDA1D5202244811F221DC6DA
:1022E0000181082F0580085C20F78EA322A686A412
:1022F000C5A7C55CC10422046FC520F76DE9000FB6
:1023000027103045BDA42127098EA793BDA1D5BDB7
:10231000A011BDA201334532E9001035B7400000DD
:1023200000000080C0E0F0F8FCFEFF3420BD9C3AC5
:102330008E0000108E0000861036326FE9000FAE5E
:10234000E90013EC842E0F1027F9166CE9000F43F7
:102350005026034C2B066AC458492AFAED417E9C4C
:10236000463420BD9C3A8601A7E9000F6D41102735
:10237000F8FFA6C4A7E9000D48240AE6E90010CA40
:1023800009E7E900106FC41F41BDA1E28EA3F48DDF
:102390002C30E4BDA1D58EA4088D22BD9DD5E6E9E3
:1023A000000D581DEDE430E4BDA32B8EA41CBDA18F
:1023B000D5BD9C8EBDA07132E9001035B7BDA1D549
:1023C000BD9C8E30051F12BDA1D5BDA0713062BD70
:1023D000A1D5BD9C8E1F2130051F12BDA1D5BDA06A
:1023E000713062BDA1D5BD9C8E1F213005BDA1D528
:1023F000BDA0713901B9651CBA01EB450D5482AA23
:10240000BF4F56809E57170E018000000003CDB0CD
:10241000E27D0391720B087FB504F5F07E9A209A55
:10242000853422BDA473A684A8C42B106D842B16FA
:102430008D1E2218250A1CF01A0435A26DC42A0C20
:102440001CF01A0935A28D0827EC22F41CF035A2E5
:10245000327FA684488B80A7E4A6C4488B80A1E481
:10246000260E10AE4110AC01260610AE4310AC0390
:102470003261393420BD9C3A4F68C44967C4A7E92A
:10248000000F6D4127152B106AC41029F7CB684443
:102490006943694269412AF07E9C466D422718AE25
:1024A00042AF41A644A7436F44E6C4CBF81029F7D6
:1024B000A8E7C46D4120DF6D432716AE43AF416FDF
:1024C000436F44E6C4CBF01029F78EE7C46D41207A
:1024D000C56D441027F78AA644A7414F5FED42A778
:1024E00044E6C4CBE81029F770E7C46D4120A73457
:1024F00020BD9C3A6FE4CC4000108E0000360436BC
:1025000026CC0180ED624F5FED64A7666FE9000D98
:102510006FE9000F6F67A680AFE90013812B27F6E4
:10252000812D102700A58145102700B78165102750
:1025300000B1812E102700B6812027DA8BC7102E1C
:1025400000B58B09102D00AFA761E6E4C102274555
:102550005D261C8EA798BDA1D5BD9C8E1029F711B4
:102560008D4BBDA0711029F708AEE9001320A730EC
:1025700062BDA1D58EA79DBDA1D5BD9C8E3062BD8B
:10258000A1E28D29BD9C8EBDA0711029F6E3AEE9B4
:1025900000137EA516A6E9000DC60A3DEB61E7E92A
:1025A000000D1025F6CB4D1026F6C620E1CC4000DC
:1025B000108E000036043626E663270E860458582F
:1025C00058582B044A5820FAEDC439A6E481022752
:1025D0000B6FE9000F63E9000F16FF3A6F6763673F
:1025E00016FF338602A1E4274CA7E416FF286DE40A
:1025F00026436CE416FF1FA682AFE90013A6E9008C
:102600000D1027F6416D6727168EA79DBDA1D5BD7C
:102610009C8E1025F6436AE9000D26ED7E9C468EC1
:10262000A798BDA1D5BD9C8E1025F6456AE9000D81
:1026300026ED7E9C46A6E900108A01A7E90010CC91
:102640004000108E0000EDC4E74210AF436FE90078
:102650000F7E9C463420BD9C3AED63841F4CED6197
:102660006FE46F65EC4110AE433626A64436026F28
:10267000E9000F68C42506862BA7802008862DA7B1
:10268000806CE9000F64C4AFE900134F6D4127204F
:102690008EA793BDA4212D7D8EA798BDA421102CBB
:1026A00000854F6844694369426941496AC426F319
:1026B000AEE900138B30A7806D61277B862EA78043
:1026C000860AA766CC0000ED67ED69ED6AA644E6D0
:1026D000663DE36A24026C69ED6AA643E6663DE363
:1026E0006924026C68ED69A642E6663DE36824024F
:1026F0006C67ED68A641E6663DE36724026C66ED13
:1027000067A6678B30A7806A61272CEC68ED41ECE7
:102710006AED4320AF6DE426898EA798BDA1D5BD93
:102720009C8E6A6516FF696CE48EA79DBDA1D5BD20
:102730009C8E6C6516FF59E66227492A058665500E
:1027400020028645A7806D652D06862BA780200672
:10275000862DA7806065C1012E0AA66581092E20FD
:102760008B30201EE665C1142607CC3230ED812067
:10277000138630C10A2D034CC00ACB30ED812004F2
:10278000862AA780BDA7A2AFE900137E9C44400023
:10279000000000018000000004A00000007DCCCCFF
:1027A000CCCD3410AEE9001734673278AFE4AE6FA9
:1027B000AF62AF666F646F65A61F812A1027001D88
:1027C000AEE4A680812E27FA81302D0481392FF2C4
:1027D000301FAF66A68281352D03BDA814AE66C634
:1027E000FFA61E812E2602C6FEA684A785AC622CFB
:1027F00004300120F43085AF62AE663085AF66AE3E
:10280000E4ECE81684E027037EA8A0AE62326835C7
:10281000673262393520C630A682812E27FA813090
:10282000102D00108139102E000A2D04E78420E8B5
:102830006C846EA4AE62AC662608AEE4862AA784D9
:102840002052AEE48631A784AE66A601812D2723EF
:10285000AE62A68281302DFA81392D128630A7848E
:10286000A682812B102700288139102700226C8432
:102870007EA894AE62A68281302DFA2E0E8639A7EC
:1028800084A682812D2709813027056A847EA89439
:10289000862AA7016EA4362E353533353030300008
:1028A000AE62A61F8030E61DC12D260140E6E81667
:1028B000C4E05454545454E7E8161F89EBE81681D9
:1028C000012F1E81072C3DAEE4108EA896108CA817
:1028D0009F2C0CE680A6A0A764E16427F02D25C6F6
:1028E00008AEE43085AC662D1BAF648630E684C14B
:1028F000352D07BDA814AE648630E684C145270493
:10290000A78020F67EA80B3436A666851027078A96
:1029100040A76635363BC602F73A70108E3B008EF4
:10292000A94A3440CE1F3EE6842B1A2704A6A42BC6
:102930000931A8103003334120ED6DC427F3A4847E
:1029400035406E9801354035363B01AAC501A97561
:1029500001A98D01A9CC1FA9E800A94700A947003A
:10296000A94700A94700A94700A94701A9A500A9AF
:102970004707AA27FF4D27473420108E2146A6A9D6
:102980000005352084FEB73B10861020324D272FDE
:102990003420108E214CA6A90005352084FEB73BBB
:1029A000208620201A4D27173420108E2152A6A9E8
:1029B0000005352084FEB73BB08640200286809A11
:1029C0002C972C108E1EC1103F35363B4D260286AB
:1029D00008BA1EA4B11EA3270CB71EA3B71EBF10B2
:1029E0008E1ED1103F35363B7F1EA24D84FE272719
:1029F000851827198510271F3402B61E898A80B7CB
:102A00001E89B73B403502840626028606BA1EBFE1
:102A1000B11EA327D020014FB71EBFB71EA3108E33
:102A20001ED1103F35363B4D1027FF1B7F002784FA
:102A300003B703A12634B600232622F601DFF703ED
:102A40009FB602ED8A01B70010B73BD186FFB700F1
:102A500023B70028108E1E80103F35363BB602ED9E
:102A60008A01B70010B73BD120F01220F08E1ED1A2
:102A7000BD839F1CAF108E1ED1113FB61EBF340206
:102A80004D2737108E0006C631442429C131260F48
:102A900034028601B720E5B7004635027F005EC1EB
:102AA0003426067F20E57F005E3404C13326015AB8
:102AB000BDB38835045C313F26CF350243B41EBF19
:102AC000B71EA420B096338A80B73B00847FB73B03
:102AD000009733DC3E830001DD3E963D8200973D4A
:102AE0000A3C2A28D63CFB2170D73C585C9E3D2EE0
:102AF00004D13F2C0A0D232B060F3D0F3ED73FDCA0
:102B000041830001DD41964082009740DC3D2B1E51
:102B10002619963FB121702605D62FF73B0181017A
:102B2000260996338A20B73B00973335363B86FF1C
:102B3000972D7EA9C31A40F61E5F3404C602F73AE9
:102B4000708E3A00108EAB66E6A42B132704A68580
:102B50002B04312620F2A4212705EE246EB80212A0
:102B60003504BD83053B0000ABB100000000ABB1F4
:102B70000000217FABB11EE3317FABB11F0F00001E
:102B8000ABB100005107B0B71EDD0000ABB10000D3
:102B900006FFAB972204FFB63A02A7C90005B63A72
:102BA00001A7C900044FB73A01B73A021F327E832A
:102BB00018308585602664850826368510275CE6F2
:102BC000C81B2723A6C81A3404A0E0840F31C81CF0
:102BD000A6A6A71F5AE7C81BC1022C0FAEC818270C
:102BE0000A31C8167E8318C609E7013504BD83057E
:102BF0003BE61FC47F850726223146A645810F2D5F
:102C000006A6446FA6200BA644E7A64C840FA74453
:102C10006C45AE4227D531C47E8318E61F20F334BD
:102C2000778D63E6C81BC10F2D0731C816113F20F1
:102C3000F2E6C81A31C81CA7A55CC40FE7C81A6C15
:102C4000C81B8605A70135F734067D006C2607C62C
:102C5000038611BDAC1F358634067D006C2607C681
:102C6000038613BDAC1F358634758D1AE6452606DE
:102C700031C4113F20F6A6443404A0E0840F30464E
:102C8000A6866A4535F5340286063D108EAB668E03
:102C90003A00A6A53086CB04EEA51A10358234770B
:102CA0001E02F61E5F34041E021F125D2603BDAE17
:102CB0007EBD84C3BDAE901F12BD8436A707E70357
:102CC00010AF05108EAD4BA6A6A7021183221627C2
:102CD000221183222E1027012B11831EB127201FC2
:102CE00032BD83DA35021A50B73A72B71E5F3577B4
:102CF0001CFD39E60758108EAD0BADB57EACE4E691
:102D00000758108EAD2BADB57EACE4AD5BAD5BADC1
:102D1000F5AD5BAD7AAD7AAD5BADF5AD99AD99AD85
:102D200099ADF5ADF5AD5BADF5AD99AD72AD72ADEB
:102D3000F5AD72ADC2ADC2AD72ADF5ADD9ADD9AD27
:102D4000D9AD72ADC2ADF5ADF5AD720A0A14141E5F
:102D50001E28280A0A0A283C3C465034101A5010F3
:102D60008E223CBD83CD1CAF3510108E2216BD8344
:102D7000BE39108E1EB1BD83DA391A50FC223E27AF
:102D8000743410108E223CBD83CD3510BDAE1D1C99
:102D9000AF108E2216BD83BE397D004827577D00B7
:102DA0006F27521A50FC223E274B3410108E223CC3
:102DB000BD83CD3510BDAE721CAF108E2216BD8303
:102DC000BE391A50108E1EB16D272629BDAE1D1CAE
:102DD000AF108E1EB1BD83DA397D004727171A5018
:102DE000108E1EB16D27260DBDAE721CAF108E1E4B
:102DF000B1BD83DA391CAF3410AE05BD84DB3510AC
:102E0000BD844E3934101A50108E2248BD83CD1C1B
:102E1000AF3510108E222EBD83BE7EACE43426105A
:102E2000AE05A6A4816E273B812125313406ECA492
:102E300010835043271E10835449271810832A49B2
:102E4000271210834655270C3506812A270F813912
:102E5000220B20143506CC0101EDA4200B8601A71E
:102E6000A020BFCC300DEDA410AE05BDAE7EE703B3
:102E700035A6342610AE05BDAE7EE70335A6342256
:102E8000C601A6A02708810D27045C26F55A35A2A5
:102E900034375A2B06A6A0A78020F735B73416AED4
:102EA00005A680BDAC1F2704810D26F53596341686
:102EB0007D39AF2B1A8604BDAC1FBDAC1FAE05A675
:102EC00080BDAC1F2709810D26F58EB03D20F03561
:102ED000963476A6078101272EAE05A68027268187
:102EE0001F2408811422F4810725F0847F812C2679
:102EF0000A7D006B2705BDAF1A20E0BDAF23810D11
:102F000026D9BDB01035F6A6033402AE05A680BDA5
:102F1000AF236AE426F7350235F6860DBDAF23BD33
:102F2000B010397D1EBD270C7F1ED97F1EDA108E92
:102F30001ED9113FBDAC1F39B61E5F340234011AD1
:102F4000507F3A727F1E5F3501BD84361F13BD84EA
:102F5000C3AF45E744ADA4350234011A50B73A7205
:102F6000B71E5F35013934766F42108E0000BDAC5C
:102F700068108C000026088161250480208A80A7C3
:102F8000803121108C00502404810D26E11F20E7A0
:102F90004335F634767F1F3B3410860AA742108EE5
:102FA0000000BDAC6881132605B71EBD20F4811159
:102FB000260F7F1EBD3420108E1ED9103F352020D5
:102FC000E1BDAFFF813F26078680B71F3B20D3813D
:102FD0003B2602860D810A2602860D810D2704817B
:102FE0002025BFA7803121108C00502C0D810D268B
:102FF000B1AEE4A684BA1F3BA78435107EAF8D7DA9
:10300000006827227D1EBD261DBDAC1F810D261622
:1030100034168EB027B6006A48AE86A6802705BD56
:10302000AF2320F7351639B02FB031B037B0380A9A
:10303000000A80808080000080808080000400344E
:1030400077108E1E5B113F8D46FD3A54312110BF23
:103050001EDD7F1EC97F1ECA8640B73A5135F73440
:10306000771A50FC1EE1270E7F1ECD7F1ECE108EDC
:103070001ECD113F20EDBF1EE1350134018D10FD45
:103080003A56312110BF1EDF8640B73A5035F78ED1
:10309000B0B3BD907DBD8CA9327E1F41BD9119BDDD
:1030A00091EF3520BD8F1EA6C48B10847FA7C4BDB1
:1030B000853B397E9600968501273CB63A52965359
:1030C0008B011997538160261C0F5396528B01195F
:1030D00097528160260F0F5296518B01199751819B
:1030E0002426020F51108E21EC103F108E1E8010EE
:1030F0003F3504BD83053B85022726FC1EDD83008A
:1031000001FD1EDD270CCCFFFFFD3A543504BD83C5
:10311000053BB63A548600B73A51108E1EC97E83DD
:10312000187A1EE0270CCCFFFFFD3A563504BD830C
:10313000053BB63A568600B73A50108E1ED57E83B0
:10314000188E1ED5BD839F1CAF108E1ED5113F8ECD
:10315000000010BE1EE1BD83BE7F1EE17F1EE21097
:103160008E1ECD103F20E234178E1EBF6F808C1F45
:103170003C26F9961797290F207D043E261ACC2568
:1031800080FD3A528601B73A518640B73A508600E0
:10319000B73A518600B73A50BD785C108E21DC6F8B
:1031A000A0108C21E425F886010F2AB721DC0F2B13
:1031B0008609B73A22B73A328E1E968602BD842718
:1031C0008E1EB18602BD84278E1EA58605BD84276E
:1031D0008E2204BD839F8E1ED9BD839F8E21964F64
:1031E000BD84278E220A4FBD84278E22164FBD84B0
:1031F000278E22224FBD84278E222E4FBD84278EFC
:10320000223C4FBD84278E22484FBD8427BDB21279
:103210003597345786FFB73A31B73A21B63A31B6C7
:103220003A218603B73A32B73A22861EB73A238E3E
:10323000B253C608B63A7426028A015A2B134824A0
:10324000FA3404F722DFE685CA10F73A3335042052
:10325000EA35D70E0C0A08070605034F5F8E0000FB
:10326000E3818C00FF23F9FD1F3C8E390F108E1F68
:103270003EA6848480A7A03088108C39FF23F213E7
:1032800020FDCA08F73A7020FE3B3404D6298D424F
:1032900020213404D6290D6D2604C102260B347674
:1032A0005FCE1EA5BDAC9E35768D27C1002716C109
:1032B0000727123402966F8106350227130D6F27F8
:1032C0000F0D48270B34765FCE2216BDAC9E3576A7
:1032D00035840D6E27107D0047270B34765FCE1E98
:1032E000B1BDAC9E35763934765FCE2216BDAC9E2C
:1032F000357634765FCE1EB1BDAC9E357634765FC2
:10330000CE1EA5BDAC9E3576393404D6178D3AC194
:10331000072704C100262E34765FCE1EA5BDAC9EC5
:10332000357620213404D61720043404D6298D198B
:10333000C1072704C100260D34765FCE2216BDAC2E
:103340009E357635841CFD3584C103260B34765FAB
:10335000CE1EB1BDAC9E3576C102260B34765FCE53
:103360001EA5BDAC9E3576393437B61E5F340234A7
:10337000045FBD8305350486168E1F9B8D3186083C
:103380008E1F9BBDB2E720203437B61E5F34023457
:10339000045FBD8305350486178E1F9B8D11860A39
:1033A0008E1F9BBDB2E720003504BD830535B734C1
:1033B000103416BE1FB3BF1FB4F71FB38608C16118
:1033C0002704C10322088610C102220286201F8919
:1033D000BD79283516318817BDCC79A780F71FB67F
:1033E000F61E5F3404CA04BDB424108E6D1DF61F92
:1033F000B64FBDC46886023D3420E3E1340610AE0A
:10340000F1F61FB6C1492728108C6DE5260ABDCC00
:10341000511F12BDBCAE2005BDCC511F123504BDDD
:10342000B424359034011A50F73A72F71E5F358193
:1034300034765F860D8E82B9CE1EA5BDAC9E3576E4
:1034400020CC8E209DBD839F8E21C0BD839F8E1E6C
:1034500084BD839FCC5CD0FD1F4F0F160F210F231F
:103460000F270F26B6006F810626037C00260F2843
:103470001CAF108E209D113F108E1E96BD83FC1F29
:1034800013A69805810D102700FC7D1E4E271334CE
:10349000765F860F8E82B9CE1EA5BDAC9E35767F37
:1034A0001E4EC601F73A70C680BDB5E1A644971717
:1034B00010AE458E1F4FBDB5FA102900BB10250078
:1034C00083EC0410836EB4102700B210836EA71033
:1034D0002700AAD618102B00A4E14427378EB5F593
:1034E0005FBD5AEC2809BDB368C16110270097C6BB
:1034F000FFD71834765F860D8E82B9CE1EA5BDAC7F
:103500009E3576C660BDB3688E0000108E21B0BDBA
:1035100083BE20723416EC048EB59710A381271B4E
:103520006D8426F73516108E21B0BD83BE7F21C075
:103530007F21C1108E21C0113F204BC612BDB36840
:1035400035162042F61F5FC1152617D617C1022770
:1035500007C60DF71F5F200A860D8E1F5FBDB324BF
:10356000200886048E1F5FBDB3247D03CF27177FFD
:1035700003CA5FBD7928200EBDB36820098EB5F55A
:103580005FBD5AEC29F2AE45BD84DB1F31BD844ED0
:10359000C67F8D577EB478BD70C907C582BE0CBE8C
:1035A000CE6E286E21C026C048C02CBFEEC007CA10
:1035B00020CAF0C045C039C046C047C4AFC339C4F3
:1035C000B0C4A9C4AAC4ACC4ADC4AEC060C4ABC1CD
:1035D000B4C19EC146BFECBFE9BFEDBFEABFEB007F
:1035E0000034071A50DA16D716358734071A50D424
:1035F00016D71635871F4F0000FF3470A644A70F5B
:103600007D237F2705CE69FA2003CE64E2C6027FC0
:103610001FC3A6A481AA2607B71FC3847FA7A4BD82
:10362000B7377D1FC32706A6A48A80A7A4E70EBDCF
:10363000B7A97F1FC17F03CFECA1BDB6D0812A27D8
:103640001C81AA263E1083AA4526123406ECA4BD8E
:10365000B6D01083535235062603B703CF1083AA82
:103660005426113406ECA4BDB6D01083535435064D
:103670002602847F3406ECA1BDB6D0FD1FC13506FD
:10368000CE6AE281802515847F8D682522AE46278B
:1036900036EE44BDB92D291B1A0135F08D55250F85
:1036A000EC42ED04BDB7B529201CFD1CFE35F0C66B
:1036B00001201634765F860D8E82B9CE1EA5BDAC74
:1036C0009E3576C6502002C6055D1CFE1A0220DD1E
:1036D0004D3401847FC47FBDB6E81E89BDB6E81EA7
:1036E0008935012A028A803981612D06817A2E026C
:1036F0008020397D1FC1262010A3C4271833487DA0
:10370000237F270811836AE225E92006118369FADD
:1037100025E11A01391CFE3910A3C4270A334A11C6
:10372000836B5025F320EB3406FC1FC110A34235F8
:103730000626EA334220DE3450BDB7A9BD85061FF8
:1037400021BD98411F12BD88758EB797583085BD31
:10375000853B25078D0E10A38423021A023344BD36
:10376000850F35D034308EB7A11083270F2E23104C
:103770008E00003121A3842CFAE381313F1E208C7E
:10378000B7A9270C58495849584958491E0220E3FF
:1037900035B0CC99991A0235B0000F00FF0FFFFF2A
:1037A000FF03E80064000A000134028620A1A0277C
:1037B000FC313F35823470327CEC46ED06EE442716
:1037C0005130083341E6C4C47F275EC109275AC17E
:1037D00007102700B6C1022E17BDB7372943E141B4
:1037E000223FE142253BE780E6C42B2633432017E6
:1037F000BDB737292C10A341222710A3432522ED62
:1038000081E6C42B0D3345BDB7A9A6A0810D276D58
:1038100020B3BDB7A9A6A4810D26621CFD32643574
:10382000F0C6031A02326435F0BDB7A9AFE4EF6207
:10383000BD85061F21BDA4EF253D1F1010AE6230CF
:1038400026BDA1D58E1FB7BDA1F23021BDA1D58E59
:103850001FBCBDA1F2BDA42122278E1FB7BDA4218C
:10386000251FAEE4BDA1E230058D1AEE621F02E60F
:10387000C42B9F334B20908D0CC60420A6C602207B
:10388000A28D02209C3345BD850F39BDB7A9AFE499
:103890005FBD84C33410A6A0847F810D27065CA77A
:1038A000807EB896A780AE62E1412221313F350685
:1038B000ED817D00182B0B1F01BD84DBAEE46F8012
:1038C0006F80E6C4102BFF4A334B7EB8073510BD1E
:1038D00084DBC6027EB8233457861AA7A0E60EBD45
:1038E000BCAE8620A7A0EC04CE64E4BDB6F3EC5ECB
:1038F000EDA18620A7A0EE42272B3008334186FF9A
:10390000BDBBE9A6C42B1EC62CE7A0847F270A8175
:10391000022F0C3345300220E5334B300520DF33D6
:1039200043300120D98605C60DEDA035D73466A6F3
:10393000C433418C00DB27683402A6C4847F81072E
:103940003502102700DD8101273BBDB7A9C602BDA6
:10395000B73711836C6A250F11836C7F2409BD73FF
:1039600017293B4FBDB7643343A6C4847F26028624
:10397000084C44BDBBD95A8C026D27068C01ED273B
:10398000015C3D3085108E1F5F861AA7A0ECE4ED28
:10399000A18620A7A086FFBDBBE9860DA7A435E6BA
:1039A000108E1F5F861AA7A0ECE4EDA18620A7A0C9
:1039B00034168EB9F6F600DBC109271886053D3AA4
:1039C000EC84EDA1A602A7A0EC03EDA13516860DAF
:1039D000A7A435E6CC3030EDA1862CA7A08630F622
:1039E00002EEC10A2D04C00A8631CB30EDA1351696
:1039F000860DA7A435E630312C303030322C3030F3
:103A000030312C303230322C303130332C303030B9
:103A1000312C303330332C303130322C30333033A2
:103A20002C3032108E1F5F861AA7A0ECE4EDA18621
:103A300020A7A08C034E1027012D8C248110270075
:103A4000653416E641A680810026028620810D2776
:103A5000075A2D04A7A020ED3516860DA7A435E63C
:103A6000C601F703D01F9B7E8000BDB7A9E6A0C0AA
:103A700030102D0029C109102E0023A6A080302D62
:103A80000D81092E093402860A3DEBE02002313F08
:103A9000BDB7A9A6A4810D102600031CFD39C602DE
:103AA000BDB3681A023934103420108E1E53113FF2
:103AB00010AE66BDBA6A3520296BC112102E007394
:103AC0005A102B006E86033DC324811F01F6001798
:103AD000C10226066D02102B00635F8C249C2D1002
:103AE0003432BD63351029004EBD62413532C60304
:103AF000F722E1AE8410270054341030025F340402
:103B0000F622E1BDCB7C35048100260286205CA72D
:103B1000A0C10E260C35103404F622E1BD63F43545
:103B200004C11B2DD93510860DA7A4108E1E53106D
:103B30003F35E6C6032008C67135322002C698BD5F
:103B4000B368108E1F5FFC82B9EDA120D88EBB5ADE
:103B5000A680A7A0810D26F820CB6E6F7420656E1D
:103B60007465726564200D342010AE64BDBA6A2994
:103B70004CF10009102E00405A102B003B352086D6
:103B8000093D3085EC8900012740A68900008B3073
:103B9000C62CEDA13410308900014FBDBBE93510B2
:103BA000EC890001270C862CA7A0308900054FBDA9
:103BB000BBE9860DA7A435E6C603BDB36835201062
:103BC0008E1F5FFC82B9EDA120E88EBB5AA680A7AC
:103BD000A0810D26F8313F20D934424F34061F43CF
:103BE000BD6EC11F89326235C234574D2726A6C427
:103BF000847F27208109277081022E07E684BDBCBF
:103C0000AE35D781042F06A6808B30A7A0EC84BDEB
:103C1000BCA835D7BD85063440BD907DECC42605D3
:103C2000CC4000EDC41E213406EC1D108356412605
:103C300005CCA4022024108356422605CC84022001
:103C400019108349412605CCC402200E1083494235
:103C50002605CCC4022003CC0402BD99A635061E5D
:103C6000123540BD850F35D7BD85063440BDA1D581
:103C7000ECC42605CC4000EDC41E213406EC1D101A
:103C800083465227068607C6022003CCE702BDA65C
:103C90005435061E123540BD850F35D76E6F742022
:103CA000656E7465726564001E898D021E983416F7
:103CB0001F21BDE1031F12359634707F02EE7F0194
:103CC0008F8EBD28E6C4272AA64181032E185A5894
:103CD000583AE6862B107D237F2704C1042E0DE77A
:103CE000A4BDC05135F0C6031A0235F0C6791A02D8
:103CF00035F0E64127264FBDC46834045A86033D9B
:103D0000C324811F0135046D022717F702EEC6098F
:103D1000E7A48601B7018FBDC05135F0C6031A0272
:103D200035F0C6991A0235F000FF02050103FF07BE
:103D3000040608FF86002705E6C4F700DE1212120B
:103D40001212BD6F1DBDC051391A0239BD6F1D342D
:103D5000108EBD6A0DDC26038EBD6D34765F860D38
:103D6000CE1EA5BDAC9E3576359015030D15050DFF
:103D700034368D25AEC45FA680847F810D27105C0C
:103D8000A7A0C11B25F18D11C603BDB3682003F7A1
:103D9000018DAEC4BD84DB35B6108E017334205F57
:103DA00086205CA7A0C11B25F935A012121212BDF6
:103DB0006F1D391212121212121212121212BD6F4C
:103DC0001D3912123470E6C0102B0010C1011022F0
:103DD000000A86053D31A5BD6F0F35F0C6031A02F6
:103DE00035F012121234761F31BD85063440BD9075
:103DF0007DBD8875BD853BBD854430A4BD908835AB
:103E000040BD850F35F6BD6F170F533934707D00F7
:103E100027272DE6C4C1022E217D02F62608F700D1
:103E2000D9BD6F1D201A34765F860D8E82B9CE1EE5
:103E3000A5BDAC9E3576C6492002C6491A0235F0AA
:103E4000BD6F1D108EBE9058AEA5BF03448EBE9EA2
:103E50007D007527038EBEACADB5EE85AE5EBF1F8F
:103E6000C4AEC4BF0346AE44BF0348EE4231421065
:103E7000BF034A314710BF034CBD850634407D0364
:103E80004327076FC2BD907D2003BDA1D57EBF41F2
:103E9000BE0BBE0BBE0BBEBABEBABEC0BEC064EC8B
:103EA00064F464FC66A466AC66B466BC64EC650449
:103EB000650C66A466AC66B466BC3476C6022004A3
:103EC0003476C603CE1FC6E7C4BD780635F6347017
:103ED0007D002727077D02F61026FF4ABD6F0F7D64
:103EE0000342102600E0BD85063440BE03487D0332
:103EF0004327076FC2BD907D2003BDA1D58C0077FD
:103F00002606AEC4102700C08E1FDFBDA1D5BDA000
:103F100071BDBFCE230FBDBFDCBDBFCE102400A836
:103F20003345BDA1D5BDBFD51025009C10BE0348AB
:103F3000AD9F034610290089AD9F034486FFB70358
:103F4000420D2E267C9616854026768E1FCB861A2D
:103F5000A7803406FC1FC4ED818620A78035063477
:103F6000067D03432734FC1FC4108356412605CC2D
:103F7000A4022029108356422605CC8402201E105C
:103F80008349412605CCC4022013108349422605EB
:103F9000CCC4022008CC04022003CCE70233453411
:103FA00010BE0348BDA1D58C007727026F443510A1
:103FB000BDA6543506860DA78486058E1FCBBDB3DE
:103FC0002A3540BD850F35F0C6431A0220F3BE03E3
:103FD0004ABDA42139BE034CBDA421398E1FDFBDCB
:103FE000A1D5BDA01139BD6F1D3939393939BD6E23
:103FF000C184BFB703CB1F894FBDB764FD03C25F48
:00000001FF
