:020000040000FA
:10000000050A0F8E1EC5BD839F8E21F48601BD8417
:10001000271CAF7F22647F22657F2266C6FBBDB5A9
:10002000EB108E21F4BD83FCBF226BE604C53F2795
:1000300002CAC0F72268C43FE704F600E85CF72272
:1000400069C604BDB5E1F62268C5802706BD8506F0
:10005000FF2271FE22717D22682703BD40E831C86E
:10006000DD33C8E37D22682705BD42A32518BD43C3
:1000700096C1072E11BD4272290C8E40AB58AD952A
:100080007F2265732265BE226BBD84DBF62268C5C4
:10009000402706FE2271BD850F5D260C4D2709BD48
:1000A000468A7F22647F226A16FF6B442C44B8463E
:1000B000704643468A449544B140C101080122017B
:1000C000393407C6081A50F503CD270ACA408609F5
:1000D000B73A057F03CDFA3A03F73A03F703CC4F5B
:1000E000BDB764FD03C6358734768E00FBBDF0EDE9
:1000F000F701708E00FE7D00FD26098E40BBF600E4
:10010000FB58AE85108E0143BD4189BD421C8E0156
:1001100015BDF0EDF701718E01187D011726098ECE
:1001200040BBF6011558AE85108E0152BD4189BD08
:1001300041DC8E012CBDF0EDF701728E012FF6012E
:100140002E2712C10127188E01187D01172610F6DF
:1001500001155C2003F6012C8E40BB5A58AE851069
:100160008E0161BD4189BD419C8E0143108E00FE10
:10017000BD41898E0152108E0118BD41898E0161E9
:10018000108E012FBD418935F6BDA1D53005BDA129
:10019000D53025BDA1F2301BBDA1F2393432108E0D
:1001A000016B8E42687F2270B6012D8101102700FD
:1001B000A82D117C22707D017226037C01728E4273
:1001C000637E4259B6017281002707810827E47EC9
:1001D0004259B602F6810227DA7E42593432108E35
:1001E000015C8E42687F226FB601168101102700E4
:1001F000682D117C226F7D017126037C01718E4276
:10020000637E4259B6017181002707810827E47E89
:100210004259B602F6810227DA7E42593432108EF4
:10022000014D8E42687F226EB600FC8101102700CE
:10023000282D117C226E7D017026037C01708E4278
:10024000637E4259B6017081002707810827E47E4A
:100250004259B602F6810227DABDA1D530A4BDA16C
:10026000F235B201800000004000000000400000B4
:1002700000003440C1012220C106271C8E00EBBDC6
:10028000907D8E00F3BD96562E108E00EFBD907DB2
:100290008E00F7BD96562E0235C0C625BDB3881A0E
:1002A0000235C03416F600E6C1022724BD43F14FE3
:1002B0001F01EC8947C7EDA81FEC8947C9EDA81BB2
:1002C000EC8947B7EDA821EC8947B9EDA81D202896
:1002D00034408E00F7BD438CEDA8218E00EFBD4366
:1002E0008CEDA81F8E00F3BD438CEDA81D8E00EB96
:1002F000BD438CEDA81B3540AE62EC03C10627065A
:10030000C101102E0084ECA81DA3A81B340630E404
:10031000BDA32B3262B6226E8E0148BDA1D58E01DF
:1003200043BDA1D5BD44012561BD9DD530A810BDFB
:10033000A1F2ECA821A3A81F340630E4BDA32B3200
:1003400062B6226F8E0157BDA1D58E0152BDA1D5D7
:10035000BD44012535BD9DD5302BBDA1F2ECA821B2
:10036000A3A81F340630E4BDA32B3262B622708EE0
:100370000166BDA1D58E0161BDA1D5BD4401250A8F
:10038000BD9DD53026BDA1F21CFE3596BD907DBD2C
:100390008875BD853B393410EC035D2644F6012C8D
:1003A00027015A8E4000E685AEE434503085BD46C4
:1003B000A735503606F601158E4000E685AEE434CA
:1003C000503085BD46C535503606F600FB8E4000E0
:1003D000E685AEE434503085BD4701355036062001
:1003E00009CC00003606360636063510EC03360614
:1003F000395FB6017081042502CB02FB00E6585834
:10040000394D271AE6C42B1CC1402718E6452B148A
:10041000C1402710BD9DD5BDA36125082003BDA007
:10042000111CFE39C625BDB3681A01393457BE22E6
:100430006B7D22682A03BD540F7D22642705BD47CA
:10044000D72028EC227D226A2702EC24BD46E3EC6B
:10045000A4BD47208620BD473E8640BD473EF600EE
:10046000E7F7226426058660BD473E35D78620BD66
:10047000473E86C0BD473E39ED224FBD47D786E097
:10048000BD473E39ED224FBD47D77D2269260586FF
:10049000C0BD473E393416BE226B7F226A4D2A0307
:1004A00073226A847FB722671E89BD50F41E893586
:1004B00096345734024F200734573402B6012CB714
:1004C000226D35027D00E910270105BE226B341430
:1004D000F60112BD50F43514BD540F732266ECA81A
:1004E0001FBD46E3ECA81BBD4720BD446DECA81D15
:1004F000EDA4ECA81FBD4484ECA81DEDA4ECA8213C
:10050000BD4484ECA81BEDA4ECA821BD4484ECA858
:100510001BEDA4ECA81FBD44847D226D2733BD458F
:10052000DC292EF60114BD50F434508E016BBD460B
:10053000A73550BD46E3ECA81BBD4720BD446DEC7C
:10054000A81DEDA434508E016BBD46A73550BD44A7
:1005500078BD45FD292EF60113BD50F434508E01AF
:100560005CBD46C53550BD46E3ECA81BBD4720BD6C
:10057000446DECA81DEDA434508E015CBD46C5351C
:1005800050BD4478BD461E292EF60112BD50F4EC34
:10059000A81FBD46E334508E014DBD47013550BD07
:1005A0004720BD446D34508E014DBD47013550ED9F
:1005B000A4ECA821BD4478F60112BD50F4BD54E46A
:1005C0007D00E5270B86FFB72265BD540FBD4A7835
:1005D000BD468A35D7C644BDB38820F434507D2249
:1005E00070265C8E016BBDA1D58E0166BDA4212C49
:1005F0004E8E0161BDA4212F461CFD35D034507DA7
:10060000226F263B8E015CBDA1D58E0157BDA42172
:100610002C2D8E0152BDA4212F251CFD35D0345028
:100620007D226E261A8E014DBDA1D58E0148BDA436
:10063000212C0C8E0143BDA4212F041CFD35D01AA2
:100640000235D0345786FFB72265BE226BBD540FEA
:1006500086E0BD473EECA821AEA81DBD46E31F10B5
:10066000BD47208620BE226BBD473E7F226435D722
:10067000345786FFB72265BE226BBD540F86E0BD9E
:10068000473EECA81FAEA81B20D1345786FFB722E7
:10069000657D22692705BD53DD35D786E0BD473E20
:1006A000CC00001F0120B4BDA1D5B622708E01611F
:1006B000BDA1D5BD44013026BDA1D5BD9C8EBD4791
:1006C000A5E3A81F39BDA1D5B6226F8E0152BDA1E9
:1006D000D5BD4401302BBDA1D5BD9C8EBD47A5E342
:1006E000A81F39FD22627D2265261210A3A81F2CA7
:1006F00003ECA81F10A3A8212F03ECA821FD225E64
:1007000039BDA1D5B6226E8E0143BDA1D5BD440130
:1007100030A810BDA1D5BD9C8EBD47A5E3A81B394F
:10072000FD22607D2265261210A3A81B2C03ECA8D5
:100730001B10A3A81D2F03ECA81DFD225C393477E4
:100740007D22692705BD5368203E8E1EC5BD839F4F
:1007500034028E225CBD91EF8E479DBD907DBD8C95
:10076000A9BD90C18D24AAE0FD3B908E225EBD9173
:10077000EF8E47A1BD907DBD8CA9BD90C18D0BFDB5
:100780003B92108E1EC5113F35F7108303FF2F03D8
:10079000CC03FF108300002C03CC0000397D8000C7
:1007A000007DAAAAAB34161F41BDA2183596341697
:1007B0001F41BDA32B35961B4822D8269431981B88
:1007C000481EF826942C480558057C0798083405DF
:1007D00058096C07980DAC3471EC227D226A27020F
:1007E000EC24FD225EFD2262ECA4FD225CFD226071
:1007F0008600BD536835F134203440BD8506344051
:1008000034101F017D227A27023003E602F7228B83
:100810003410E6841DBD85448E227FBD907DBD8C45
:10082000A930A81BBD91EFBD8F62BD90C1FD225CB8
:10083000EDA43510E6011DBD85448E227BBD907D63
:10084000BD8CA930A81FBD91EFBD8F62BD90C1FDC9
:10085000225EED2235103540BD850F35408620BD26
:10086000473E35A0344634301F01BDA1D5AEE4B6B5
:10087000226948108E488A10AEA6BD5403BD530AA3
:10088000BD54033530BD4A7135C6489C48904897E1
:100890004C4200833B0D0026009B0D00000D0034F0
:1008A00041CC51A17D228C10260003CC513BBD4789
:1008B000F734203410B6226948108E488A10AEA64C
:1008C000BD54033420108E01735F3402B6018D8154
:1008D0001A2D02861AE7A63502BD54033520BD54F1
:1008E0000335103520BD4A7135C154494D4520208E
:1008F00020003441CC519B7D228C10260003CC512A
:1009000035BD47F734203410B6226948108E488A26
:1009100010AEA6BD54033420108E48EABD5403BD6A
:10092000E0F13520BD540335103520BD4A7135C185
:10093000340634203410B6226948108E488A10AE2E
:10094000A6BD540334207D227627091F12BD498F8E
:100950001F21202D10AE6231A55F3402B62279E747
:10096000A63502BD54037D22752716A68281202755
:10097000FA30013406CC2F64ED81CC6976ED8135F7
:10098000063520BD540335103520BD4A7135868E9D
:100990004A14E680E7A026FA313FF602EE5A8603B3
:1009A0003D8E248130855F8C249C2D103432BD4ACD
:1009B0002D10290049BD4A3F3532C603F722E1AE6A
:1009C000842744341030025F3404F622E1BDCB7C2E
:1009D00035045CA7A0C10E2617AEE43406F622E16A
:1009E000BDCB7C3402BDCB7C1F8935021F0135068F
:1009F000C11E2DD4351039C603BDB36820F8C671A9
:100A0000BDB368353220EF8E4A20A680A7A08100B2
:100A100026F820E246554E4354494F4E203D2000D3
:100A20006E6F7420656E7465726564200034168E76
:100A30002000C603BDCB7C81AA27021A0235968E00
:100A4000203CC603108E249CBDCB7CA7A08C2057D5
:100A500025F68E2004BDCB7CB7247FBDCB7CB7248C
:100A6000808E2002BDCB7CB7247DBDCB7CB7247E9D
:100A7000393412BD548A359234777F22767F228CA6
:100A8000B601708104250586FFB7228CBD51EFBDEC
:100A9000525E7D228C102601EA7F227A3404F60110
:100AA00012BD50F43504BD489FBD48F2CC5FFA3406
:100AB00006B600FBBA00D935062703CC6001FD223B
:100AC00077CC5129BD47F7CC0143BD4864CC512FA9
:100AD000BD47F7CC0148BD4864860CB72279860033
:100AE000B72275CC5153BD47F73410CC00FFBD5F22
:100AF00050C6163510BD4930CC6046FD22777D22A8
:100B00006E262BCC515FBD47F7CC2299BD48648639
:100B100007B722798601B72275CC5159BD47F73402
:100B200010CC00FFBD5F50C6223510BD4930B60065
:100B3000DB810926037322768613B722798600B7F4
:100B40002275CC5141BD47F73410CC00FFBD5F503A
:100B5000C6033510BD49307F2276BD4E773404F68A
:100B60000113BD50F43504CC5FFA3406B60115BA52
:100B700000D935062703CC6001FD2277CC511DBD7D
:100B800047F7CC0157BD4864CC5123BD47F7CC0192
:100B900052BD4864860CB722798600B72275CC51C5
:100BA00065BD47F73410CC00FFBD5F50C629351036
:100BB000BD4930CC6046FD22777D226F262BCC517B
:100BC00071BD47F7CC229EBD48648607B72279865F
:100BD00001B72275CC516BBD47F73410CC00FFBD77
:100BE0005F50C6353510BD49307D226D102700910C
:100BF00073227A3404F60114BD50F43504CC5FFA44
:100C00003406B6012C4ABA00D935062703CC600158
:100C100012FD2277CC5123BD47F7CC0161BD48645A
:100C2000CC511DBD47F7CC0166BD4864860CB72288
:100C3000798600B72275CC5177BD47F73410CC00C8
:100C4000FFBD5F50C63C3510BD4930CC6046FD222B
:100C5000777D2270262BCC5183BD47F7CC22A3BDD4
:100C600048648607B722798601B72275CC517DBDCD
:100C700047F73410CC00FFBD5F50C6483510BD4962
:100C80003035F734107F227A3404F60112BD50F467
:100C90003504BD489FBD48F2CC5FFA3406B600FB70
:100CA000BA00D935062703CC6001FD2277CC512943
:100CB000BD47F7CC0143BD4864CC5195BD47F7CC47
:100CC0000148BD4864860CB722798600B72275CCEE
:100CD00051ADBD47F73410CC00FFBD5F50C616358F
:100CE00010BD4930CC6046FD22777D226E262BCC8C
:100CF00051B3BD47F7CC2299BD48648607B7227926
:100D00008601B72275CC51B9BD47F73410CC00FF2E
:100D1000BD5F50C6223510BD4930B600DB810926C3
:100D2000037322768613B722798600B72275CC51D9
:100D3000A7BD47F73410CC00FFBD5F50C603351088
:100D4000BD49307F2276BD4E773404F60113BD5085
:100D5000F43504CC5FFA3406B60115BA00D935066D
:100D60002703CC6001FD2277CC5189BD47F7CC0128
:100D700057BD4864CC518FBD47F7CC0152BD486484
:100D8000860CB722798600B72275CC51BFBD47F7D4
:100D90003410CC00FFBD5F50C6293510BD4930CCA2
:100DA0006046FD22777D226F262BCC51CBBD47F7C5
:100DB000CC229EBD48648607B722798601B722758A
:100DC000CC51C5BD47F73410CC00FFBD5F50C635D0
:100DD0003510BD49307D226D1027009073227A3482
:100DE00004F60114BD50F43504CC5FFA3406B601A4
:100DF0002C4ABA00D935062703CC6001FD2277CCF6
:100E0000518FBD47F7CC0161BD4864CC5189BD47C6
:100E1000F7CC0166BD4864860CB722798600B722FC
:100E200075CC51D1BD47F73410CC00FFBD5F50C623
:100E30003C3510BD4930CC6046FD22777D227026BE
:100E40002BCC51DDBD47F7CC22A3BD48648607B744
:100E500022798601B72275CC51D7BD47F73410CC23
:100E600000FFBD5F50C6483510BD49303510BD4F3D
:100E7000893410351035F734108E4F0AB602F62635
:100E800005B600D94C4C4AC6183D3085B60075C62B
:100E90000C3D30853410AE848C0077270A6FC2BDBC
:100EA000907DCC60012006BDA1D5CC5FFAFD2277F4
:100EB000AE62CC5147BD47F73410AE62EC04FD2260
:100EC00073EC023510BD50C3AE62BD4A71AEE4AEE4
:100ED000068C0077270A6FC2BD907DCC600120068A
:100EE000BDA1D5CC5FFAFD2277AE62CC514DBD4796
:100EF000F73410AE62EC0AFD2273EC083510BD50D9
:100F0000C3AE62BD4A7135103590007C4F7650B546
:100F100000804F8250B500844F7650BC00884F82CD
:100F200050BC007C4F7650B500804F8250B5008495
:100F30004F7650BC00884F8250BC00774F6A50AE4D
:100F400000804F8250B500774F6A50AE00884F82C4
:100F500050BC007C4F7650B500774F6A50AE00848D
:100F60004F7650BC00774F6A50AE465245515545BA
:100F70004E4359203D00414D504C49545544452065
:100F80003D0042494153203D0034108E501CB602B2
:100F9000F62605B600D94C4C4AC6143D3085B6003D
:100FA00075C60A3D30853410AE848C0315270A6F50
:100FB000C2BD907DCC60012006BDA1D5CC5FFAFDFD
:100FC0002277AE62CC51E3BD47F73410AE62EC0835
:100FD000FD2273EC043510BD50C3AE62BD4A71AE44
:100FE000E4AE028C0310270A6FC2BD907DCC600175
:100FF0002006BDA1D5CC5FFAFD2277AE62CC51E9C7
:10100000BD47F73410AE62EC08FD2273EC063510D4
:10101000BD50C3AE62BD4A71351035900315031043
:10102000506C507750AE03150310506C507750AE93
:1010300003150310506C507750AE03150310506C1D
:10104000507750AE031F031A5082508D50B50329BC
:1010500003245082508D50BC0333032E509850A36C
:1010600050B5033D0338509850A350BC6D617820B3
:1010700066726571203D006D696E20667265712033
:101080003D006D617820616D706C203D006D696E72
:1010900020616D706C203D006D6178206269617324
:1010A000203D006D696E2062696173203D0020481B
:1010B0007A2020200020566F6C74730020416D70E0
:1010C0007320003476B6226948108E488A10AEA686
:1010D000BD5403342010AE62BD5403BD530AA68232
:1010E000812027FA300110BE2273BD54033520BD84
:1010F000540335F634203410108E5350B6226981D3
:10110000012704108E504310AF818620CB30ED8133
:10111000C60D863BED803510BD4A7135A0F11D012D
:10112000511D00F1000151000000FF0000FF0042CE
:10113000FF0142FF01411F00411F000F1F000F1F51
:101140000000FD0000FD0000FC0000FC0000FB00B2
:1011500000FB0018FF0018FF002DFF002DFF0024EA
:10116000FF0024FF00F31101F31101F30E01F30E50
:1011700001F30F00F30F00531100531100530E0041
:10118000530E00530F00530F00F11D013D1D00F1E0
:1011900000013D00002EFF012EFF012D1F002D1F1D
:1011A000000A1F000A1F0000FD0000FD000FFF00E5
:1011B0000FFF001BFF001BFF0024FF0024FF00F3B4
:1011C0001101F31101F30E01F30E01F30F00F30F00
:1011D000003F11003F11003F0E003F0E003F0F0087
:1011E0003F0F0022FC0022FC0022FB0022FB003407
:1011F00076ECA821A3A81FBD85448E5252BD907DD8
:10120000BD8D878E227BBD90888E524EBD907DBD58
:101210008D878E2283BD9088ECA81DA3A81BBD8559
:10122000447D228C27088E525ABD907D20068E5216
:1012300056BD907DBD8D878E227FBD90888E524E8B
:10124000BD907DBD8D878E2287BD908835F6048048
:10125000000005F0000007A0000006F00000347652
:101260003410F62269C1012705CC4B542003CC531E
:1012700049ED8134108E227FBD907DB622698101B7
:1012800027098E52AEBD907DBD8CA93510BD52B2DE
:10129000862CA78034108E227BBD907D3510BD52E8
:1012A000B2863BC60DED843510BD548A35F601C0BB
:1012B0000000346634108E52F6BD907DBD8CA9BD01
:1012C000853BBD85443510108E52FAB622698101E6
:1012D0002704108E5302BD540334101F12BD600149
:1012E000A682812B270CE6A2C12E2602313FA7A49D
:1012F00020EE351035E601D555552B30302E3030E7
:1013000030002B3030302E3030003466B6228B81E6
:1013100001271E1F12BE227734101F21CC0202ADFE
:10132000F432626F841F21A6A4812D27363121203B
:101330003234108620C60EA7805A26FB3410BE22F7
:10134000773410AE62CC0202ADF16F841F10A3E4BB
:1013500035203510C00E503085A6A4812D270431CC
:10136000213001BD540335E634763410F62269C1CC
:10137000012726108E53CC85202704108E53CFBD15
:101380005403FC225C10BE225EBD5498863BC60D01
:10139000ED843510BD548A35F6108E53D285202742
:1013A00004108E53D6BD540385402615108E53DA93
:1013B000BD5403FC225C10BE225EBD5498863BA740
:1013C00080C60DE7843510BD548A35F6444200448A
:1013D0004C0050443B0050553B0050410034778E48
:1013E00053F1B62269810226038E53FBBD548A3520
:1013F000F7535020303B494E3B0D0091504C3B4938
:10140000540D003402A6A02704A78020F8358234AA
:10141000767D226927503410ECA9001FFD2291EC43
:10142000A90021FD2293ECA9001BFD228DECA9004F
:101430001DFD228F108E546FB62269810227041081
:101440008E546CBD54037D22652610FC5468BD5437
:1014500077862CA780FC546ABD5477C60D863BED79
:10146000803510BD548A35F60004020649570091B4
:101470004C42303B464600342634108E228D10AE4E
:1014800085EC863510BD549835A634765F860DCE32
:101490002216BDAC9E3576393466BD85063440BD16
:1014A0008544B622698102260D34108E54E0BD9029
:1014B0007DBD8CA93510BD6001862CA7801F20BD85
:1014C0008544B622698102260D34108E54E0BD9009
:1014D0007DBD8CA93510BD60013540BD850F35E659
:1014E0007BCCCCCD3476BD555BB600EAB722C67D49
:1014F000226E270ABD5B552908BD59F32003BD554F
:1015000093B600EAB722C634108E0152BF22A88ECD
:101510000157BF22AA35107F22AC7D226F270ABD5A
:101520005B1F2908BD5A682003BD58047D226D2722
:10153000287F22C634108E0161BF22A88E0166BFAB
:1015400022AA35107322AC7D2270270ABD5B1F29A9
:1015500008BD5A682003BD580435F63476ECA9005E
:101560001DA3A9001B3406ECA90021A3A9001F108C
:10157000A3E42502ECE43262BD85448E558FBD9014
:101580007DBD8D87BD853BFD22C4FD229535F607C7
:10159000C80000347634108E0148BDA1D58E0143B9
:1015A000BDA1D5BDA0118E2299BDA1E23402A6C471
:1015B000847FA7C43502BD9298102501AEBD90C1AD
:1015C000FD22ADBD8544BD8F1EBD5CAA8E5CD630AC
:1015D000890010BD96562F058C5D2625F2345030BB
:1015E00089000ABDA1D58E22AFBDA1E23550E689A2
:1015F000000FF72297F7229830890005BD907DBD36
:101600009096BD8D8730C46FC2BD907D8E2299BDEE
:10161000A1D53402A6C4847FA7C43502BD9C8EBD6B
:10162000A1E23345ECA9001DA3A9001BBD8544BD63
:101630008CA98E22BEBD9088ECA9001B8E0143BDF3
:10164000A1D58E0148BDA4212D128E0148BDA1D582
:10165000B622BE8A80B722BEECA9001DFD22C2BD03
:1016600057DABD9C8E8E22AFBDA1D5BD9C8EBDA28A
:10167000B8335BBDA0118E5CBABD965627098E5C4F
:10168000DEBD907DBD8F628E22B6BD908834408EC7
:101690000143BDA1D58E0148BDA4212D068E014870
:1016A000BDA1D5BD57DABD9C8E8E22AFBDA1D54F51
:1016B000F622976FC2BD8544BD9DD5BD9C8EBDA24F
:1016C000B8335BBDA0118E5CBABD965627098E5CFF
:1016D000DEBD907DBD8F628E22BEBD907DBD8CA98A
:1016E0004FF62297BD8544BD8CA9BD90C1F322C29F
:1016F000FD22B4354034408E22B6BD907D8E22BE90
:10170000BD907DBD8CA9BD90C13540F322C2BE22E3
:10171000C4BF2295AEE410B322B426097F22B47F61
:1017200022B57F22987D229826183406F62297F754
:101730002298FC22C44756F322C4F322C4FD22C4DB
:101740003506BD5BBF29247A2298BE2295BF22C4EC
:1017500034408E22B6BD907D8E5CDEBD907DBD8F07
:10176000628E22B6BD90883540208ABE2295BF2267
:10177000C4351035F63457327B30E4BDA1E2334531
:101780003440335B4F8E5CBABD965627014334021A
:1017900030C4BDA1D530C43410BDA1D54FF62297B9
:1017A000340630E4BDA32B32623510BDA1E2BD9DED
:1017B000D5BDA2B8BD9C8EBDA01130E3BDA2183529
:1017C000066DE02603C3000150FB2298F7229835EE
:1017D0004030E4BDA1D5326535D76FC2FC22AD2BB8
:1017E00011BD8544BD5CAABD8875BDA2B8BD9DE78D
:1017F00020114353C30001BD8544BD5CAABD88755B
:10180000BDA2B83934763410BE22AABDA1D5BE22FD
:10181000A8BDA1D5BDA0118E22A3BDA1E23402A610
:10182000C4847FA7C43502BD9298102501BBBD902A
:10183000C1FD22ADBD8544BD8F1EBD5CAA8E5CD6A8
:1018400030890010BD96562F058C5D2625F2345048
:101850003089000ABDA1D58E22AFBDA1E23550E688
:1018600089000FF72297F7229830890005BD907DF7
:10187000BD9096BD8D8730C46FC23041BD907D8EC6
:1018800022A3BDA1D53402A6C4847FA7C43502BD5E
:101890009C8E8E229E7D22AC27038E22A3BDA1E2C8
:1018A0003345ECA90021A3A9001FBD8544BD8CA927
:1018B0008E22BEBD9088ECA9001FBE22A8BDA1D576
:1018C000BE22AABDA4212D12BE22AABDA1D5B62238
:1018D000BE8A80B722BEECA90021FD22C2BD57DA24
:1018E000BD9C8E8E22AFBDA1D5BD9C8EBDA2B8334E
:1018F0005BBDA0118E5CBABD965627098E5CDEBD1D
:10190000907DBD8F628E22B6BD90883440BE22A8E5
:10191000BDA1D5BE22AABDA4212D06BE22AABDA16D
:10192000D5BD57DABD9C8E8E22AFBDA1D54FF62214
:10193000976FC2BD8544BD9DD5BD9C8EBDA2B833F9
:101940005BBDA0118E5CBABD965627098E5CDEBDCC
:10195000907DBD8F628E22BEBD907DBD8CA94FF65D
:101960002297BD8544BD8CA9BD90C1F322C2FD2242
:10197000B4354034408E22B6BD907D8E22BEBD90DF
:101980007DBD8CA9BD90C13540F322C2BE22C4BF2B
:101990002295AEE410B322B426097F22B47F22B58B
:1019A0007F22987D229826183406F62297F72298EF
:1019B000FC22C44756F322C4F322C4FD22C43506D8
:1019C000BD5BF429247A2298BE2295BF22C43440FC
:1019D0008E22B6BD907D8E5CDEBD907DBD8F628E09
:1019E00022B6BD90883540208ABE2295BF22C435DC
:1019F0001035F634763410ECA9001DA3A9001BBDE8
:101A000085448E22BABD907DBD8D878E22BEBD904D
:101A1000887D22BA2B06ECA9001B2004ECA9001D2E
:101A2000FD22C28E22B6BD907D8E5CB63004BD967E
:101A3000562EF9301C3004BD5ADD34103084BD9070
:101A40007D8E22B6BD907DBD8F1E8E22BEBD907D47
:101A5000BD8CA9BD90C1F322C23344AE62BD5BBF51
:101A6000351028D1351035F634763410ECA9002124
:101A7000A3A9001FBD85448E22BABD907DBD8D8770
:101A80008E22BEBD90887D22BA2B06ECA9001F20B5
:101A900004ECA90021FD22C28E22B6BD907D8E5C91
:101AA000B63004BD96562EF9301C3004BD5ADD34D4
:101AB000103084BD907D8E22B6BD907DBD8F1E8E70
:101AC00022BEBD907DBD8CA9BD90C1F322C233441E
:101AD000AE62BD5BF4351028D1351035F634601098
:101AE000BE229510BF22C48C5CDE2D2CBE22C4BF4A
:101AF0002295FC22C44756F322C4F322C4FD22C41B
:101B00008E22B6BD907D8E5CDEBD907DBD8F1E8E1B
:101B100022B6BD90888E5CBA35E07DCCCCCCCC347E
:101B2000508E5B1ABDA1D58E229E7D22AC27038EDE
:101B300022A3BDA1E23345BE22AABD907DBD9298ED
:101B400025748E22AFBD9088BE22A8BD907DBD9227
:101B5000982563202C34508E5B1ABDA1D58E229916
:101B6000BDA1E233458E0148BD907DBD92982546CA
:101B70008E22AFBD90888E0143BD907DBD92982589
:101B8000358E22AFBD96562E068E22AFBD9088BDF3
:101B90008F1E8E22BABD90887D22BB27198E22AF60
:101BA000BD907DBD90C1BD8544BD8F1E8E22B6BD4A
:101BB00090881CFD35D0C625BDB3681A0235D034D7
:101BC0001610A3A9001D2E2810A3A9001B2D21FD6E
:101BD000225CEDA4ECA9001FFD225EF322C47D224D
:101BE000C62704ECA90021ED22BD5C3B1CFD359607
:101BF0001A023596341610A3A900212E3A10A3A973
:101C0000001F2D33FD225EED223410ECA9001BAE27
:101C1000A9001D7D22C626117D22AC27071F10B307
:101C200022C420051F01F322C4BF225CEDA435109D
:101C3000BD5C3B1CFD35961A02359634767D22C676
:101C40002749FC2260B3225CBD5CA13406FC226201
:101C5000B3225EBD5CA1E3E13406FC2260A3A4BD17
:101C60005CA13406FC2262A322BD5CA1E3E110A3C7
:101C7000E12E183410FC225CAEA4EDA4BF225CFC63
:101C8000225EAE22ED22BF225E3510BD446DFC22E5
:101C90005CFD2260FC225EFD2262EC22BD447835B0
:101CA000F64D2A054353C300013934108E5CE2BD62
:101CB000907DBD8CA9BD943F3590400000007F9A77
:101CC000209A7FF4493D009A209A00B2EFB300C7F2
:101CD00034EC00D8585800E730E800F4493D018062
:101CE000000002935D8E01C00000007DCCCCCCCD05
:101CF00004A00000000502C00000007ECCCCCCCDCA
:101D000003A00000000503800000007F80000000A9
:101D100003800000000403F00000000080000000C9
:101D200002800000000204A000000001800000000A
:101D30000180000000058E21E8BD839F7F21E67FA2
:101D400021E51CAF7F21E87F21E9108E21E8113FBA
:101D50007D21E627218E60A4F621E786033DB6218A
:101D6000E5BB21E62A05A6854A2005A18525014F68
:101D7000B721E57F21E6C620BDB5E1B621E5F62114
:101D8000E7BD5ED6C6DFBDB5EB20B98E21ECBD83C5
:101D90009F7D043E26037F21E41CAF7F21EC7F2141
:101DA000ED108E21EC113FF621E42A04C607200530
:101DB000C10723015FF721E48E22C7318815BDCC0E
:101DC00079865DA788148619A780865BA780108E08
:101DD0005DF3A6A5BDCC5F8E22D3108E5DFB58AD02
:101DE000B534765F86028E22C7CE1EA5BDAC9E3569
:101DF0007620A8858081828384EB865EA45E0B5E5C
:101E0000245E4F5E6D5E855E925EA886877D393F5B
:101E10002B5786887D00222707F63B30C5052749CA
:101E2000868920458688F63B00C540263C868B0D7A
:101E3000232E362716868E10BE1ECB27060D15279D
:101E40001E2026868F0D352716201E868A201A868C
:101E50008D7D002427132A0FB6002481FF260486D7
:101E6000882006868C20028690BDCC5F3986917DC5
:101E7000399F2A009616850426E5868B7D00262E3E
:101E8000E827C820DAB63A048407108E5ECEA6A6EC
:101E900020D7108E0008B63A035F49C930E7803179
:101EA0003F26F639BDE0F1398D0220BD86927D21B5
:101EB000DE261AD616C540270C86EC10BE21BE269B
:101EC0000C869520088693C59F26028694398B8BB5
:101ED000E7E8E9EA8B8B4D2B038D4F394FB722DDB5
:101EE000B721E58D4528037A21E58D0529ED4C20A4
:101EF000F93430BD84C31F128D563407860DA78870
:101F0000288603BDB28A2917CC0A0DEDA85130A846
:101F1000298603BDB28A29071F21BD84DB35B71F7F
:101F200021BD84DB35011A0235B63430BD84C38D42
:101F30001F34079629810226128604A78828347642
:101F40005F8603CE1EA5BDAC9E3576BD84DB35B75E
:101F50003476C1FF2602C609318851BDCC79108E76
:101F600060A4340458EBE0A1A525014F5C10AEA598
:101F7000C6063D34024F34061F20E3E11F0235023E
:101F8000342010AEA42703BDDA9210AEE410AE22C6
:101F900027028D0B352035061CFDADB80435F03415
:101FA00070BD85063440C6298D0FC6378D0BC645DA
:101FB0008D073540BD850F35F034103A1F10AEA1A6
:101FC0002707BD907D1F018D023590342734108D79
:101FD000301F10A3E43404C00B5054A682A7856AB6
:101FE000E426F8812B26048620A78586205A2B0418
:101FF000A78020F93514300B35A73427CC070220F1
:10200000053427CC04021F128D3CA61D812D2734D8
:10201000EC1E108330332E2C26145FA6A5812E27AC
:10202000035C26F7C1042C1C31A5C6038D66C6FBD4
:10203000A68581302E055A812E26F586205C270440
:10204000A78220F935A734671F12BDA654EC8383FD
:102050003030484848483402EBE0CE6094E1C22D6D
:10206000FC3122E0C4C1022F02C006A61F812B272B
:10207000085D270550CB0333418D19A6C41F894441
:10208000444444C40FC33030ED8135E700030609F2
:10209000121518215A2B0C3404ECA41E89EDA0351E
:1020A0000420F13903644602658C0365FE0267066D
:1020B0000267D41468B30A6A910A6B93026CB70181
:1020C00060CF34123AA6A6BDCC5F35921A023960B1
:1020D000D5000060EB000020202000034441544163
:1020E00020534F55524345203D200D343634103097
:1020F0008811BD61A33510108E637EF6204227083B
:10210000C1022704108E6392F600DB5831A510AE91
:10211000A4B60170C6163420BD60C23520B6017168
:10212000C6293420BD60C23520B60172C63CBD60F0
:10213000C2108E63A6F620422708C1022704108E23
:1021400063F67D00752711108E63CEF620422708B6
:10215000C1022704108E641EF600DB585831A5F624
:1021600000735810AEA5B601707D226E270286015D
:10217000C6223420BD60C23520B601717D226F2792
:10218000028601C6353420BD60C23520B601727D9D
:10219000227027028601C6483420BD60C235201A4D
:1021A0000235B6108E634CF600DB86053D31A58600
:1021B00005E6A0E7804A26F9399696CFD09D9A9BEE
:1021C0009C9B9BBD9696CFD09D9A9B9C9BF5979888
:1021D000999696CFD09D9A9B9C9BF59798999696A9
:1021E000CFD09D9A9B9C9BF69798999696CFD09D21
:1021F0009A9B9C9BF6979899A6A7AAAAAAAAAAA86E
:10220000AAA473A6A7AAAAAAAAAAA9AAA473A6A7B7
:10221000AAAA000000A800A473A6A7AAAA0000000A
:10222000A900A473A6A7AAAAABABABA8ABA473A63C
:10223000A7AAAAABABABA9ABA473A6A7AAAABCBC1E
:10224000BCA8BCF7BC0000A6A7AAAABCBCBCA9BC81
:10225000F7BC0000A6A7AAAA535353A853F7BC0083
:1022600000A6A7AAAA535353A953F7BC0000A6A7D8
:10227000AAAABCBCBCA8BCF8BC0000A6A7AAAABC61
:10228000BCBCA9BCF8BC0000A6A7AAAA535353A87B
:1022900053F8BC0000A6A7AAAA535353A953F8BCED
:1022A0000000A6A7ABABAAAAAAA8AAA473A6A7AB2C
:1022B000ABAAAAAAA9AAA473A6A7ABAB000000A8C0
:1022C00000A473A6A7ABAB000000A900A473A6A747
:1022D000ABABABABABA8ABA473A6A7ABABABABAB99
:1022E000A9ABA473A6A7ABABBCBCBCA8BCF7BC0095
:1022F00000A6A7ABABBCBCBCA9BCF7BC0000A6A7A2
:10230000ABAB535353A853F7BC0000A6A7ABAB53DA
:102310005353A953F7BC0000A6A7ABABBCBCBCA8E9
:10232000BCF8BC0000A6A7ABABBCBCBCA9BCF8BC4D
:102330000000A6A7ABAB535353A853F8BC0000A6AC
:10234000A7ABAB535353A953F8BC00005631202020
:1023500020563220202056312F563256322F5631F9
:10236000492020202056312F492020492F56315610
:10237000322F492020492F563246554E432E61B9FF
:1023800061B961B961B961B961C461D161C461D137
:1023900061B961B961B961B961B961B961DE61EB16
:1023A00061DE61EB61B961F8620361F86203620E9C
:1023B0006219620E62196224622F623A62476254A5
:1023C0006261623A624762546261620E621962A29D
:1023D00062AD62A262AD62B862C362B862C362CE2D
:1023E00062D962E462F162FE630B62E462F162FE52
:1023F000630B62B862C361F8620361F86203620E44
:102400006219620E62196224622F626E627B6288B8
:102410006295626E627B62886295620E621962A248
:1024200062AD62A262AD62B862C362B862C362CEDC
:1024300062D9631863256332633F6318632563328F
:10244000633F62B862C36458000064F3649B000099
:10245000654C64C20000656B00005052472F465522
:102460004E43204D454D4F525920202020204E569E
:102470002E5052472F46554E43204D454D4F5259F1
:1024800000294D41583D0032465245453D003D4DE5
:1024900041583D0046465245453D0D000095000E11
:1024A00031202032202033202034202035202036B7
:1024B00020203720203820203900294C4541524E19
:1024C000540D00004E562050524F4752414D000DC2
:1024D000313020313120313220313320313420313C
:1024E0003520313620313720313800294C454152D2
:1024F0004E540D341730882D1F108E403934101F64
:1025000001C60C3404BD85183263BDB7648B30A797
:1025100080BDE103AE63308837FC24CDBDB7648B4A
:1025200030A780BDE103AE63308841CC018ABDB7DE
:10253000648B30A780BDE103AE6330884BFC247D03
:10254000BDB7648B30A780BDE10335973417308861
:1025500037108E23C53125108C23F2220CECA427D2
:10256000048650A784300320EC3597341630883722
:10257000108E23F7108C2424240EECA427048650FC
:10258000A7843003312520EC1A02359665980000A7
:1025900065D865B665D260CC000050524F434553B4
:1025A000534F52000F4D4F4445001E4C4153542091
:1025B0004552524F520D00004C415354001155509A
:1025C00050455200204C4F57455200294C494D4927
:1025D000540D00001FBC1FB73417C635B622DE10DD
:1025E0008E6D09BD60C2AE63308848108E1FB3E6A1
:1025F000A0BDE1033001108C1FB625F3359766109E
:1026000000006661662D00006692664E000066CA94
:10261000000084000A4D4F44450015535441544571
:10262000002041444452455353004C2F0D00008478
:1026300000085345522E504F4C4C00135041522E1F
:10264000504F4C4C0020434F4E54524F4C0D000005
:1026500052533432330010424155442052415445C4
:102660000D3417C632B60048108E6D0DBD60C230F5
:10267000883DBD5E85AE63F63A06C41E4FBDB764A5
:10268000340430884ABDE10335045C3001BDE10308
:1026900035973417308831BD5E92AE63B600608BDB
:1026A00030A7883EC646B600612702C654E7884078
:1026B000C649B621DC108E6D0FBD60C2C64CB60097
:1026C0002A108E6D11BD60C235973436F622DF5860
:1026D000108E66F6ECA58110250C1E8930883CBD55
:1026E000E1031E8920098B3030883DA7843001BD6D
:1026F000E1031A0235B696004800240012000600D5
:10270000030001500110671200006770673F00006E
:1027100067A100005345542D555053000D31202022
:10272000322020332020342020352020362020372E
:10273000202038202039002953544F5245440D00A1
:10274000004E56205345542D555053000C31302027
:1027500020313120203132202031332020313420EB
:1027600020313520203136002953544F5245440D35
:102770003437C602108ECC3130883634104FAEA6B6
:10278000BDCB7C351081AA260834068653A7843534
:1027900006300334103122108CCC4325E03510353F
:1027A000B73436C602108ECC4330883634104FAE64
:1027B000A6BDCB7C351081AA260834068653A78493
:1027C0003506300434103122108CCC5125E0351000
:1027D0001A0235B667E000006831680A0000686CCC
:1027E000000046494C452053554D4D415259002952
:1027F00052454144494E47530039414343455054A3
:102800004544004846494C45440D000046494C4566
:10281000204D454D4F525900294D41583D003641FC
:102820004C4C4F43415445443D0049555345443D6C
:102830000D34171F13347630C832FC24C5FE24C76C
:10284000BDFF5A3576347630C842FC24C8FE24CA0F
:10285000BDFF5A357630C84EFC24BF8B30A780BDF3
:10286000E10330C84EBDFF9C1F313597341734103B
:10287000FC02F1BDB7648B30A7882D30882EBDE1F6
:102880000335101F1330C840FC24C38B30A780BD14
:10289000E10330C840BDFF9C30C84EFC24BF8B30E4
:1028A000A780BDE10330C84EBDFF9C1F1335171A2A
:1028B000023580692B000069986959000069B76981
:1028C0008B000069D6698B000069D6698B000069AE
:1028D000D6698B000069D6698B000069D6698B00C8
:1028E0000069D6698B000069D6698B000069D669DA
:1028F0008B000069D6698B000069D6698B0000697E
:10290000D6698B000069D6698B000069D6698B0097
:102910000069D6698B000069D6698B000069D669A9
:102920008B000069D6698B000069D6000046554EC1
:102930004354494F4E000E312020322020332020B6
:102940003420203520203620203720203820203900
:1029500000294C4541524E540D00004E562046551C
:102960004E4354494F4E000D313020313120313229
:102970002031332031342031352031362031372099
:10298000313800294C4541524E540D000046554EF9
:102990004354494F4E20200D3417308837108E2471
:1029A00081108C249C240EA62227048646A78430FE
:1029B00003312320EC35973417308837108E249C50
:1029C000108C24B7240EA62227048646A784300341
:1029D000312320EC3597343634027F22E04A34022A
:1029E0005F1E89BDB764C10923131F9884F0444456
:1029F00044448B30A70AC0108603B722E0CB30E7EF
:102A00000B35024A30882AC6033DC324811F026D5C
:102A100022274810AEA4342031221E12C60E3404E0
:102A2000F622E0BDCB7C3504A7A05A26F13510F67E
:102A300022E0BDCB7C3402BDCB7C1F8935021F0157
:102A4000C6103404F622E0BDCB7C3504A7A05A267C
:102A5000F13502811326021A0235B6108E6A73A66A
:102A6000A081002704A78020F63502811326021AD0
:102A70000235B666756E6374696F6E206861732087
:102A80006E6F74206265656E20656E746572656434
:102A9000006ACD00006B3F6AFC6B096B5C6AFC6BE3
:102AA000096B5C6AFC6B096B5C6AFC6B096B5C6AAA
:102AB000FC6B096B5C6AFC6B096B5C6AFC6B096BF9
:102AC0005C6AFC6B096B5C6AFC6B096B5C00004325
:102AD0004F4E5354414E54000E31202032202033AB
:102AE0002020342020352020362020372020382078
:102AF00020390029454E54455245440D0000434FAE
:102B00004E5354414E5420200D0000034F035300F8
:102B1000000358035C0000036103650000036A03BF
:102B20006E0000037303770000037C038000000342
:102B30008503890000038E039200000397039B34F2
:102B400017308837108E034EEC2127048643A78464
:102B500030033129108C039F25EE3597341634024B
:102B60004AC6093DC3034E1F02CC61626DA4270310
:102B7000CC7260A78813E78821A6E44AC6063DC345
:102B80006B091F02E6E4BD6CAE3502810926021A0C
:102B90000235966BCF00006C576BFB00006C746BBA
:102BA000FB00006C746BFB00006C746BFB00006C32
:102BB000746BFB00006C746BFB00006C746BFB00AF
:102BC000006C746BFB00006C746BFB00006C740099
:102BD00000524553554C54000E31202032202033F2
:102BE0002020342020352020362020372020382077
:102BF0002039002953544F5245440D00005245538B
:102C0000554C542053544F524520203A20672E648F
:102C1000656C6179203D002C61203D003F62203DC4
:102C20000D03D203D603DA03DE03E203E603EA036D
:102C3000EE03F203F603FA03FE04020406040A0498
:102C40000E04120416041A041E04220426042A0484
:102C50002E04320436043A3417308837108E03D2EB
:102C6000ECA427048652A7843003312C108C043E38
:102C700025EE3597343634024AC6063DC36C211F13
:102C800002A6E48B30A70D3440BD85063440C63023
:102C9000BD5FB9C643BD5FB9C61ABD5FB93540BD9A
:102CA000850F35403502810926021A0235B6CB3030
:102CB000E70DBD5F9F35806CC36CFD60CE6CDC6D35
:102CC0000360CC00044D45414E00114D494E494D25
:102CD000554D001F4D4158494D554D0D0004434F72
:102CE000554E54000E5354414E44415244204445E5
:102CF000562E001E56415249414E43450D03A7032F
:102D0000BE03BA03A203AC03B0F1F2F3F4E5E6921A
:102D1000E300E4D8D6DAD9D4D5D6D7D2D36DE56DD1
:102D2000F26E056E156E256E356E486E5C6E706EB9
:102D3000826DE56E966EA66EB96ECC6EDD6EF06F2E
:102D4000046F166F276F386F4A6F5E6F706F836FF7
:102D5000966FAA6FBE6FD26FE66DE56FFA700E7058
:102D60000E70226DE56DE56DE56DE56DE570317018
:102D7000417053706370737081709470A570B770F8
:102D8000CB70DF6DE570F371037116712A713C6DC4
:102D9000E56DE56DE5714C715E71717185719971CB
:102DA000AD71C171D56DE56DE571E971FA720E72A3
:102DB0002072347248725C7270728472956DE57222
:102DC000A872BA72CE72E272F6730A731E7332730D
:102DD00046735A736C737D739073A273B36DE56D14
:102DE000E573C473D720202020204552524F522033
:102DF000200030312E554E4B4E4F574E20434F4DF5
:102E00004D414E440030322E415247204D49534DE2
:102E1000415443480030332E4F5554204F462052E2
:102E2000414E47450030342E464F524D41542045C7
:102E300052524F520030352E494C4C4547414C20A0
:102E4000524551554553540030362E494E56414C4B
:102E500049442046554E4354494F4E0030372E4E7C
:102E60004F2E204F5554204F462052414E4745008B
:102E700030382E494E56414C49442053594D424F0B
:102E80004C0030392E414D504C20494C4C2E2046A0
:102E90004F522048460031312E494C4C4547414C59
:102EA00020454449540031322E494C4C4547414C51
:102EB00020434F4D4D414E440031332E4E4F205351
:102EC0005543482050524F4752414D0031342E4E09
:102ED000455354494E47204552524F520031352EEA
:102EE00050524F4752414D2052554E4E494E470089
:102EF00031362E50524F472E2043484B53554D20CC
:102F00004552520031372E50524F4752414D2045C5
:102F100058495354530031382E50524F472E2043B6
:102F20004C45415245440031392E434F50592043BE
:102F30004F4D504C4554450032302E535745455067
:102F400020434F4D504C4554450032312E53574588
:102F50004550204E4F542053455420555000323296
:102F60002E47454E204F5645524C4F414445440054
:102F700032332E4E554C4C2F4E4F524D414C4953EF
:102F800045440032342E494C4C204E554C4C205375
:102F90004F555243450032352E504C4F54544552F4
:102FA000204C494D2E204552520032362E4C494D70
:102FB0004954204E2F41204F4E20492020003237C7
:102FC0002E475049422F504C4F54544552204552A1
:102FD000520032382E4E554C2F4E4F524D414C49D7
:102FE0005345204F4E0032392E52454E554C4C2FF2
:102FF0004E4F524D414C4953450033312E47454EBB
:10300000455241544F52204B494C4C4544003332B9
:103010002E47454E455241544F52204F2F4C4F4161
:10302000440033342E47454E2052455354415254A8
:103030000034302E46494C4520434C4541524544CE
:103040000034312E4C494E45204E4F2E20455252D1
:103050004F520034322E494C4C4547414C204A5582
:103060004D500034332E4F5554204F462052414E80
:1030700047450034342E46494C4520454D5054595F
:103080000034352E494C4C2046494C4520414343A1
:103090004553530034362E494C4C2046494C45206C
:1030A00053495A450034372E46494C45204E4F541B
:1030B00020454D5054590034382E472E44454C413C
:1030C000592F46494C45204552520034392E564519
:1030D000524E494552204E2F4120202020200035BD
:1030E000302E4E4F205355434820414E414C5953AA
:1030F00045520035322E4E4F2047454E45524154E1
:103100004F520035332E4E4F2048462047454E45FE
:103110005241544F520035342E4E4F20414E414CB7
:1031200059534552204354524C0035352E4E4F20B2
:1031300053594E54484553495345520035362E4E47
:103140004F2048462053594E54482E0036302E49C1
:103150004C4C20492F4F204348414E4745003631C3
:103160002E444556204E4F5420454E41424C454436
:10317000005741524E494E473A5631204E4F542047
:1031800044494646005741524E494E473A5632202E
:103190004E4F5420444946460036342E4155544F34
:1031A0002D434C454152204F464620200036352EB7
:1031B000494E5445524C4F434B2020202020202084
:1031C0000036362E4F50454E204C4F4F50204D4F1D
:1031D000444520200036372E534F5254494E472045
:1031E00046494E49534845440037302E4F555420E8
:1031F0004F46204D454D4F52590037312E4E5620E7
:1032000052414D20434F525255505445440037329D
:103210002E4E4F542053555045525649534F52004D
:1032200037332E43414C204441544120434C4541C7
:103230005245440037342E492F5020554E524541B7
:10324000534F4E41424C450037352E43414C2044AC
:1032500041544120434F52525550540037362E525C
:103260004543414C494252415445202020202000F2
:1032700037372E494C4C2052414E474520434F4D45
:10328000422E200037382E494C4C2046524551558D
:10329000454E43590037392E494C4C2043414C2E62
:1032A00020534F555243450038312E494E50555406
:1032B000204F5645524C4F41440038322E41555410
:1032C0004F20494E542E204641494C454400383346
:1032D0002E4F2F4C202B20412E494E542046414941
:1032E0004C0038342E4D4F4E49544F5220464149E0
:1032F0004C454420200038332E4F2F4C202B204D9E
:103300004F4E2E204641494C200038362E4D4F4E10
:103310002E2B20412E494E54204641494C0038372F
:103320002E4F4C2C4D4F4E2E2B412F4920464149BC
:103330004C0038382E4155544F20494D50454420BB
:103340004552524F520038392E472E44454C204E9C
:103350004F54205345542055500039302E4E4F20A5
:1033600053554348205345542D55500039312E5361
:1033700045542D55502053544F5245440039322E58
:103380005345542D555020524543414C4C45440023
:1033900039332E5345542D555020434C4541524509
:1033A000440039342E5345542D5550204558495327
:1033B00054530039352E524553554C542053544FD5
:1033C0005245440039382E46554E4354494F4E20FD
:1033D0004558495354530039392E4E4F20535543C5
:1033E000482046554E4354494F4E00FFFFFFFFFF14
:1033F000FFFFFFFFFFFFFFFFFFFFFFFFFFFFFFFFDD
:10340000FFFFFFFFFFFFFFFFFFFFFFFFFFFFFFFFCC
:10341000FFFFFFFFFFFFFFFFFFFFFFFFFFFFFFFFBC
:10342000FFFFFFFFFFFFFFFFFFFFFFFFFFFFFFFFAC
:10400000C601F73A707F04408E232C5FE7808C2333
:104010003D25F9F6FFF0F7232B48108E4031AEA670
:10402000108E4029ADB67E802040484B4740C540A9
:10403000AB43C143F143D843D1CC38FF8324CF44B1
:1040400056445644564456397F2045C6808E7928BA
:1040500034106FE2BD85183263B6390FBA391FBA12
:10406000393FBA394FBA395FBA396F2B554F5F8E26
:104070000000E3818C00FF23F910B31F3C2643BDF1
:1040800043FC293E8E390F108E1F3EA6848480A1EA
:10409000A026183088108C39FF23F08E43C1BD5103
:1040A000CF8D01390F510F520F53398E0000F61E7C
:1040B0005F6F808C23C525F9F71E5F108E43D17E7C
:1040C00041128E43D81F12C602F73A70F61E5F8E59
:1040D00000006F808C38FF25F9F71E5FC604F73AA1
:1040E000708E24CFBF24CBBD4039FD24CD1F1330AB
:1040F0008810AFC483000126F4EDC48E5CE0341058
:104100006FE2BD85188EFB93AF61BD85183263BD2C
:1041100042D4BD51CF7D237F10270069CC08C8FD54
:104120000077CC0000FD0079CC0180B7007BFD005A
:10413000A4CC0000FD00A63420108E00A410BF0007
:10414000B43520CC02C0FD007CCC0000FD007ECC4C
:104150004000FD00588601B700DFB700E0B700DE81
:10416000B700E1B700E28602B700DBCC0000CC0369
:1041700005B700C5B700C6B700C7F700C88650B777
:10418000005D7E424BCC07C8FD00778602B700DF9A
:10419000B700DEB700E1B700E24CB700DDCC8180AC
:1041A000FD01EDCC0180FD026DB701D6B701D7B797
:1041B00001C9B700E0B70065B700D5CC02C0FD006B
:1041C00095CC7CF5FD009DCCC28FFD009FCC03A05B
:1041D000FD008D8603C60026028605B700DBCC00F5
:1041E00000FD3BD0FD0079B700FB4CB700E9B701FB
:1041F00015B70113B722674CB701144CB7012CB7A0
:104200000112CC7ECCFD00A4CCCCCCFD00A6CC070A
:10421000C8FD03104CFD02F8FD0302CC14F4FD03AD
:10422000158624B703178601B703078640B701CC6C
:10423000B701D0B7031AB7031FB7032EB70333B7BD
:104240000324B70329B70338B7033DB63A73448450
:1042500001B70076CC00ACFD00B686E8B70008CC0C
:104260000180B700D3B70047B70068B70067B70051
:10427000DCB700E7B7004AB7004BB70050FD004F6E
:10428000976DB70070B7044097E58E0DDABF00F761
:104290008E4000BF00F98E0E8BBF00F38E6000BF12
:1042A00000F58E0BABBF00EF8E0000BF00F18E0B50
:1042B000AFBF00EB8E8000BF00ED86208E0173A79C
:1042C000808C018D25F9BD40A41F21B6FFF0B723D6
:1042D0002B7E80203477C6024F108ECC31AEA1BD2C
:1042E000434D108CCC4325F5BD4395294EAEA1BD61
:1042F000434D108CCC5125F5C6038E2000BD434D97
:104300008C205725F81F10108E018A313F270AC3D1
:104310000010BD433D1F0120F2CC0000BD433DCC49
:1043200020578E2004BD433DCC018A8E2002BD4320
:104330003D86AAC6038E2000BD434D35F7340634B2
:1043400004C603BD434D3502BD434D3586340634A6
:10435000011A503404C403FA1E5FF71E5FF73A7265
:10436000A784C4FCF73A72F71E5F35043501C10318
:104370002709C10226168C200025113406CC03E83B
:10438000830001121212121226F635063402BDCB3A
:104390007CA1E03586347686FFC6038E2000BD43BF
:1043A0004D301FBDCB7C81FF26134F301FBD434DC9
:1043B000301FBDCB7C810026041CFD35F61A02356A
:1043C000F6504F57455220524553544F52454405DD
:1043D0000D5245534554050D494E495449414C49E8
:1043E0005A4544050D434845434B2050415353051E
:1043F0000D544553542050415353050D3436BD40A0
:1044000039FD2324CC0000FD23228E23F7BF232077
:104410008E23CA1F108E618234106FE21F01BD858A
:10442000183263C6FF3404BD44E8326110AC9F24E7
:1044300070266EF32322FD23221F108E61C63410D6
:104440006FE21F01BD8518326310A39F24722651AD
:1044500030890005BC232025BABE2478C6FF340469
:10446000BD44E83261BE247610A3842634BD44B333
:10447000F32322FD232210B323242625BE23208CE0
:1044800024242718CC018AFD2324CC0000FD2322FC
:104490008E2424BF23208E23F77E4413121CFC3568
:1044A000B61CFCBE23208C242427041A0235B61A1D
:1044B0000135B6BE23208C242427178E24816D89D4
:1044C00000022703C30002308900038C249C25EEE0
:1044D00020158E249C6D8900022703C300023089B9
:1044E00000038C24B725EE393411108E0000FC2314
:1044F0002434065F6D672603F6247CC403FA1E5F2E
:1045000034011A50F71E5FF73A72AE84C4FCF73AD2
:1045100072F71E5F35016F6735068C000027073183
:104520002183000126CB1F20BDB7641E20359134A6
:10453000664FB73A70CE454BADD14CB73A707D233C
:104540002C26061183456125EF35E646B2463247F3
:104550001D477647B948C1490A49204936494C4A5E
:104560001047504942204641494C050D4550524F95
:104570004D204641494C050D52414D204641494C84
:10458000050D50524F472E204D454D204641494C78
:10459000050D4E5650524F472E204D454D20464159
:1045A000494C050D5345545550204641494C050D85
:1045B0004E565345545550204641494C050D5449DB
:1045C0004D4552204641494C050D53594E54482EF5
:1045D000204641494C050D484653594E54482E201B
:1045E0004641494C050D47454E2E204641494C0554
:1045F0000D484647454E2E204641494C050D43483F
:1046000031204641494C050D434832204641494C32
:10461000050D434833204641494C050D434834209D
:104620004641494C050D4354524C2E204641494CBD
:10463000050D34667F23287C2328108E0000C60CCD
:104640003404CC1FFFBD49C5350429567C232810EE
:104650008E2000C60C3404CC38FFBD49C535042972
:10466000417C2328108E0000C60D3404CC1FFFBDF2
:1046700049C53504292C7C2328108E2000C60D3412
:1046800004CC38FFBD49C5350429177C2328108E7A
:104690000000C60E3404CC1FFFBD49C535042902F5
:1046A000200E8E45788601B7232CB62328B7232DFC
:1046B00035E634667F23297F232ACE4000108EFF03
:1046C000E0CC82F134066FE2BD851832631183C0FD
:1046D000002608E0A48200E021820010A3A1271395
:1046E0001F30444444444444B7232E8601B7232C4E
:1046F0008E456C33C940001183000026C4CC82BFB4
:1047000034066FE2C6048604BD8518C6088605BD5A
:104710008518C60C8606BD8518326335E634668674
:1047200001B73A518601B73A508600B73A50CC00EB
:1047300001FD3A52FD3A54FD3A568660B73A50B7F9
:104740003A51B73A5086194A26FDB63A51261A868A
:10475000284A26FDB63A518187260EFD3A52FD3A87
:1047600054FD3A567D3A51270B8E45BE8601B7233C
:104770002FB7232C35E63466BD43FC2913250220D0
:104780001A8E45928601B7232C8602B7232D200B63
:104790008E45828601B7232DB7232C8655B73A065E
:1047A0007F3A03B63A06847F8155270B8E45618692
:1047B00001B72330B7232C35E63466BD47E0290422
:1047C000250F35E68E45A48601B7232DB7232C355A
:1047D000E68E45B08601B7232C8602B7232D35E639
:1047E00034768E00013189033FCC0000FD2326BDC5
:1047F000480D108300AA2720CC0000FD2326308915
:1048000003423189033F8C1A102FE42043C60E3037
:104810001FBDCB7C1F894F39C60EBDCB7C1F894F76
:10482000F32326FD23263420ACE12DECC60EBD512A
:104830005F1F20435310B323261026007ECC0000B8
:10484000FD232630013189033F8C1A10102FFF9F62
:104850008E20023189033FCC0000FD2326BD480D88
:10486000108300AA2715CC0000FD232630890342BF
:104870003189033F8C23432FE42036C60EBDCB7C09
:104880001F894FF32326FD23263420ACE12DECC6EF
:104890000EBD515F1F20435310B323261026001571
:1048A000CC0000FD232630013189033F8C23432FA8
:1048B000CA1CFC35F61CFC1A0135F61CFC1A023524
:1048C000F63466108E00017D395F2B2F7F3B33B6A7
:1048D000000E84FCB73B327F3B31B6000C84F0B74E
:1048E0003B30CC429AFD3B50CCA810FD3B5286C3D6
:1048F000B73B57CC1EE2FD3B5535E68E45CA1F201F
:104900008601F72333B7232C35E634667D396F2BC8
:104910000235E68E45D78601B72334B7232C35E61A
:1049200034667D393F2B0235E68E45E68601B72396
:1049300031B7232C35E634667D394F2B0235E68EB0
:1049400045F18601B72332B7232C35E634667D392D
:104950001F2B22C6FDF73A71108E3C00C60C3404A2
:10496000CC4000BD49C53504280B8601B72335B7B7
:10497000232C8E45FE7D392F2B22C6FBF73A711072
:104980008E3C00C60C3404CC4000BD49C53504281B
:104990000B8601B72336B7232C8E46087D39BF2BF3
:1049A00022C6F7F73A71108E3C00C60C3404CC4096
:1049B00000BD49C53504280B8601B7233BB7232C1E
:1049C0008E461235E634771A5010AC61242CE66B13
:1049D0001A50F71E5FF73A72AEA4CCAA55EDA41098
:1049E000A3A4261CCC55AAEDA410A3A42612AFA103
:1049F000C60CF73A72F71E5F20CF35011CFD35F665
:104A0000AFA4C60CF73A72F71E5F35011A0235F6ED
:104A10003466108E00017D390F2B6686FFB73B018F
:104A200086FCB73B00866CB73B0031217D3B0026FE
:104A30005031218628B73B008668B73B005FB63B04
:104A40000081C127055A273920F486E8B73B008644
:104A500068B73B003121B63B0081402624CC0300DF
:104A600083000126FB3121B63B008181261386E8B5
:104A7000B73B008668B73B0031217D3B00260235FD
:104A8000E68E46261F208601F72337B7232C35E60E
:104A90001CAF108E1E4F113FBD84C3341010BE04D6
:104AA00041BDCC51301E108E4B35BDCC51F6232B61
:104AB000BDE103108E4B3BBDCC51F62015BDE1038B
:104AC000108E4B41BDCC51F62014BDE103108E4B2E
:104AD00043BDCC51108E2016C604A6A0A7805A2E26
:104AE000F9CC050DED84351034765F860FCE1EA50A
:104AF000BDAC9E3576BD84DB8E81D77D232C27030C
:104B00008E81DBF62342C1022722C100260D3476B6
:104B10005F8604CE2216BDAC9E3576C103260D34C9
:104B2000765F8604CE1EB1BDAC9E3576108E209D7C
:104B3000103F7E4A90204953533A002043414C3A5B
:104B4000002F0020402000346686FFB71E4EBD4572
:104B50002F7D232C260F7D39AF2B0ABD4B832907D0
:104B6000BD4BE1290235E68601B7232C8E4B71350A
:104B7000E646524F4E542050414E454C2046414946
:104B80004C050D3410108E4BDE86D4F63A21C5103C
:104B900026054A26F6203EA6A0B73A20810D26E932
:104BA0008EF000108E233DF63A21C5082606301FF0
:104BB00026F5202186D4F63A21C50826054A26F690
:104BC0002013B63A20108C2342220AA7A0810D267A
:104BD000E31CFD35908601B723381A023590150283
:104BE0000D108E233DECA410834552262AA6248165
:104BF0000D2624A62280302B1E8102221AB72339CB
:104C0000A62380302B118103220DB7233ABA233912
:104C10001CFD27021A02398601B723381A0239040B
:104C2000A00000010995FFFFAD09960000010AA34D
:104C3000D70A140AA3D70A3E0BFA0000010D9C40C4
:104C400000010DCCCCCC990DCCCCCCCE0DDAC00073
:104C5000010E9C4000010F84D000000FABE000016A
:104C60000FFFFFFF7E108000000010BB80000110CE
:104C7000D6D8000110FFFFFFBF118000000011C354
:104C800050000111F4240001128D9A000012C3504B
:104C9000000113927C000113D1F60001148B29004E
:104CA0000014927C000114C350000014F42400008E
:104CB00015F424000016F424000017B71B00001799
:104CC000D59F800017F424000018895440001898DC
:104CD00096800018A7D8C00018D59F800018F4242B
:104CE00000001990F56000199896800019ABA95042
:104CF0000019C65D400019E111300019F4240000CC
:104D00004C244C2E4C424C604C740996000001100F
:104D1000FFFFFFBF118000000014C350000015F416
:104D200024000016F424000017D59F8000199896DF
:104D3000800019C65D400019F424000030300D00D9
:104D400030310D0034703420B600758E0077BDA16F
:104D5000D5BD4D77BD4E173510BD907DBD8CA934A6
:104D600002A6C4847FA7C435028E8883BD907DBD12
:104D70008F62BD853B35F010BE23957D002227153F
:104D80007D237F26101A50B6005E850826438A08C8
:104D9000B7005E1CAFBD4DD8BD4E027D237F2603FC
:104DA0005D2620BDA1D5BDA011BDA1D53005BDA1F9
:104DB000D5BDA011BD921FBD9DD58E2391BD9088FC
:104DC0003345398E4000AFC48E0000AF41AF432061
:104DD000E91CAFBD4E0220E8108E0000C6FF8E4DCC
:104DE0000ABDA4212F17BDA4212D0E27105F312449
:104DF00030058C4D372FEFC6FF313C301B10BF23E1
:104E0000953934061F207D00752705C30FD0200378
:104E1000C30FA81F0235861F21335831C4BD5AAFB6
:104E2000BD90963044BD907DBD8F1E8E2391BD9068
:104E30007DBD8CA9BD8F62BD8CA9393470F6205C14
:104E40007D2066260E8E53C4C1012E0E2D108E536A
:104E5000DA200B8E53F0C1042704C679202EAD84CE
:104E600084F0262B30A82DBDA1D5B620663420BDF8
:104E70004D771F2135207D23922704C678200DBD54
:104E80004E942908BD5743BD576C35F0BDB3887C9F
:104E900023A135F0341030A832BD907DBD9096BD71
:104EA0008D878E4EC4BD96562D148E4EC8BD965617
:104EB0002E0C8E2389BD908833441CFD3590C6741A
:104EC0001A0235907DCCCCCD0380000034761F32A1
:104ED000BD850634407F23A1F6005CF72363344090
:104EE000CE23638E0058BD907D8E0054BD907DCE44
:104EF000235B8E204CBDA1D53540E6A90000F723E9
:104F000048C600F72349F6205CC1012728C1042CBC
:104F1000247D2348271FB6236381032C183440CEF9
:104F2000239F30A90005BD907D30A90001BD907D73
:104F30003540BD5456E6A9000DF72348C601F723B6
:104F400049F6205C2728C1042C247D2348271FB65E
:104F5000236381032C183440CE239F30A90012BD57
:104F6000907D30A9000EBD907D3540BD5456E6A918
:104F7000001AF72348C602F72349F6205CC104262D
:104F80004B7D23482746B6236381032C3FA6A90007
:104F90000084F027057C23A1203230A90005BD90B4
:104FA0007D30A90001BD907D30A9001FBD907D30EE
:104FB000A9001BBD907DBDD17F8E2397BD90883306
:104FC000448E239BBD90883344BD54563540BD85E7
:104FD0000FB623638105270681032D1B2E16A6A974
:104FE0000000AAA9000D84F02605BD522720087CE8
:104FF00023A12003BD4E3B8E4D3C7D23A127038E74
:105000004D40B60029810227058600BDB32A35F63A
:10501000B6205CBD50F2102900D1BD510F102900FF
:10502000CA3440BD85063440BD513F102900B58EBD
:105030005223BD907D8E235BBD908833448EA78E16
:10504000BD907D8E235FBD90883344B623498E5139
:1050500039A6868B0530A6BD907D8E239BBD90889A
:10506000800430A6BD907D8E2397BD9088BD548A64
:1050700010290070B6000881E727248E23A8BD9070
:105080007D8E239BBD90888E23A4BD907D8E23971B
:10509000BD9088BD548A1029004ABDD2F220198ED5
:1050A00023A4BD908833448E23A8BD908833448EBA
:1050B000A78EBD907DBD907DBDD0BA8E216ABD907A
:1050C0007DBD8D878E2389BD90883344F623495852
:1050D0008E50ECAE85B6000880E548483086BD5756
:1050E00043BD576C3540BD850F354039000004483D
:1050F0000890810426048602200F81012F0BC679B7
:10510000BDB3687C23A11A0239B723491CFD398E2F
:105110005139A686E6A61F98C4F02611840FF623FF
:10512000498E513CA185270BC677BDB3687C23A16E
:105130001A0239F723481CFD39000D1A0303058EA6
:10514000204CBDA1D58E4C74BDA421270D3345C67E
:1051500078BDB3687C23A11A023933451CFD39346C
:1051600047BDCB7C3402BDCB7C3402350435021FF5
:105170000235C734367F237E8E0000108E0FF81064
:10518000BF239FC6F0BD519A8E0FF8108E1FF010EE
:10519000BF239FC60FBD519A35B63404108E000050
:1051A000BC239F270D3420C603BD515F350631ABAC
:1051B00020EE8E1FF73420C603BD515F1F20E3E1B0
:1051C0002604350420083504FA237EF7237E39347B
:1051D00016C6038E1FF0BDCB7CB72016BDCB7CB7A7
:1051E0002017BDCB7CB72018BDCB7CB72019BDCB19
:1051F0007CB72015BDCB7CB72014BD51737F237FB6
:105200008E1FF6C603BDCB7C301F8B013402BD431D
:105210004D301FBDCB7CA1E0260373237F35967BE9
:10522000F5C28F7F9999993460BD85063440B620C8
:105230005C8102102D00DC8103102E00D6A6A9008F
:1052400000840F102700DAE6A9000DC40F10270014
:10525000D08102260CC102102700BF1E89C6012082
:1052600008C102102600B3C6008E235BBD907D8E60
:10527000235FBD907D3402488E521D3086BD907DE7
:105280008E235BBD908833448EA78EBD907D8E2388
:105290005FBD9088334435024AFD23483440CE2315
:1052A0009F30A90005BD907D30A90001BD907D35DE
:1052B00040BD548A29483440CE239F30A90012BDF6
:1052C000907D30A9000EBD907D3540BD548A292EB9
:1052D0008E235FBD908833448E235BBD908833441A
:1052E0008E2356BDA1D58E2380BDA1F2BD55722956
:1052F0001DBD5328BD576C3540BD850F35E08E234D
:105300005FBD908833448E235BBD908833447C23FB
:10531000A120E4C679BDB36820F4C677BDB3682088
:10532000EDC650BDB36820E634407D2349272130C7
:10533000A90005BD907D30A90001BD907D30A90078
:1053400012BD907D30A9000EBD907DBDD17F201F84
:1053500030A90012BD907D30A9000EBD907D30A90E
:105360000005BD907D30A90001BD907DBDD17F308D
:1053700044BD907D3044BD907D3044BD907D30442F
:10538000BD907DBD5406BD542EBE23547D234927B8
:10539000043089F77030890448BF2354BD5406BDDA
:1053A000542E30A90005BD907D30A90001BD907D2F
:1053B00030A9000EBD9088334430A90012BD9088FA
:1053C000334435C030A90005BD907D30A90001BD32
:1053D000907DBDD0BAA6A900003930A90012BD90B9
:1053E0007D30A9000EBD907DBDD0BAA6A9000D39B3
:1053F00030A9001FBD907D30A9001BBD907DBDD0A0
:10540000BAA6A9001A39BDD0BABE2354BD5A23305A
:1054100048BD907DBD8CA93048BD9088334430484C
:10542000BD907DBD8F623048BD90883344398E2356
:1054300089BD90883344B6236381052708BE235471
:105440003084BD57438E2389BD90883344BE235496
:105450003004BD5743393460F623481F9884F02642
:1054600024C40F5AF72348BD548A29198E2356BDE8
:10547000A1D58E2380BDA1F2BD55722908BD55DF8F
:10548000BD576C35E07C23A135E03440B62349811B
:1054900002274CB6236381012745810527418E549D
:1054A000ECBD907D8E235BBD907DBD8CA98E54F0AC
:1054B000BD907D8E235BBD907DBD8CA98E239730E2
:1054C00004BD907D301CBD907DBD54F4BDD0BA307C
:1054D000C43348BD96562D0B3344BD96562E041C3E
:1054E000FD35C0C674BDB3881A0235C000B333336E
:1054F00001A66666B6236381032C44FC23488E55BF
:105500004458AE851F89C40F58583ABD907D7D21FF
:105510007527098E5540BD907DBD8CA930C4BD90C6
:105520007D3048BD907DBD8CA93048BD9088334406
:105530003048BD907DBD8CA93048BD90883344393A
:1055400001C90FDB554A554A555E66ABCC7769D623
:10555000BF956D8637BD69D6BF956D8637BD5A8CB0
:10556000BCCC5DAFEBFF60DBE6FF6489705F67ABCF
:10557000CC778E2380BDA1D586FFB723A2CC0000B7
:105580008E4C1FBDA42127117F23A230058C4D0016
:105590001024002AC3000820EA340633458E000098
:1055A000B6234834022708308901686AE42EF835AA
:1055B000021F10E3E1BD55C6FD23541CFD39C6781A
:1055C000BDB3681A023934068E0010B62349270A83
:1055D0008E0458800127038E08901F10E3E13934B0
:1055E000408E23973004BD907D301CBD907DBDD092
:1055F000BA8E235BBD907DB6234981022703BD90FF
:1056000096BD8D873402A6C4847FA7C43502BD90A1
:10561000968E235FBD907D8EFFD0BD907DBD8D8722
:10562000BD8F1E81022703BD921FBD9096BD567689
:10563000B623638101270B8105270733443044BD1E
:10564000907D8102270DBD909633443048BD907DFA
:10565000BD90968E2389BD90883344BE2354BD5798
:10566000438E2389BD90883344BE23543004BD56F5
:1056700085BD574335C0BE2354335831C4BD5AAFDE
:105680003903C90FDB34707D23A2102600B3301418
:10569000335831C4BD5AAF334430C4BD907DA6C425
:1056A000848034028E5681BD907D6D442A03BD9264
:1056B0001F327C30E4BD908833447F23A33402A69C
:1056C000C4847FA7C435028EFFC8BD96562D1433FF
:1056D0004430E4BD907DBD8F1E7C23A330C4BD90BB
:1056E0007D20DA3344B623898480E6C4C480340440
:1056F000A8E4350427278E2389BD907DBD8F1E34F5
:1057000002A6C4847FA7C435028EFFC8BD96562D5D
:105710000CE86426057C23A320037A23A333448E5C
:105720002389BD907D7D23A3270D30E4BD907DBDF1
:105730008F627A23A320EE8E2389BD908833443272
:105740006535F03420108E2389BD5757BD5757BD9E
:105750005757BD575735A0A6A4C603BDCB97308970
:105760000FF7BDCB973089F0083121398E0000103A
:105770008E00008C0FF8240D3420C603BD515F3518
:105780000631AB20EE8E1FF71F203406CC0000A39D
:10579000E13404C603BDCB973502BDCB977F237E92
:1057A000393476BD85063440BD57B5BD583C3540CB
:1057B000BD850F35F634768E2343BDA1D586FFB760
:1057C00023A2CC00008E4C1FBDA4212E05BD58265F
:1057D00020527F23A28E4CFBBDA4212D08CC01605A
:1057E000BD5826203F8E4C1F3005C30008BDA421A4
:1057F0002EF627D93440CE2379BDA1D5FD2385CE01
:10580000237E301BBDA1D5830008FD2387354010C2
:105810008E4D00ACA12708108C4D0A2FF62005AE46
:105820003EBD582635F63440CE2379BDA1D5CE23D2
:105830007EBDA1D5FD2385FD238735C034408E2351
:1058400043BDA1D58E2379BDA1D5BDA0118E2374F2
:10585000BDA1D58E2379BDA1D5BDA0116D41270372
:10586000BD9DD58E238DBD9088334435C03476BD23
:10587000850634403440CE235B8E2343BDA1D5350D
:1058800040108E20FAE6A90003C4033404108E21D0
:105890000AE6A90003C4035858EAE03404108E2134
:1058A0001AE6A90003C40758585858EAE0F123C47F
:1058B00026137D237F260E1A50B6005F850426111D
:1058C0008A04B7005EF723C47F23AD7F23B57F230F
:1058D000BD1CAF108E20FAE6A90003C4075A2B4660
:1058E000F72348C600F723493440CE239F30A90050
:1058F00008BD907D30A90004BD907D3540108E23F9
:10590000ACBD59DF8E2397BD907D108E20FA30A953
:105910000004BD908833448E239BBD907D30A90048
:1059200008BD90883344108E210AE6A90003C407FD
:105930005A2B46F72348C601F723493440CE239F0C
:1059400030A90008BD907D30A90004BD907D354090
:10595000108E23B4BD59DF8E2397BD907D108E210C
:105960000A30A90004BD908833448E239BBD907DEE
:1059700030A90008BD90883344108E211A7D237F02
:105980002707F6005CC1032D4FE6A90003C4075AA0
:105990002B46F72348C602F723493440CE239F30D5
:1059A000A90008BD907D30A90004BD907D35401050
:1059B0008E23BCBD59DF8E2397BD907D108E211A9A
:1059C00030A90004BD908833448E239BBD907D3068
:1059D000A90008BD908833443540BD850F35F634A5
:1059E000606D212606BD59F0BD5A51BD5ADA35E029
:1059F0003420FC2385BD5A2E108E2364BD5A0EFC24
:105A00002387BD5A2E108E236CBD5A0E35A0BE239F
:105A100054BD5A2330A4BD908833443024BD9088AF
:105A20003344393420335831C4BD5AAF35A034061D
:105A30008E0000B6234834022708308901686AE4E2
:105A40002EF835021F10E3E1BD55C6FD23541CFDA1
:105A5000398E2368BD907D8E2370BD907DBD8F1ED5
:105A60008E238DBD907DBD8CA98E2370BD907DBD94
:105A70008F628E2364BD907D8E236CBD907DBD8F23
:105A80001E8E238DBD907DBD8CA98E236CBD907D17
:105A9000BD8F623402A6C4847FA7C43502BDD14540
:105AA00030A4BD908833443024BD908833443934C9
:105AB00077B6237E84F0270430890FF8BD5ACABD1B
:105AC0005ACABD5ACABD5ACA35F73420C603BD5199
:105AD0005F1E023520EDA43122398E239BBD907DBF
:105AE0008E2397BD907D3024BD907D30A4BD907DE8
:105AF000BDD2758E2397BD908833448E239BBD9075
:105B000088334439FFFFFFFFFFFFFFFFFFFFFFFF69
:105B1000FFFFFFFFFFFFFFFFFFFFFFFFFFFFFFFF95
:105B2000FFFFFFFFFFFFFFFFFFFFFFFFFFFFFFFF85
:105B3000FFFFFFFFFFFFFFFFFFFFFFFFFFFFFFFF75
:105B4000FFFFFFFFFFFFFFFFFFFFFFFFFFFFFFFF65
:00000001FF
