:020000040000FA
:10000000F703CABD792839BD6EC184BFB703CD1FC0
:10001000894FBDB764FD03C8B63A0384BFB73A033E
:100020008601B73A05398601B703CE395FF703CAAF
:10003000BD7928C610BD791239C601A60FB7234273
:100040001F9B7E80001212397F1E5F7F3A727E6E88
:10005000B43426FC20852706108E1E7C103F35A662
:100060008602B72013BDC051393470ECC48EC096DF
:10007000E186221BE7A67F002681022610C1062604
:100080000C34027F22648601B70026350235F0C6A3
:1000900003BDB36835F003050603BD6F1DBDC05138
:1000A00039E6C0585831A5BD6F13BDC051396DC474
:1000B00027077D018E102602D33477BD6F1DC10145
:1000C000102D0068275786FFB70038C6FBBD791290
:1000D000F7201AB602F62761B6007081012656FC99
:1000E000030E27557D00C42606108300F32004105C
:1000F0008300C02F0D7F20407F201AC646BDB36805
:1001000020317F23017F230234765F860D8E82B9F2
:10011000CE1EA5BDAC9E3576BD762B20167D201A51
:10012000260A7F2040C629BDB3682007C1022703E5
:10013000BDC05135F7C6452002C6217F20407F2033
:100140001ABDB36835F734777D237F2604C60220B5
:1001500043CC20208E2016ED81ED84C6038E1FF047
:10016000BDCB97BDCB97BDCB97BDCB9710AEC45F32
:10017000A6A0847F810D271FC10424168E2016A7F8
:10018000858E1FF030853404C603BDCB9735045CE3
:1001900020DEC603BDB368AEC4BD84DB35F734775B
:1001A0007D237F2725BD6F1D8E1FF4A6C4C603BD0A
:1001B000CB9735F734777D237F270FBD6F1D8E1FBB
:1001C000F5A6C4C603BDCB9735F7C602BDB36835E7
:1001D000F73476E6C4C1062705BD6F1D35F6108ECF
:1001E0002002103F35F6E6C0585831A5BD6F1339CF
:1001F0008E2002BD839F1CAF7F20027F2003108EC4
:100200002002113F8EC220BD64718E000086FFC6A1
:1002100003BDCB978C1FFF2FF8C673BDB38820D8C2
:1002200017434C454152494E472043414C204441DD
:1002300054410DBD6F1D39BD6F1DBDC05139F60252
:10024000EDC4073404C6F86DC426015FEAE020253A
:10025000F602EDC4FB3404C6046DC426015FEAE077
:100260002013E6C4260C7F03A0F602EDF70010F77A
:100270003BD1F602EDF702EDBD6F1DF601D4C101D1
:100280002E067F22007F3BD2F61E5F34045FBD83C3
:1002900005BD77453504BD8305BDC0513912BD6F1D
:1002A00013BDC05139BD6F13CC4000FD1FE4CC001D
:1002B00000FD1FE6393440BD6F17BDC31186643D94
:1002C0003406BDC311E3E1F701E4B601D481012E88
:1002D000015FF72200F73BD235C03440BD6F17BD38
:1002E000C31186643D3406BDC311E3E1F701DF3578
:1002F000C03440BD6F1DBDC311F701D735C01234E6
:1003000070BDC3115A585831A5BD6F13BDC05135CA
:10031000F0E6C454545454860A3D3404E6C0C40F75
:10032000EBE0394FE6C4270286FFB7202FBD6F1DD3
:10033000391212BD6F1DBDC05139BD6F1D27127D11
:10034000006E270D7D004727058601B7202FBDC011
:100350005139121212BD6F1D396DC427057D204021
:10036000262ABD6F1D2720C101251C270B7F201ABF
:10037000108E22E9103F2021B623017D02F62703CB
:10038000B623028102260BBDC051200DC6281A02D9
:1003900020077F018EC6291A02393410E6C48D6CFD
:1003A0004F1F01D616C518260EFC1FEC2607108E0F
:1003B0001FECBD83BE359034765F860D8E82B9CE3C
:1003C0001EA5BDAC9E3576C6451A0235903410C6C2
:1003D000058D3920CB3410C606F7204520C2BD6FED
:1003E0001D39ECC410B324BF2F05FC24BFEDC4BDE0
:1003F0006F178A8034101F01D616C51826B9FC1F46
:10040000EC26B2108E1FECBD83BE35903416CC4066
:10041000008E03A2BDC43D8E03A7BDC43D8E03B5AF
:10042000BDC43D8E03B0BDC43D8E03ACBDC4468E7D
:1004300003BABDC4468E03BEBDC4463596ED816F7A
:10044000806F806F8039ED816F806F8039FC24BFB1
:10045000260C7D00C42600BD6F1DBDF6EB39C647D6
:100460001A0239C6461A023934103404C6643D1FD4
:1004700001E6E454545454860A3D3502840F340294
:10048000EBE030851F1035903436E6C45A860C3DBB
:1004900031A58E20855FA685A7A55CC10C26F7C671
:1004A00095BDB388BDC05135B61212121212121288
:1004B0003934168E1FB38600A780A780A780359693
:1004C0005F86205C3404F622E1BDCB973504C11071
:1004D00025F1393477108E1E53113FE6C41F98C49E
:1004E000F054545454840F3402860A3DEBE05A868B
:1004F000033D8E24813085BDC502108E1E53103FF2
:1005000035F734775F8C249C2D1F3430BD63351054
:1005100029006686038E2001BD634710290056BD61
:1005200063E6BD62413530C603F722E1A6890002C9
:1005300027213410AE84BD63F4F61E5F3404C60870
:10054000BD8305BD44A5AEF801BD44A53504BD83FA
:10055000053510CC0000ED84A78900028C249C2571
:1005600012F61E5F3404C608BD8305BD44EA350497
:10057000BD830535F7C6722002C671BDB36835303C
:1005800020F13477108E1E53113F10AEC43420E694
:10059000A0C12027FAC030102B018CC109102E01F8
:1005A00086A6A0812027FA812C27158030102B01E8
:1005B000768109102E01703402860A3DEBE020029C
:1005C000313FA6A0812027FA812C10260159C112A3
:1005D000102E015AC001102B015486033D8E248138
:1005E00030855F8C249C2D1F3430BD63351029016C
:1005F0004F86038E2001BD63471029013FBD63E68E
:10060000BD62413530C603F722E1A68900021026FB
:100610000123BF1FE834201F12F61E5F3404C608F2
:10062000BD8305BD44573504BD83051029012EAF98
:10063000A4BDC4C0F61E5F3404C608BD8305BD4416
:10064000573504BD8305102900FF1F12BDC4C0BE6D
:100650001FE8C6FFE7890002AE84F622E134401F9E
:1006600023BD6459354010AEE4BE1FE8AE843002AD
:100670005FA6A0847F810D27365C3404F622E1BD9D
:10068000CB973504C10E25E9BE1FE8AE843404F6CD
:1006900022E1BD63F435045FA6A0847F810D270F9E
:1006A0005C3404F622E1BDCB973504C11025E93551
:1006B000207F1FEB8628B71FEA1CFCBDC836BDC7CC
:1006C00088240D2930C608BDB368BE1FE8BDC50229
:1006D0001FA87D1FEB270BC606BDB368BE1FE8BD74
:1006E000C5021F8A281A250DC606BDB368BE1FE8BD
:1006F000BDC502200BC607BDB368BE1FE8BDC5025D
:100700003510BD84DBBDC0517D22E12712F61E5F8E
:100710003404C608BD8305BD44EA3504BD83051015
:100720008E1E53103F35F7C602BDB36820D2C603F4
:10073000BDB36820CBC698BDB36820C4C672200282
:10074000C671BDB368353020B7AEA4F61E5F340461
:10075000C608BD8305BD44A53504BD8305351020FD
:100760009F49C7DB0DC7AC5EC7B32AC7DB2FC7DB0A
:100770002BC7DB2DC7DB28C7DB29C7DB56C7E84300
:10078000C81653C8166AC8282921251F342010BE50
:1007900064E0A1A427103123108CC7882DF43520E4
:1007A0001CFC1A0120053506ADB801393406A6A493
:1007B0003520393406A6A43520A6A0812D2708812E
:1007C0002B2704862B313FE6A0C0302B0BC1092E0E
:1007D00007BDC836BDC788391A02393406A6A43504
:1007E00020BDC836BDC788393406A6A43520E6A08A
:1007F000C1312D1FC1322E1B3404E6A4C130350493
:100800002D0A3404E6A4C13935042F07BDC836BD0E
:10081000C788391A03393406A6A43520E6A0C131A9
:100820002DF1C1392EED20D03406A6A43520E6A046
:10083000C17726DF20D6A6A0812027FABDC8B5390A
:10084000495E564943536A29005E5E2A2B2D2F28A4
:1008500000002A2A2B2D2F280000002B2A2B2D2FB9
:10086000280000002D2A2B2D2F000000002F2A2BFE
:100870002D2F28000000285E564943536A2900297D
:100880002A2B2D2F28000000565E564943536A2913
:1008900000435E564943536A2900535E5649435309
:1008A0006A29006A5E564943536A29000D2A2B2D96
:1008B0002F280000003412BE64DE812826037C1F2E
:1008C000EB8129260B7A1FEB2A061CFC1A02202634
:1008D000A184270D30098CC8B52DF51CFC1A012008
:1008E00015B61FEA34023001A680270CA1E426F8D1
:1008F0001CFC1A023502359235023502B71FEA1C7C
:10090000FC35901CFC35923477344010AEC4BDC920
:10091000B4102900CE1F988030102700D5B10009EF
:10092000102E00CEBDC9AC102600B8BDC9B4102928
:1009300000B1C030C101102E00B88D70102600A388
:100940003406BDC9F9313FBD850634401E21BD982E
:1009500041BDCA0025761E218D5210260089BDC9D1
:10096000F9313F1E21BD9841BDCA00255FBD90965B
:10097000EC628E034EC6094A3D3085EC623410E7C6
:10098000890000AEE430890001BD90883344351001
:1009900030890005BD908833443540BD850F35064C
:1009A0003540AEC4BD84DBBDC05135F734048D493C
:1009B000C12C35848D43C130102D0009C139102E52
:1009C00000031CFD391A02397B8EFA353401EE61C1
:1009D000BD850F350432643404350129152713C64B
:1009E000042011C602200D3540BD850F3506C60214
:1009F0002002C603BDB36820A7E6A0C12027FA39AC
:100A00003417A6C41F89C47FE7C48ECA1CBD96567E
:100A10002F06C603EAE03404A7C435973F8AC724EB
:100A2000123476A6C4B72006108E1FFE103F35F68E
:100A30008E1FFEBD839F1CAF7F1FFE7F1FFF108E8A
:100A40001FFE113FB62006C60281092312840F8BB8
:100A50000A34128E20001F98BD6347351229434A7D
:100A6000488ECC31AE863410BDCB7C81AA273A109B
:100A70008E00607F1FFA7F1FFB34108ECAB0BD64EA
:100A8000713510A6A0BDCBD4BDCB97108C039F258C
:100A9000F2BDCBE5351086AABDCB97C691BDB38814
:100AA0002096C672BDB388208FC694BDB3882088B7
:100AB0001753544F52494E47205345542D55500D0E
:100AC00034768E20074FBD8427BD850634408ECAFC
:100AD000ECBD907D34108E2007BDB05F35103540E1
:100AE000BD850F108E2007BD83CD35F67AA3D70ABA
:100AF000123470C602A6C481092304840F8B0A4AEB
:100B0000488ECC31AE86BDCB7C81AA2624108E00C7
:100B100060BDCBF7291B7F005EBDCB7CA7A0108CEE
:100B2000039F25F5BDBD4FBD74A1C692BDB38835E9
:100B3000F0C6901A0235F03470C602A6C4810923AB
:100B400014840F8B0A34128E20001F98BD63473522
:100B500012102900214A488ECC31AE86BDCB7C8153
:100B6000AA260D4F301FBDCB97C693BDB38835F075
:100B7000C6901A0235F0C6721A0235F03405C40365
:100B8000FA1E5F1A50F71E5FF73A72A680C4FCF790
:100B90003A72F71E5F35853405C403FA1E5F1A509A
:100BA000F71E5FF73A72A784C4FCF73A72F71E5F2C
:100BB0003505C1032709C10226088C20002503BD85
:100BC000CAC034068DB6A1E42708C671BDB3887CBF
:100BD00023A1358634061F894F3406FC1FFAE3E152
:100BE000FD1FFA35863402B61FFA43BDCB97B61FF8
:100BF000FB43BDCB97358234767F1FFC7F1FFDBD45
:100C0000CB7C34041F894FF31FFCFD1FFC350431DE
:100C100021108C039F25E8BDCB7C3402BDCB7C1F0B
:100C2000893502435310B31FFC1CFD27021A0235FD
:100C3000F600000342068409C60D08104A138C16FC
:100C4000CE1A1020012343268529C72D09304B33A6
:100C50008D3403A6A027068D06810D26F635833434
:100C6000234D2B062711A78035A34844108ECC8B2B
:100C700031A610AEA68DDA35A334338620AC6424B9
:100C800004A78020F8860DA7A435B3CD7DCD87CDF0
:100C900091CD97CD9FCDA4CDA9CDADCDB3CDBBCDBD
:100CA000C2CDC7CDCCCDD4CDDDCDE3CDE8CDEDCD1E
:100CB000F2CDF9CDFECE04CE0CCE16CE21CE2ACE6C
:100CC00032CE3CCE46CE4CCE51CE57CE5FCE6CCE41
:100CD00072CE7ACE82CE85CE89CE8CCE90CE93CE79
:100CE00096CE9CCEA2CEA5CEA8CEABCEB0CEB4CE64
:100CF000BDCEC6CECFCEDCCEDFCEE2CEE7CEECCEC2
:100D0000F1CEF7CEFCCF01CF0DCF16CF1ECF24CF23
:100D100027CF2DCF35CF3CCF49CF52CF5CCF66CF39
:100D20006ACF6FCF74CF79CF7ECF83CF8DCF92CF65
:100D30009FCFA5CFABCFB0CFB9CFBCCFC3CFC6CF9E
:100D4000CACFD2CFD7CFE2CFEDCFF9CFFCCFFFD0F4
:100D500005D00CD012D017D01ED025D02ED037D031
:100D600040D049D050D056D05AD060D065D06AD04B
:100D700073D07DD088D094D09FD0ABD0B347454EB0
:100D8000455241544F5200414E414C595A455253DD
:100D900000535745455000504C4F5454455200475E
:100DA0005049420054494D45004652410046415584
:100DB0004C540052554E4E494E47004B494C4C4501
:100DC000440053544F500049444C4500454E414265
:100DD0004C45440044495341424C45440044454C31
:100DE0004159005741495400484F4C44004E4F4E22
:100DF000450072656D6F7465004255535900524548
:100E00004144590050524F4752414D0046524551BE
:100E100055454E435900524553495354414E43455D
:100E200000512D464143544F520044203D20312F64
:100E30005100494D4147494E415259004D41474E9D
:100E40004954554445005048415345005245414C92
:100E5000004C494D4954004348414E4E454C0049D1
:100E60004D4147494E415259285A2900434845436C
:100E70004B0026204552524F520046494C45204EC9
:100E80004F0064420064425600487A006465630083
:100E9000646700726400566F6C747300416D707308
:100EA0002E004849004C4F00202000496D20590079
:100EB0006F666600534552494553204400534552DE
:100EC0004945532051005245414C20285929004D95
:100ED00041474E4954554445285929004249006F1D
:100EE0006E005265205A00496D205A005265205903
:100EF000007468657461006C6F6772006F686D7371
:100F00000047524F55502044454C415900524541ED
:100F10004C20285A2900444953504C4159005253FF
:100F20003432330043680052414E47450044495330
:100F3000504C41590056414C554553004D41474E88
:100F40004954554445285A2900494E445543544F65
:100F50005200434150414349544F52005345524976
:100F6000455320522E00616C6C006661696C007004
:100F70006173730064756D70006C6F675A006C6FFD
:100F8000675900414D504C49545544450042494130
:100F90005300494D4147494E415259285929006350
:100FA0006F6D6D61007465726D2E0063726C66000A
:100FB00063726C662B454F490063720063722B4568
:100FC0004F49006C6600454F4900732D636F6C6F8D
:100FD0006E006C6F676600504152414C4C454C208E
:100FE0004400504152414C4C454C2051005041521C
:100FF000414C4C454C20522E00413300413400708E
:101000006F696E7400766563746F72006C6F6361F4
:101010006C002B6C6C6F006E6F726D616C00742EC7
:101020006F6E6C79006D616A2054414353006D69A5
:101030006E2054414353006D616A204C414353007C
:101040006D696E204C414353005354415455530035
:1010500070617573650042494E00616D706C2E00C1
:1010600062696173007661722E0020204E4F524DEE
:10107000414C00204F50455241544F52005355505F
:1010800045525649534F520043414C4942524154F4
:10109000494E4700494E44554354414E4345004351
:1010A000415041434954414E43450048656E726981
:1010B000657300466172616473003477F61E5F34B5
:1010C000041A507F3A727F1E5F1CAF1F323024BD5E
:1010D000907D30A4BD907DE6C4BD8D87A6C44881B7
:1010E0001A2C5B1F31BD907DBD907DBD8CA98E9A61
:1010F000C9BD907DBD8F62BD922930A4BD907DBDDC
:101100008CA93402A6C4847FA7C4350230A4BD9044
:10111000883344BD95165D2A128EFFC8BD907DA60A
:101120003C2A05BD8F622003BD8F1E3024BD9088F0
:1011300035041A50F73A72F71E5F1CAF35F73024AA
:10114000BD907D20BD3477F61E5F34041A507F3A7F
:10115000727F1E5F1CAF1F323024BD907DBD971083
:1011600030A4BD907DBD8CA9BD907D3024BD907D07
:10117000BD974BBD8CA930A4BD9088334420AC34BE
:1011800037F61E5F34041A507F3A727F1E5F1CAF21
:10119000327C1F32A6A448A7E4A761C6031F3130E2
:1011A00004A68448A1612C04A7612006A1E42F02B3
:1011B000A7E45A26EAA6612A0140E6E42A0150344F
:1011C00002E1E02F08863EA0E42C24200686C2A07F
:1011D000612F1CA7621F31C604E763A6844859AB80
:1011E0006228026F015646A78430046A6326EC30F9
:1011F000A4BD907DBD907DBD8CA93024BD907DBDEA
:10120000907DBD8CA9BD8F62BD8D991F31BD907D34
:101210003028BD907D30A4BD907DBD8CA9302CBD03
:10122000907D3024BD907DBD8CA9BD8F62BD8CA901
:1012300030E4BD9088334430A4BD907D302CBD9007
:101240007DBD8CA93028BD907D3024BD907DBD8CA6
:10125000A9BD8F1EBD8CA9302CBD90883344332C82
:1012600030E4BD907D326435041A50F73A72F71EAF
:101270005F1CAF35B73437F61E5F34041A507F3A1F
:10128000727F1E5F1CAF327C1F323028BD907D30D4
:10129000A4BD907DBD8CA9302CBD907D3024BD9027
:1012A0007DBD8CA9BD8F1E30E4BD908833443028AD
:1012B000BD907D3024BD907DBD8CA930A4BD907DB6
:1012C000302CBD907DBD8CA9BD8F627ED257343746
:1012D00031C43028BD907DBD8F623028BD908833E9
:1012E00044302CBD907DBD8F62302CBD908833443E
:1012F00035B7343731C43028BD907DBD9096BD8F51
:101300001E3028BD90883344302CBD907DBD909612
:10131000BD8F1E302CBD9088334435B73476F6200F
:101320002AC100273ED66FC106271DBDE1472718F9
:101330000D482614BDD36534765F8600CE2216BDD7
:10134000AC9E357635763476D66EBDE14727140DE2
:10135000472610BDD36534765F8600CE1EB1BDAC86
:101360009E357635F634101F32BDD4B08111273743
:10137000341030A6BD907D35107D20662611F620F4
:1013800065C1012605CCA4022014CC8402200FF6EE
:101390002065C1012605CCC4022003CCC402BD993E
:1013A000A6862CA7802003BDD3FD8600BDD3E8868A
:1013B00004BDD3E8A6A9001FAAA9002044444444C0
:1013C00084078B30C62CED81A6A900218001270C53
:1013D0002A05CC30302008CC2D312003CC2B31ED28
:1013E00081C60DE784351039341030A6BD907D35A7
:1013F000108604C602BD99A6862CA7803934103009
:10140000A6BDA1D53510CCE702BDA654862CA78079
:101410003934767D202A10270094D66FC106260124
:101420005FDA6EC40410270085F6006FC10626013E
:101430005FFA006EC401267634101F32BDD4B0337B
:10144000A6BD9088BDD570300433A90000BD90883A
:10145000BDD570300433A90004BD9088BDD570306F
:1014600004A6A9001FAAA90020444444448407A755
:1014700080A6A9002127068101270286FFA78435BF
:1014800010D66EC404270E34768601C60ECE1EB169
:10149000BDAC9E3576D66FC10626015FC404270E0B
:1014A00034768601C60ECE222EBDAC9E357635F63C
:1014B00034108ED4BCB62065A686359011161A3429
:1014C000767D202A1027008BF6006FC10626015F6B
:1014D000FA006EC405C105267ABD84C3341031C834
:1014E0002D8604BDD5553121BDD555BDD5553141CC
:1014F000BDD555BDD555E6C4BDD569E780314EBDD6
:10150000D555BDD555E64DBDD569E78031C81BBD64
:10151000D555BDD555E6C81ABDD569E780AEE4F608
:10152000006EC404270E34768601C627CE1EB1BDD8
:10153000AC9E3576F6006FC10626015FC404270E07
:1015400034768601C627CE222EBDAC9E3576351068
:10155000BD84DB35F634164D2707E6A0E7804A2028
:10156000F63516BDD57030863954545454C40739F5
:1015700034076D01271FEC84C47F847F85402702D8
:101580008A808B7E442402CA80E7016D842A028A05
:1015900080A7843587CC0000ED84ED02358703C930
:1015A0000FDB3477BD84C33410BDD411D66DC4FBBA
:1015B0002703BDE1F8BDD5C2BDD31C3510BD84DB0A
:1015C00035F74F0D472702966E0D48270D340296CA
:1015D0006F810626014FAAE4326184FB2733341061
:1015E0006FE28E2091108E205C860DE6A0E18427AC
:1015F000026CE4E7804A26F3A6E035107D202F2612
:10160000074D270A0D6727067F202FBDDAABBDDF08
:1016100042391F32F6205C8ED6EB5858308510AE1A
:1016200084AE02E6A4583414AD9535147D01C82764
:101630007A327434143063BD908833443067BD907F
:10164000883344306BBD90883344108E03D2F6014A
:10165000C95A860C3D31A53028BD907D3024BD90FF
:101660007D30A4BD907D3514AD951F3230E9000862
:10167000BD907D30A90008BD90883344F601C8C1F3
:1016800001260AC6008D25C6048D212012C6008DB4
:1016900032C6048D2EE6C9001ECA82E7C9001E327A
:1016A0006CE6C9001ECA01E7C9001E3930E53002E8
:1016B000BD907D30A5BD907DBD8F1E30A5BD9088AD
:1016C00033443930E53002BD907D30A5BD907DBDFD
:1016D0008F1E30A5BD907DBD8D878E8B06BD907D04
:1016E000BD8CA930A5BD9088334439205ED7132026
:1016F0005ED713205ED713205ED713205FD71D203F
:1017000060D7212061D72B2060D7212061D72B20E3
:101710005DD735D77AD760D74FD78CD77BD77AD7D5
:1017200060D77AD760D843D97FD97FD77AD760D8A6
:101730002DDA01DA01D77AD760D74FD78CD77BD88B
:1017400043D9C0D9C0D862D88CD8B9D8F9D936BD58
:10175000D0BABD92988EFFC0BD907DBD8CA92003EC
:10176000BDD0BA7D20642612BD9096BDD7BB8EFF3A
:10177000D0BD907DBD8CA9BD909639BDD0BABD922B
:10178000988EFFC0BD907DBD8CA92003BDD0BA1F2F
:1017900032BD9096334430A90008BD907D30A90039
:1017A0000DBD907D8ED7B7BD96562605C689BDB3B3
:1017B000683344BD9096394000000034467D00DA1D
:1017C00027617D201C27568E201BBD907D108ED852
:1017D00029BD8B563044BD90888E201BBD907DBDA9
:1017E0009096BD8F1EA6C484803048BD907DBD8F6D
:1017F0001EE6C4C4803402A6C4847FA7C435028E0A
:10180000FFC8BD96562D1E3344A8442A0D8EFFCC2A
:10181000BD907DEAC4E7C4BD8F62BD8F628E201B80
:10182000BD908835C6334420F17EA2F9831F324F24
:10183000B7201FF62062C104271EC102241ABDDA98
:101840004220151F328601B7201FF62062C10427EF
:1018500007C1022503BDDA42F620628ED74558AD96
:10186000953930A90011BD907D8ED59EBD907DBD6E
:101870008CA9BD8D9930A90004BD907DBD8CA93087
:10188000A90004BD90883344BD90963930A9000466
:10189000BD907D8ED59EBD907DBD8CA930A90011D7
:1018A000BD907DBD8CA9BD8D99BD921F30A900044E
:1018B000BD90883344BD90963930A90004BD907D19
:1018C0008ED59EBD907DBD8CA930A90011BD907DA7
:1018D000BD8CA9BD8D99BD921F30A90004BD908813
:1018E000334430A90000BD907DBD8D9930A9000022
:1018F000BD90883344BD9096398ED59EBD907D3085
:10190000A90011BD907DBD8CA9BD8D9930A90004A1
:10191000BD907DBD8CA930A90004BD9088334430B2
:10192000A90000BD907DBD8D9930A90000BD9088B3
:101930003344BD90963934401F3230A90004BD9025
:101940007D7D201F2603BD921F8ED7B7BD96562BD7
:10195000034F2002860133443540E6C9000CC10024
:10196000270D57583404ABE0B72062BDD61239C6F4
:1019700088BDB368810126028603B7206220EC1F70
:101980003230A90004BD907D30A90000BD907DBD1E
:101990008D87B6206081032703BD8D993402A6C4CC
:1019A000847FA7C435028E2020BD90883344BDD8E3
:1019B00043BD909633448E2020BD907DBD909639D6
:1019C0001F3230A90004BD907D30A90000BD907D7C
:1019D000BD8D87B6205D81062703BD8D993402A693
:1019E000C4847FA7C435028E2020BD90883344BDB7
:1019F000D843BD909633448E2020BD907DBD9096F7
:101A0000391F3230A90004BD907D30A90000BD907F
:101A10007DBD8D87B6206181032703BD8D9934027A
:101A2000A6C4847FA7C435028E2020BD908833448D
:101A3000BDD82DBD909633448E2020BD907DBD90A5
:101A4000963934301F328EA78EBD907D8EA793BD00
:101A5000907D3024BD907D30A4BD907DBDD17F3080
:101A6000A4BD908833443024BD9088334435B034CD
:101A70001658ECA53085BDCC5F3596341658ECA5CC
:101A80004D270D3085C628E780BDCC5FC629E78489
:101A9000359634761F13A6A02709810D270BBDCCE0
:101AA0005F20F3E6A030C520ED35F6318848BDCC87
:101AB00079F620653420108EE199BDDA6F35205F0C
:101AC000A6C9002281FF27015C34043420108EE176
:101AD000ADBDDA6F35203420108EE191BDDA92353C
:101AE000203420108EE19FF62067BDDA6F35203458
:101AF00020F6205C108EDB4F58ADB5E6C9001EC540
:101B00000127195F3420108EE1D5BDDA6F3520C66C
:101B1000013420108EE1D5BDDA6F35203520342018
:101B2000108EE1BDF62067BDDA6F35203504342014
:101B3000108EE1CBBDDA6F3520F6206558FB2066AC
:101B40003420108EE1B1BDDA7B3520BDE15D39DB9B
:101B500063DB63DB63DB63DC39DCB3DE67DCB3DE12
:101B600067DD693420108EDBF7F6205EBDDA6F3555
:101B7000203420108EDC01F6205EBDDA6F3520BDEA
:101B8000E15D318848BDCC79F6205EA6C9001E2AE9
:101B9000428502271CC60F3420108EDC0BBDDA7B79
:101BA0003520C6063420108EDC2BBDDA7B35202094
:101BB00021585CCB053420108EDC0BBDDA7B352040
:101BC000F6205E261ECB053420108EDC2BBDDA7B82
:101BD0003520393420108EDC0BBDDA7B3520F62021
:101BE0005E2708C1022204F620645C3420108EDCDB
:101BF0002BBDDA7B3520399D149B119B119B119BCA
:101C0000119A1E9C209C20BD1DBD1D56145614A566
:101C1000145614A5140014001400140014A414A4E1
:101C20001400140014A414A41425145621A821A9E6
:101C30002173217321002125213420108EDBF7F63A
:101C4000205FBDDA6F35203420108EDC01F6205F76
:101C5000BDDA6F3520BDE15D318848BDCC79A6C9BC
:101C6000001E8502271CC6023420108EDCA5BDDABA
:101C70007B3520C6033420108EDCABBDDA7B3520EB
:101C800020223420108EDCA5F6205FBDDA7B3520C3
:101C9000F6205F2704F620645C3420108EDCABBD98
:101CA000DA7B3520394114411425144121A821A99A
:101CB000212521F62060BDDED93420108EDD25BD22
:101CC000DA6F3520F62060BDDEF33420108EDD356E
:101CD000BDDA6F3520BDE15D318848BDCC79A6C93C
:101CE000001E8502271CC6083420108EDD49BDDA8F
:101CF0007B3520C6063420108EDD5BBDDA7B3520B7
:101D00002022F62060BDDED93420108EDD49BDDAF8
:101D10007B3520F62060BDDEE63420108EDD5BBD15
:101D2000DA7B352039BE12C510C612C612C612C7DC
:101D300011C711C711A01D9C20DE1EDD1EDC1EA0D8
:101D40001D9C20C81EB21FB11FBC14BC14481448EF
:101D50001448144614461446142514BC21A921BC69
:101D60002100210021A8212521F6205DC10525089B
:101D7000B62062442402CB033420108EDDF7BDDA96
:101D80006F3520F6205DB6206281022402CB083434
:101D900020108EDE0DBDDA6F3520BDE15D31884843
:101DA000BDCC79A6C9001E8502261CC60B342010A6
:101DB0008EDE2DBDDA7B3520C6103420108EDE4538
:101DC000BDDA7B3520202FF6205DC1052508B62021
:101DD00062442402CB033420108EDE2DBDDA7B3525
:101DE00020F6205D7D20642702CB083420108EDE93
:101DF00045BDDA7B3520399D149B119B119B119BAE
:101E000011C612C612C612C711C711C7119A1E9C5D
:101E1000209C20BD1DBD1DDE1EDD1EDC1E9A1D9CEE
:101E2000209C20BD1DBD1DC81EB21FB11F00140087
:101E300014A4140014A41448144814481446144656
:101E400014461425140021A821A82173217321BC54
:101E500021BC21BC210021A921A92173217321BC0E
:101E600021BC21BC212521F62061BDDED934201002
:101E70008EDEFEBDDA6F3520F62061BDDEF3342044
:101E8000108EDF0EBDDA6F3520BDE15D318848BDB3
:101E9000CC79A6C9001E8502271CC6083420108EE6
:101EA000DF22BDDA7B3520C6063420108EDF34BD3C
:101EB000DA7B35202022F62061BDDED93420108E59
:101EC000DF22BDDA7B3520F62061BDDEE63420104E
:101ED0008EDF34BDDA7B352039C1022508B6206299
:101EE000442402CB0339C1012608F620645D260292
:101EF000CB0539B620628102250139CB0539B312F1
:101F0000B410C612C612C612C711C711C711D11D0F
:101F10009C20DE1EDD1EDC1ED1209C20C81EB21FB0
:101F2000B11F53145314481448144814461446144B
:101F3000461425145321A921BC2100210021A821E8
:101F400025213450318849BDCC791F123440BDD48D
:101F5000B08111273730C6BD907D30A434067D2076
:101F6000662611F62065C1012605CCA4022014CCFA
:101F70008402200FF62065C1012605CCC40220038F
:101F8000CCC402BD99A635063344200C30C6BDA191
:101F9000D530A4BDE06F334530C90000BD907D3021
:101FA000A810BDE065334430C90004BD907D30A861
:101FB0001DBDE065334435401F21E6C900212B0BD0
:101FC0003420108EE1CFBDDA6F3520ECC9002281BC
:101FD000FF271630A8368B30A780BDE103341030C0
:101FE000A836BDFF9C35102045342030A831108E16
:101FF000E079F6205C860C3D31A5860CE6A0E780F2
:102000004A26F93520A6C9001F4444444484078B5E
:1020100030A7A839B6205C810225138104270FA6BA
:10202000C900204444444484078B30A7A83B1F21A7
:10203000E6C900212A223420108EE195BDDA9235BE
:1020400020C47F4FBDB7641F98C40FCB3084F044C9
:102050004444448B30ED882F30A83FBDE0F11F2170
:10206000BDE11435D03406CC0402BD99A6358634C2
:1020700006CCE702BDA65435862020205631202804
:1020800045202920202020205632202845202920A4
:102090002056312F5632202845202F202956322F06
:1020A0005631202845202F20292020202049202873
:1020B00045202920202056312F49202845202F2037
:1020C0002920492F5631202845202F2029205632FB
:1020D0002F49202845202F202920492F56322028FB
:1020E00045202F202946554E432E202845202F20BD
:1020F00029D6518D0E863AA780D6528D06863AA7EC
:1021000080D65334021F98C40F44444444C3303033
:10211000ED813582D66E8D2F27110D47270D347630
:102120005F8600CE1EB1BDAC9E3576D66FC1062748
:10213000158D1427110D48270D34765F8600CE22A9
:1021400016BDAC9E357639C4FB270B5A270C6DC9DA
:1021500000212603C10139C102391CFB39D66EC4E6
:10216000FB27110D47270D34765F8600CE1EB1BDCB
:10217000AC9E3576D66FC10626015FC4FB27110DD4
:1021800048270D34765F8600CE2216BDAC9E35768C
:10219000390041850D002BED0D9601CF01D00300D4
:1021A0002B9E2B9E2B9E2B9E2B9E2B9E2B9F34A3D8
:1021B00034A604A6045604410456044104002BA18D
:1021C0002BA12BA12BA12BA12BA12BA2340034AE30
:1021D0002CAC2CAD2C2A132A20341286053D30A5B8
:1021E00010AE84E6022B0FAE032604E6C52002E6FD
:1021F0008586053D31A53592E6C9001FEAC9002054
:1022000054545454C4072717F72024CB808617BD95
:10221000B3AF34765FCE1EA5BDAC9E3576200B7D68
:1022200020242706BD6D127F20243476318828BDF6
:10223000CC79F620653420108EE836BDDA6F352073
:10224000F6206558FB20663420108EE83CBDDA6F1E
:102250003520F6205C108EE31358ADB5E6C9001E9C
:10226000C501270C5F3420108EE848BDDA6F352099
:10227000108EE84AF62065BDE1D93420108EE30DBA
:10228000F6206558ECA53520BDE95D1F1230A82564
:10229000E6C90022C1FF271EECC900228B30A780AF
:1022A000BDE10330A825EC848130260A8620C130A8
:1022B0002602C620ED841F21E6C900212A19C47F09
:1022C0004FBDB7641F98C40FCB3084F044444444DE
:1022D0008B30ED8822200B3420108EE830BDDA6F71
:1022E00035201F21BDE2F634765F8600CE1EA5BDE7
:1022F000AC9E357635F63436D66DBDE147260C30CA
:102300000D31A824BDCC798620A7A435B6110016BE
:10231000031A03E361E361E361E361E454E4DCE7AE
:102320003FE4DCE73FE5E1345030C90000BD907D7B
:102330003402A6C4847FA7C435028E8B06BD965690
:1023400035D0345030C90004BD907D3402A6C48419
:102350007FA7C435028EE35DBD965635D00AFA00DC
:10236000003420108EE422F6205EBDDA6F3520A600
:10237000C9001E2A348502271CC6053420108EE4AD
:102380002CBDDA6F3520C6083420108EE442BDDA49
:102390006F352020303420108EE42CBDDA6F3520CC
:1023A0007D205E260FC60620113420108EE438BD35
:1023B000DA6F35205C5458FB20643420108EE442E0
:1023C000BDDA6F3520108EE895BDE3272D0F108EF6
:1023D000E935B601C881022604108EE90DF6205EAB
:1023E000BDE1D93446C60D8600BDE95D3546F6200F
:1023F0005E2708C1022204F620645C108EE8BDBD91
:10240000E3422D0F108EE8E5B601C88102260410C4
:102410008EE90DBDE1D93446C6188604BDE95D35A7
:1024200046396A1700170017001700170015001526
:10243000A4140015A414251556155615A5145615E3
:10244000A51456205620A81FA91F73207320001F13
:10245000001F25203420108EE422F6205FBDDA6FA5
:102460003520A6C9001E85022702C6023420108E20
:10247000E4CEBDDA6F3520108EE895BDE1D9344643
:10248000C60D8600BDE95D3546F6205F2704F620BF
:10249000645CA6C9001E85022702C6033420108E84
:1024A000E4D4BDDA6F3520108EE859BDE3422D0F1C
:1024B000108EE86DB601C881022604108EE881BD39
:1024C000E1D93446C6188604BDE95D354639411563
:1024D000411525154120A81FA91F2520F62062C1FE
:1024E0000123103420108EE5A1F62060BDDA6F358F
:1024F00020200E3420108EE5D7F62060BDDA6F352F
:1025000020A6C9001E8502271CC6053420108EE5B2
:10251000B5BDDA6F3520C60A3420108EE5C1BDDAAC
:102520006F35202033F62060B6206244240D34201D
:10253000108EE5B5BDDA6F3520200B3420108EE506
:10254000ABBDDA6F3520F6206058FB2064342010D4
:102550008EE5C1BDDA6F35205F108EE859BDE1D937
:102560003446C60D8600BDE95D3546F62060C101E2
:1025700027035F2005F62064CB01108EE859BDE3E8
:10258000422D0F108EE86DB601C881022604108E10
:10259000E881BDE1D93446C6188604BDE95D3546FB
:1025A000396A1700177017701770173F153F1548D5
:1025B00015481548153F153F15461546154615256E
:1025C000153F203F20A81FA91F3F203F2051205129
:1025D000204420442025206A1700177317731773AF
:1025E00017F62062C10123103420108EE6CBF620AE
:1025F0005DBDDA6F3520200E3420108EE6DBF6202C
:102600005DBDDA6F3520A6C9001E8502271CC608ED
:102610003420108EE70BBDDA6F3520C61034201041
:102620008EE71DBDDA6F352020443420108EE6EB96
:10263000F6205DBDDA6F3520B620624424103420C8
:10264000108EE70BF6205DBDDA6F3520200E3420AA
:10265000108EE6FBF6205DBDDA6F3520F6205D5862
:10266000FB20643420108EE71DBDDA6F3520108EFC
:10267000E895BDE3272D0F108EE935B601C881021C
:102680002604108EE90DF6205DBDE1D93446C60D55
:102690008600BDE95D3546F6205D2708C1022204AB
:1026A000F620645C108EE8BDBDE3422D0F108EE86D
:1026B000E5B601C881022604108EE90DBDE1D934CA
:1026C00046C6188604BDE95D3546396A170017000D
:1026D00017001700177017701770176A1700170088
:1026E000170017001773177317731700150015A439
:1026F000140015A414001500150015001500150090
:102700001500150015481548154815001500150049
:10271000150015001546154615461525150020000F
:1027200020A81FA91FA81FA91F732073207320733F
:10273000203F203F2051205120442044202520F6D6
:102740002062C10123103420108EE5A1F62061BD66
:10275000DA6F3520200E3420108EE5D7F62061BDCB
:10276000DA6F3520A6C9001E8502271CC605342055
:10277000108EE80EBDDA6F3520C60A3420108EE8C0
:102780001ABDDA6F35202033F62061B6206244246A
:102790000D3420108EE80EBDDA6F3520200B34206A
:1027A000108EE804BDDA6F3520F6206158FB2064F6
:1027B0003420108EE81ABDDA6F35205F108EE8598C
:1027C000BDE1D93446C60D8600BDE95D3546F6202B
:1027D00061C10127035F2005F62064CB01108EE85C
:1027E00059BDE3422D0F108EE86DB601C881022657
:1027F00004108EE881BDE1D93446C6188604BDE9CF
:102800005D35463953155315481548154815531568
:102810005315461546154615251553205320A81F58
:10282000A91F3F203F205120512044204420252033
:10283000AE22AC22AD220000CF00B500A60AA60A47
:10284000560B410B560B410B2A21EB29FF0000EBE5
:1028500024FF0000EB24FF0000EB24FF0000EB103E
:10286000FF0000EB1AFF0000EB06FF0000EB24FF67
:102870000000EB15FF0000EB1FFF0000EB06FF0060
:1028800000EB24FF0000EB24FF0000EB24FF00001E
:10289000EB06FF0000EB24FF0000EB24FF0000EB41
:1028A00006FF0000EB24FF0000EB06FF0000EB2416
:1028B000FF0000EB24FF0000EB24FF0000EB24FFEF
:1028C0000000EB10FF0000EB1AFF0000EB24FF00FC
:1028D00000EB24FF0000EB24FF0000EB24FF0000CE
:1028E000EB24FF0000EB24FF0000EB15FF0000EBE2
:1028F0001FFF0000EB24FF0000EB24FF0000EB248F
:10290000FF0000EB24FF0000EB24FF0000EB24FF9E
:102910000000EB24FF0000EB24FF0000EB24FF008D
:1029200000EB24FF0000EB24FF0000EB24FF00007D
:10293000EB24FF0000EB24FF0000EB24FF0000EB82
:102940000BFF0000EB24FF0000EB0BFF0000EB246B
:10295000FF0000EB24FF0000EB24FF00003477327F
:1029600078E7673AAF64BD8436AF62E6A4102A0008
:1029700083C1FE260A30C6BDA1D5CCE7022038307F
:10298000C65F3604BD907DE667C10326277D2066BD
:102990002611F62065C1012605CCA4022019CC849D
:1029A000022014F62065C1012605CCC4022008CC03
:1029B000C4022003CC0402AE623404F61E5F340469
:1029C000C604BD8305E661BD60463404E661BD838F
:1029D0000535043262EE64E621BDEAA6AE6230013E
:1029E000E6245C33C5A68081452704A7C020F6EE07
:1029F000647EEA6A30C6BD907DAE62CC0401BD99AA
:102A0000A6E621EE6433C5EFE4EE64A6A42702A790
:102A1000C5E623862EA7C5E6242B035C33C5A62274
:102A2000E61EC12D2706A01F8B302004AB1F80306F
:102A3000AE62E601C130270E4D2B462709C6308D08
:102A40004A290D4A26F9AE623001E6808D3D28FA0A
:102A5000EE64C620A6C0812027FA8130260AA6C4CB
:102A6000812E2704E75F20EC335EAE626D242B0AD3
:102A7000A684812D27028620A7C4BD844E326835E6
:102A8000F7C62A8D0628FC336420DF3402A6C481F1
:102A90002E2602334111A3632408C12E2702E7C06A
:102AA00035821A023582347633C5A61D812D27065C
:102AB000108EEAEE2004108EEAD9EC1E10A3A42793
:102AC00004312320F7A62210AE418120260710AF43
:102AD000C4A7422002A7C435F630336D3036263005
:102AE000396E31327031356631386132312A3030E9
:102AF0002030336B30364D30394731325431355018
:102B000031384532312A0007010300000702040072
:102B10000007020400000703050000070002000090
:102B200007010300FF07000000FE090000FF343525
:102B30003A1F1230C6BD907D1F2134068604C6019F
:102B4000BD99A63506A61F812A260D1F21340686AB
:102B500003C602BD99A6350635B53477BD85063462
:102B6000408E2181BDA1D58E204CBDA1E28E20B525
:102B7000BD907D8E2051BD9088F600DBF7205CB6BD
:102B8000018FB720682700F601D4F72074F601CA38
:102B9000F72067F601CBF7204B8E01CCBD907D8EE0
:102BA0002079BD90888E01D0BD907D8E2075BD901E
:102BB000883540BD850FCE2074B62180B720668E43
:102BC0002178BD907D8E217CBD907D9672360296D7
:102BD00070D6713606335DB600D936024FD67336DD
:102BE00006B600DD3602B600E1F600E23606B600B3
:102BF000DFF600E03606B600DE3602335FB6217639
:102C00003602B620E7F6217536068E213ABD907D54
:102C100035F75343484C554D424552474552205491
:102C20004543484E4F4C4F474945532C313236307F
:102C300020494D504544414E434520414E414C5959
:102C40005A45522C302C300D1CAF7F202FC60D1052
:102C50008E209186FFA7A05A26FB8E20EE8604BD0B
:102C600084277D043E26144F5FFD2085FD2087FDCF
:102C70002089FD208BFD208DFD208F108E20EEBD44
:102C800083FCBF2030B62142B7202A108E20EEBD33
:102C900083FCBF2032108E20EEBD83FCBF2034FCAD
:102CA00020D2FD00C2C608BDB5E1BD85063440BDD9
:102CB000EE39BDD4BFBE24BB5FB6202A8101260CED
:102CC0003404FC24BF35042703F602EF3085A6C880
:102CD0001A840727014AB72348BDEF741A508E2083
:102CE00085BD908833448E2089BD908833448E20E2
:102CF0008DBD908833581CAFBDD612BDF17FE7C89B
:102D000021BE2030B621432A28847F3402B6011325
:102D1000C605BDF8A83502C6C0BDF0AA4D271234BD
:102D200002B60112C605BDF8A8CC0006BDF8A8354C
:102D300002BDF505F602F627237D218F271E7F2190
:102D40008F34168EEDCAF620402606F6018E8EEDE3
:102D5000C458AE85860A5FBDB2923516C6FFE7C875
:102D600022BDD5A2BE2030BD844EBE2032BD844ED1
:102D7000BE2034BD844E3540BD850F108E20EEBD83
:102D800083FCBD844EC6F7BDB5EB4D1027FEECC6E7
:102D9000FEF700247F0025C604BD78ED34765F86FB
:102DA0000D8E82B9CE1EA5BDAC9E3576F62040C1F3
:102DB000022609C601F72040C6232002C620BDB363
:102DC000887EEC7BEE24EDE5EDD0EE24EE0FEDFAFF
:102DD00017204556414C554154494E47204E554CBD
:102DE0004C2020200D17204E554C4C454420535765
:102DF0004545502020202020200D17202020204E47
:102E00004F524D414C495A494E47202020200D1722
:102E1000204E4F524D414C495A4544205357454549
:102E20005020200D17202020202053574545504981
:102E30004E472020202020200D3436335B6FC28E79
:102E4000206CBD907D8E2070BD907D8E204CBDA1EC
:102E5000D58E2051BD907DFC00C2360610BE2034B8
:102E6000BDEEB1B7202E10BE2032BDEEB1B7202D81
:102E700010BE2030BDEEB1B7202C7D237F2712F687
:102E80001E5F3404C60CBDEE93BD4ECC3504BDEEC2
:102E90009335B61A50F71E5FF73A721CAF39F61E1B
:102EA0005F3404C60CBDEE93BD586D3504BDEE9382
:102EB00039108C2034271D30A9000CBD907D8EEF79
:102EC00001BD907D8E2051BD907D8ED7B7BD9656A9
:102ED000260A334C8ED7B7BD907D2006BD8CA9BD88
:102EE0008D871230A9000CBD908830A90008BD90D4
:102EF0007D30A90004BD907DA6A900033602840799
:102F00003903C90FDB347033413044BD907D304408
:102F1000BD907D33C8103025BD907D3021BD907DA2
:102F200033581F313440BD85063440300CBD907D90
:102F3000301CBD907D301CBD907D301CBD907DBD92
:102F4000D17F3021BD908833443025BD90883344F3
:102F50003540BD850F354033C81030C4BD907D333A
:102F6000483029BD907D335CBD8F1E3029BD9088CF
:102F7000334435F034101F32F62040C101262E3480
:102F800060BD85063440C601F720413420BDFCA554
:102F900035207F2041BDEF05312D334DBDEF05318B
:102FA0002D334DBDEF053540BD850F35607D018F5B
:102FB0002712F61E5F3404C608BD8305BD401535D3
:102FC00004BD8305BD85063440F6205C4FC109274A
:102FD00010C105250CC1072405A6A8272003A6A813
:102FE000283402588EF16B3085A684E60130A6BDE8
:102FF000907D5D270A30A5BD907DBD8F1EC00480E9
:103000000430A6BD907D800430A6BD907D4AA6A662
:10301000A7A83B6FA83C6FA83A3404F6205CC1090E
:103020003504271F5D272130A5BD907DC00430A544
:10303000BD907D5AE6A5E7A83CBDD17FF6205CC1D6
:103040000522058680A7A83A350231A81CA72C3096
:10305000A4BD908833443024BD908833443028BDCB
:10306000908833443540BD850F33A4B620682700CF
:10307000B620682708E6C81ECA01E7C81EF6204029
:10308000C1012608E6C81ECA01E7C81E7D018E27B9
:1030900014F61E5FAEE43404C608BD8305BD4BD9EB
:1030A0003504BD8305359011161A3476BD84C334BA
:1030B000106F02ED03344034148EF0A7F600D9E609
:1030C0008533C535143005BDA1E2EEE4AE62300AA9
:1030D000BD90886F043344AE62300FBD90886F049A
:1030E00035403510108E21F4BD83DA35F63423F6E1
:1030F0001E5F3404E6848C012C26015A5D2724349B
:1031000004108EF12BB6205C4848E6B658EBE05A26
:103110004C4C10AEA6E6A535021A50B73A72B71E4F
:103120005F35A3F600D927EF5C20EC00DFF15300F8
:10313000DFF15300DFF15300DFF15300E0F15D00F8
:10314000E1F16100E2F16100E1F16100E2F16100B1
:10315000DFF153040506070907060A090A040506F4
:103160000704050607090A090B090C0900160009DE
:1031700016160923000923230916232316090034F0
:103180007230C900007D204B270430C90004BD9077
:103190007DBDF37C33445FB620672703BDF1A97D75
:1031A00020742703BDF1D735F234401F3230A90017
:1031B00000BD907D8101270730A90004BD907D8E60
:1031C0002075BD96562F04C601200A8E2079BD9623
:1031D000562C02C60235C01F323424F601D76DE0EA
:1031E0001026001D30A90004108E01E9F601D5C19A
:1031F00001270B10AEE430A90000108E01E5BDF3ED
:103200000F3520B6202A8101263E7D02F62706BD15
:10321000F2784D27337D03A12706BDF2537EF24E8F
:103220007D039F27085D2705BDF263201BF73BD078
:103230003404C602FA02EDF70010F73BD1F6220083
:10324000F73BD2BDF2A835045CF101D72F02C6636B
:10325000CA80393406B603A181032705C666BDB30B
:103260006835867A039F86FFB70023B7002834208D
:10327000108E1E80103F35A0F1203F2F03F7203F16
:10328000F6203FB6214384013402261A7D03A1278C
:1032900003BDF25386FFB70023B700283420108EF9
:1032A0001E80103F352035824F340630E4BD91EF4B
:1032B00035068EA793BD907DBD8F628E1FE4BD90B5
:1032C0007DBD8F628E1FE4BD9088F601D4C10326B8
:1032D0000BBDF442F601E45C3DB72200F603A07D8D
:1032E00001D8271D8E01D9BD96562D157F03A0CC80
:1032F0004000FD1FE4CC0000FD1FE6C667BDB3889B
:103300005F3344C401FA02EDF70010F73BD13934C2
:1033100070BD907D8E01ED5FBDF32528065CF10147
:10332000D726F535F03446BD907DBDF35930890080
:1033300080BD907DBDF3593089FF8434103048BD85
:1033400096562D0933443044BD96562F061A023541
:103350001035C61CFD351035C634108EFFD4BD9017
:103360007DBD8F628EFFD4BD907DBD8D8730A4BDA5
:10337000907DBD8CA93590018000000034517D0303
:10338000A3260C8E03BEBD90888E03BABD90888E96
:1033900003BEBD96562C03BD90888E03BABD9656CB
:1033A0002F03BD90886FC23041BD907D30C4BDA158
:1033B000D58E03A7BDA1D5BDA01130C4BDA1D5BD7B
:1033C0009C8E8E03A2BDA1D5BDA1D58EF377BDA1E4
:1033D000D5BDA071BD9DD5BD9C8E8E03B5BDA1D5BB
:1033E000BDA071BDA1F28E03A7BDA1D58E03A2BD64
:1033F000A1D5BD9C8EBDA0718E03A2BDA1D58EF3BB
:1034000077BDA1D5BDA0718E03A2BDA1E2BD9DD5A2
:103410008E03A7BDA1F28E03B5BDA1D58E03A2BDBB
:10342000A1D5BD9DD53402A6C4847FA7C435028E24
:1034300003B0BDA1E2BD92298E03ACBD9088334498
:1034400035D13475F6203C86713DBDF481F7203CC2
:103450001F98BDF4813402F6203D86593DBDF49B92
:10346000F7203D1F98BDF49B3402F6203E86533D65
:10347000BDF4B5F7203E1F98BDF4B5ABE0ABE03529
:10348000F56FE24D2A076CE48300E32BF96CE483CB
:1034900000E32AF9C300E335024A396FE24D2A07F7
:1034A0006CE48300B32BF96CE48300B32AF9C30006
:1034B000B335024A396FE24D2A076CE48300A72B2B
:1034C000F96CE48300A72AF9C300A735024A39340E
:1034D000771F894FBDB7648E20368D141F988D10CD
:1034E000860DA7806F844F5F8E2036BDB32A35F7D7
:1034F000340284F0444444448B30A7803502840F66
:103500008B30A780393477B6202A8101261F967028
:1035100084FB27198E24C5BDF7548101270C810235
:1035200026055D270820035D2603BDF52F35F7B678
:1035300000A28101260A7D00C42605C648BDB368E5
:103540008E24C8BDF7541A50FC24BF26117C24C019
:103550008E0000BF24B9BF24BBBF24B7204310B3E3
:1035600024C3261BBE24B9F602EF318510BC24B754
:103570002304108E0000BF24BB10BF24B9201DBE41
:1035800024BBF602EF3085BF24BBBF24B7FC24BFA9
:10359000BDF749FD24BF10B324C32605C680BD78FE
:1035A000ED7D00C4260486082002860C1CAFBDF504
:1035B000B2391F12F62040C102260D7D00C4260537
:1035C00031A824200331A82CBE20303004BDF6BE23
:1035D000E61FC4733404F600C2C4035858EAE0344A
:1035E00004BE20323004BDF6BEE61FC4733404F6B8
:1035F00000C3C4035858EAE034048608BE203430BF
:1036000004BDF6BEF62040C1022616E61F58EAE0C9
:10361000EAE0C4E0102700897F201A7F20407EF670
:10362000A1E61F3404E6617D00C42712ECC9000D39
:10363000108340002706E661CA802002E661340458
:10364000E663340430E48603BDF6BE326530C9005B
:10365000118605BDF6BE3440BD8506344030863443
:10366000103420108E8B063124BDF6A235207D202B
:103670006627028A80340630E48602BDF6BE3262D6
:10368000351030043420108E8B06BDF6A235203460
:103690000630E48602BDF6BE32623540BD850F3588
:1036A0004039BD907DB6206648484830A6BD907D23
:1036B000BD8CA9BD887530E3BD90CA350639345636
:1036C00034026DE42721E6808601BA1E5F34011AB8
:1036D00050B71E5FB73A72E7A084FCB73A72B71EC4
:1036E0005F35016AE420DB350235D634178EF731B9
:1036F000B600C4484830867D204027043008201892
:103700007F201A7D018E270A7D02F6270B30881054
:1037100020067F23017F2302A684E601AE02B702C2
:10372000EFF702F0BF02F11F10BDB764FD24C335EF
:103730009724DC01952CD4014B3CC400F34CB4001D
:10374000C034CC01183CC400F31E898B01191E89BA
:10375000890019393406A68481092608EC011083F2
:103760009999271BEC011E898B01191E8989001963
:10377000ED01240BA68481092705890019A784354A
:10378000868E1FEC4FBD84271CAFC6FDBDB5EB1068
:103790008E1FECBD83CDC602BDB5E1FC24BF27243E
:1037A000BDEB5ABD850634401F104D2A08847FFDAD
:1037B0002043CC00088EF7EA58AD953540BD850F03
:1037C000292120C68C000427D78C000627D2347606
:1037D0005F860D8E82B9CE1EA5BDAC9E3576C644E1
:1037E000BDB388C680BD78ED20A0FBD0FBE5FC53BF
:1037F000FC7AFF5AFBF7FB93F845FC14BDA4212C7F
:1038000003BDA1E23005BDA4212F03BDA1E239BD56
:1038100096562C05BD90886F043005BD96562F0531
:10382000BD90886F04393084BD90886F043005BD29
:1038300090886F04334439BDA1E23005BDA1E23365
:10384000453911161A3477BE21F410260058C6F7F0
:10385000BD7912C604BDF8A8C605B60113BDF8A807
:10386000CC0003BDF8A8BDF8B7BDF985BD85063409
:10387000407F2264BDFB127D012C2712C605B601D4
:10388000148A80BDF8A8EEE47F2264BDFB123540A7
:10389000BD850FC605B60112BDF8A8CC0001BDF864
:1038A000A8C607BDF8A835F7BD84C3ED036F0210A5
:1038B0008E21F4BD83DA39CC0001FD24C1BE24B9C8
:1038C0003450BDFCA5AEE4BDEF747F201CBDD61204
:1038D0003404F62062F72042350434408EF8423436
:1038E00004F600D9E68533C58E01087D00D935047C
:1038F0002705BDF8262003BDF837EEE48E0122BD72
:10390000F8268E0139BDF82635403550BE24BDBCA1
:1039100024BB276BBC24B726058E00002005F602C9
:10392000EF3085FC24C1BDF749FD24C13450BDFCF6
:10393000A5AEE4BDEF743404F62042F720623504EE
:10394000BDD61234408EF8423404F600D9E68533F1
:10395000C58E01087D00D935042705BDF80F200369
:10396000BDF7FCEEE48E0122BDF80F33448E013921
:10397000BDF80F35403550BE24BDBC24BB268D3963
:1039800002935D8DE53477BD850634408E0122B605
:103990000116F60115BDF9AF8E0139B6012DF601FC
:1039A0002C2602C602BDF9AF3540BD850F35F74D57
:1039B00027068102270C200F5D260CB60308810222
:1039C0002605BDF9CE2006BDFA33BDFA33393410D1
:1039D000BDA1D5BDFA19BDA2B8BDFA24BDFA07AE86
:1039E000E4BDA1F23005BDA1D5BDFA19BDA2B88EC6
:1039F000A793BDA1D5BDA071BDFA24BDFA07AEE461
:103A00003005BDA1F235906D41260833458EFA147C
:103A1000BDA1D53941EC1E6978BDA3612405C62539
:103A2000BDB368398EF980BDA1D5BD9C8E6F44BDF4
:103A3000943F39344034103005BDA1D5301BBDA1B1
:103A4000D5BDA011BDA3611025007830C4BDA1D59E
:103A5000BDA2B88E2046BDA1E2BDA011BDFA248E44
:103A6000FAB8300FBDA4212F058CFB0325F43005D7
:103A70003345BDA1D58E2046BDA1D5BDFA24BD9C40
:103A80008E30C4BDA1D5BDA1D5BDA1D5AEE4BDA12B
:103A9000D5BDA201BD9DD5BDA2B8BD9C8EAEE4BD75
:103AA000A1F23005BDA1D5BDA201BD9DD5BDA2B875
:103AB0008EA793BDA1D5BDA071BD9C8EAEE430058F
:103AC000BDA1F2351035C001C00000007DCCCCCCCA
:103AD000CD04A000000002C00000007ECCCCCCCD04
:103AE00003A000000003800000007F8000000003AE
:103AF0008000000003F00000000080000000028051
:103B000000000004A000000001800000000180000F
:103B10000000CC0001FD24C1BE24B93450BDFCA579
:103B2000AEE4BDEF743404F62042F7206235047F22
:103B3000201CBDD612CC0080BDF0AA3550BE24BDDD
:103B4000BC24BB274DBC24B726058E00002005F6FB
:103B500002EF3085FC24C1BDF749FD24C13450BDBE
:103B6000FCA5AEE4BDEF743404F62042F7206235C4
:103B700004BDD612FC24C110B324BF2705CC00001D
:103B80002003CC0140BDF0AA3550BE24BDBC24BBEF
:103B900026AB393437BDC40C8E0000BF24B9BF2416
:103BA000BBBF24BFBF24C87F24CABF24C57F24C78E
:103BB000C67FBD79127D20452711C640B6204081C1
:103BC000022705BDB3882003BDB368BDF6EB35B74A
:103BD00086FFB72092CC0001FD24C1BE24B97F200E
:103BE0001CBDFD6F3986FFB72092FC24BFFD24C1A8
:103BF000BE24BBBDFD6F39C67FBD7912BDFBD08D24
:103C000052BE24BDBC24BB26F686FFB72092C680D8
:103C1000BD78ED39FC20431E898B991925015A1E68
:103C200089FD24C1BDC4688300001027FFA23406AB
:103C3000BE24B9350683000134062F0FF602EF309B
:103C400085BC24B72FED8E000020E83506BF24BDCB
:103C50007EFC53BE24BDBC24BB271CBC24B7260558
:103C60008E00002005F602EF3085FC24C1BDF74927
:103C7000FD24C1BDFD6F391A0239BE24BDBC24B973
:103C800027F58C00002605BE24B72005F602F0308B
:103C900085FC24C11E898B991925015A1E89FD2492
:103CA000C1BDFD6F397D20412603BF24BD1F1234E5
:103CB00020FC24C13606335C33C8C634507D00C4B2
:103CC0002705BDFE712003BDFDC634041F89840392
:103CD0005454EDC1BDFF216DE02705CC0180ED5CA2
:103CE00086077D00C4270630890023200430890020
:103CF0001BBDFF2DECC37D20412704847F200B7F5B
:103D000020664D2A05847F7C2066341030C4344000
:103D1000BD85063440ED84BD91EF3410108E8B06C6
:103D20003124BDFD603510BD90883344300434101B
:103D3000AE66335E8602BDFF2DEC5E340630E4BD18
:103D400091EF3506108E8B06BDFD603510BD908855
:103D500033443540BD850F35403510355035203959
:103D6000B6206648484830A6BD907DBD8D87393461
:103D700050BDFCA58602B7202ABDD4BFAEE4BDEF7E
:103D8000741A508E2085BD908833448E2089BD9052
:103D90008833448E208DBD908833581CAFBDD61219
:103DA000BDF17FE7C900210D262714FC24C110B303
:103DB00024BF2705CC00002003CC0100BDF0AABD24
:103DC000D5A21CFD35D03410B602EF813426123452
:103DD00040CE22F1308900248610BDFF2D3540AE43
:103DE000E4308900188601BDFF2DA65F340284737C
:103DF000A75F3502840C47473402AE617D2041261F
:103E000006308900002004308900248608BDFF2D7B
:103E1000BDFF21AE61308900198601BDFF2DA65F6F
:103E200034028473A75F3502840CAAE03402AE61C9
:103E30007D204126063089000820043089002C8628
:103E400008BDFF2DBDFF21AE613089001A8601BD7E
:103E5000FF2DAE617D204126063089001020043000
:103E60008900348608BDFF2DBDFF215F3502351066
:103E7000393410B602EF813C26123440CE22F130A4
:103E800089002C8610BDFF2D3540AEE4308900201E
:103E90008601BDFF2DA65F34028473A75F350284BF
:103EA0000C47473402AE617D204126063089000070
:103EB00020043089002C860CBDFF2DAE61308900B6
:103EC000218601BDFF2D6FE2E65F2A026CE4C47F0C
:103ED0003404C473E75F3504C40CEA61E761AE6281
:103EE0007D204126063089000C2004308900388668
:103EF0000CBDFF2DAE623089001A8601BDFF2DA7D3
:103F00005FAE627D2041260630890018200430898A
:103F100000448608BDFF2DBDFF2135043502351054
:103F20003934108ED7B78604BDFF2D359034273431
:103F3000026DE427218601BA1E5F34011A50B71EB4
:103F40005FB73A72E68084FCB73A72B71E5F3501FC
:103F5000E7C06AE420DB350235A71F121E89BDE1E8
:103F6000031F89BDE1031F301E89BDE103C620E7A1
:103F7000A01F21EC848130261A86201E89ED801F27
:103F800023108E0003EC841E89ED80313F26F61F3E
:103F90003220DE812026048630A7A43934361F1251
:103FA0001F21EC848130260E86201E89ED80EC8452
:103FB0001E89ED8420EA812026048630A7A435B628
:103FC00005A0000009B4000002C90FDB03C90FDB24
:103FD00006E52EE107C80000FFFFFFFFFFFFFFFF20
:103FE000CE003D83BCBCD4F231354801FFFFFFFF5A
:103FF00007FF83548311A907AB35B282B25B8000FF
:00000001FF
