:020000040000FA
:100000008E1E7CBD839F86FF97387F20A27F20A114
:100010007F20A40F390F430F2E7F00448670B73B1B
:100020000086683402B63A738510260DB61E8984A0
:100030000188014848AAE4A7E43502B73B0097339A
:1000400034057D237E2713C6FFF1237E2707C6755F
:10005000BDB3882005C676BDB38835058E001186F0
:1000600001C601BD73176F857D391F2B02A785C699
:1000700002BD73176F857D392F2B02A785C603BD7F
:1000800073176F857D39BF2B02A785C604BD731713
:100090006F857D39CF2B02A785BD4F761CAF108EA3
:1000A0001E57103F108E1E7C113F108E1E57113FA1
:1000B0001A500D28262A7F1E7C7F1E7D1CAFC6107D
:1000C000BDB5E17D20A22708BD4290290CBD4A8420
:1000D000B620137F2013BD4C02C6EFBDB5EB20BE8A
:1000E0001CAF0F287F00447D008C27037F005EC675
:1000F00010BDB5E186FF972EBD4193293B3440BD2D
:100100008506BD4FA7BD850F3540292CF6008CF123
:1001100020E626085D270B7F005E20067F005E7FBD
:100120000044F720E6B6005EB7005FBD459CBD41C8
:10013000D22905860FB720A13401C602BD78ED355E
:100140000129271A507F1E7C7F1E7D1CAF8601BDB2
:100150004C020D272A143440BD8506BD4FA7BD852E
:100160000F354029057F034220A20D392703BD53D7
:10017000F17F00237F00287F0027108E209D103FF5
:100180000F2E7F0044C6EFBDB5EB108E22ED103F61
:100190007E409E3404C6527D393F2B20C6537D39A4
:1001A0004F2B19C6547D390F2B12C6557D395F2B45
:1001B0000BC6567D396F2B041CFD35847F20407F94
:1001C000201A7F018E7F23027F2301BDB3881A028C
:1001D00020E83476B620E5B70046BD850634407D7C
:1001E000218E273EBD87697D218B271DBD5207BD0E
:1001F000423A29427F005E7F005FB6218E8102274E
:1002000005BD447D2003BD42E87D21872711BD51F6
:10021000D7BD423A29207F005E7F005FBD4476BD96
:1002200051D2BD423A290FBD44AFBD43291CFD3513
:1002300040BD850F35F61A0220F53476C6FDBD792E
:100240001286683402B63A738510260DB61E89846C
:100250000188014848AAE4A7E435021A409733B759
:100260003B001CBFBD45FD2923BD4D81291EBD8717
:1002700069BD540EBD594E240F3440BD8506BD5195
:10028000D2BD850F354020B41CFD35F61A0235F677
:100290003476BD42C47D20A32740B6216F8105245A
:1002A000391CFD35F63476BD42C4F600A19637817F
:1002B00001270AB6216F810524205D261DF720A4A1
:1002C0001CFD35F634761A50F6004A7F20A21CAF8A
:1002D000C1102502C006D73735F6C626BDB38886BD
:1002E00001B7004A1A0235F63470108E20FA8E20BB
:1002F000BABD430A108E210A8E20C2BD430A108E59
:10030000211A8E20CABD430A35F0341030A90004EA
:10031000BD907D3510BD9088341030A90008BD9087
:100320007D35103004BD90883934767F20D27F200F
:10033000D3B6218E810210260020108E20FA8E2046
:10034000BABD435CB620D4B720D2108E210A8E20CD
:10035000C2BD435CB620D4B720D335F6BD85063484
:10036000408601B720D434103028BD907D3024BDA4
:10037000907D8E2122BD907D8E211EBD907DBDD1B0
:100380007F8E20DDBD908833443344AEE43004BD1D
:10039000907DAEE43084BD907D8E20CEBD907D8E6C
:1003A00020CABD907DBDD17F8E20E1BD90883344B1
:1003B00033448E20DDBD907D8E20E1BD907DBD8FCC
:1003C0001E8E20DDBD907DBD8D873402A6C4847F46
:1003D000A7C435028E20D5BD908833448E2122BD1E
:1003E000907D8E211EBD907D3028BD907D3024BD36
:1003F000907DBDD17F8E20DDBD9088334433448E07
:1004000020CEBD907D8E20CABD907DAEE43004BD6F
:10041000907DAEE43084BD907DBDD17F8E20E1BD66
:100420009088334433448E20DDBD907D8E20E1BD25
:10043000907DBD8F1E8E20DDBD907DBD8D873402E9
:10044000A6C4847FA7C435028E20D9BD90883344CA
:10045000B620D4810327138E20D5BD907D8E20D960
:10046000BD965625058602B720D435103540BD858A
:100470000F397DCCCCCD34768E20A5200534768EF8
:1004800020AD108E20FABD4492108E210ABD4492F8
:1004900035F6341030A90008BD907D30A90004BDA8
:1004A000907DBDD0BA33443510BD908830043934C6
:1004B000768601B1218E102600837D218B2603BD17
:1004C000447D7D21872603BD44768E20A5BD907D89
:1004D0008E20ADBD907DBD8F1EBD457A8E20FA3039
:1004E00089000CBD90888E20A9BD907D8E20B1BD65
:1004F000907DBD8F1EBD457A8E210A3089000CBDCE
:1005000090888ED7B7BD907D8E211A3089000CBDA2
:1005100090886FC28E2186BD907D8E218ABD907D90
:10052000BD8F628E540ABD907DBD8D878E2181BDA9
:10053000A1D5BD9C8E8E20B5BDA1E235F634508E7E
:100540004575BDA1D58E20B5BDA1F28ED7B7BD90A2
:100550007D8E20FA3089000CBD90888E210A30896A
:10056000000CBD90888E211A3089000CBD90883314
:1005700044355020C64000000000A6C41F89847F77
:10058000A7C4C4808EFFC8BD96562D0B8EFFC8BD74
:10059000907D6CC4BD8F1EE8C4E7C4393416B60024
:1005A000A2B7218E810127068102271C2018FC009A
:1005B000BAFD218AFC00BCFD218CFC00BEFD218619
:1005C000FC00C0FD21883596CC0000FD218CFD216A
:1005D00088BE45F1B621814881102C03BE45F9BF84
:1005E000218ABE45F981102C03BE45F5BF21863511
:1005F0009607B400000AE10000400000003477BD17
:10060000850634408E00A4BD907D8E46ABBD9656C7
:100610002E5D8E46AFBD96562C068E46AFBD907DA4
:100620004F8E46B3BD96562E014CB720E70F358E40
:100630009AC9BD96562D0203358E216ABD907DBDA7
:100640008CA9BD46C02928F6216A5857C0022E0140
:100650005FC1082F02C6088E46B7A685B720ECBD3D
:1006600047968D1A3540BD850F35F701800000355E
:1006700040BD850FC624BDB38835771A0239347F53
:1006800086F0B73A717F20A3CE40008D0235FF5F20
:100690001F9B8E0000108E0000861A363C363C36BA
:1006A0003C363C363C36104A2EF13911C350007AA4
:1006B000A3D70A7DCCCC00FFFEFCF8F0E0C08000A0
:1006C000E6C45857C120102C00AFC1182F1510AE2A
:1006D0004110BF20E8A643B720EA7F20EB8600C088
:1006E00020205EC1102F1510AE4110BF20E9A64397
:1006F000B720EB7F20E88600C0182045C1082F15E1
:1007000010AE4110BF20EA8600B720E87F20E9A69E
:1007100043C010202C5D2F16108E000010BF20E863
:10072000A641B720EB7F20EAA642C0082013108E16
:10073000000010BF20E88600B720EA7F20EB86008B
:100740005F2A107720E87620E97620EA7620EB46CB
:100750005C20EE4D27028D29FC20EA2609FC20E8CA
:1007600026045CF720EBB6216F81072609F620EB03
:10077000C50127028D0B1CFD39C624BDB3881A02A2
:1007800039FC20EAC30001FD20EA2409FC20E8C36B
:100790000001FD20E83910BE20E8109F30B620EAA5
:1007A0009732B620EBC108270A48093209310930CF
:1007B0005C20F2B620EC43B420EB2607B620EC9781
:1007C0002F200E40972F0C322607DC30C30001DDAE
:1007D000303934478612CE000034404A2EFB327442
:1007E000AFE410AF628619A767300531890198869A
:1007F000099B36A7648010A765CC49CE3402B61E8B
:100800008885083502260E3402B6216F810735022D
:100810002603CC4A02ED68C3001AED6A33E8289635
:1008200036A7668D56BD48C4301F313F335F6A66B8
:100830002CF1EC68C30001ED68C3001AED6AE664B0
:100840003085E66531A56A672CD210AE6230E822A9
:10085000CE4A47B61E888508260AB6216F8107262C
:1008600003CE4A3BBD4910312430E8123343BD4921
:100870001010AE62AEE432E83035C7E6E8221DEB78
:10088000848900E08901A08200EBA48900E0A9012D
:10089000A08200A7E822A6F80A6D682F103DEBE8B9
:1008A000238900EBC48900E7C4A7E82339CB803D46
:1008B000EBE8238900E35FED5F24026C5E6FE822C2
:1008C0006FE82339E6E8121DEB848900E08901A076
:1008D0008200E0A48200EBA901A08900A7E812A68B
:1008E000F80C6D682F103DEBE8138900EB50890080
:1008F000E750A7E81339CB803DEBE8138900E3C844
:10090000EFEDC8EF24036CC8EE6FE8126FE81339FF
:100910003450963781012F1CEC05A30CED05EC0338
:10092000E20BA20AED03EC01E209A208ED01E68464
:10093000E207E784860490368E4A36E686E7A4AE60
:10094000E43086E602E042E702EC84E241A2C41F02
:10095000133510EDC42A25CC0000A305ED05CC000D
:1009600000E204A203ED03CC0000E202A201ED01CB
:10097000C600E284E784E6A4CB80E7A486029B3627
:10098000E6C4261AE6A4C0085969A456E7A4334170
:100990004A2CEDCC0000ED228640EDA435C02B168C
:1009A0001F891CFE69C55A2CFBE6A45A5969A45636
:1009B000E7A4E6C420E8E7214A2B0DE641E7224AF6
:1009C0002B08E642E72335C06F226F2335C0081796
:1009D0002636445362707D8A97A3AFBAC4CDD6DE63
:1009E000E5ECF1F6F9FCFEFFFFFEFCF9F6F1ECE5B3
:1009F000DED6CDC4BAAFA3978A7D70625344362643
:100A00001708051A243842565F727B8D95A5ADBB39
:100A1000C2CFD5DFE4EDF0F6F9FCFEFFFFFEFCF9F6
:100A2000F6F0EDE4DFD5CFC2BBADA5958D7B725F4F
:100A3000564238241A053028201810083E00083E77
:100A400000083E00083E00083E80083E80083E80C8
:100A5000083E803477BD4B3CBD4AAA7D20A42603C6
:100A6000BD4C9C7D237F2710F6005CC1022E10F642
:100A700000DBC1042709200AF63A73C5012603BD2D
:100A8000EE9E35F73477BD4AAA7D237F2710F60006
:100A90005CC1022E10F600DBC1042709200AF63AD9
:100AA00073C5012603BDEE9E35F734777D391F2BC4
:100AB0001E86FDB73A718E3CC0108E20FEBD47D217
:100AC000B6214A48484848BA21468417B720FD7DD8
:100AD000392F2B1E86FBB73A718E3CC0108E210E2B
:100AE000BD47D2B6215048484848BA214C8417B770
:100AF000210D7D39BF2B1E86F7B73A718E3CC01091
:100B00008E211EBD47D2B6215648484848BA2152C8
:100B10008417B7211D7D2175271BCE20FEBD921F96
:100B2000BD9096CE210EBD921FBD9096CE211EBDCA
:100B3000921FBD90969637B720ED35F7BD850634E8
:100B400040DC41C300011F013410D640C9004F34BE
:100B50000626058C00002705C689BDB3881A0176D4
:100B600020EC250A68636962696169E420F1FC2070
:100B7000EAA3623606FC20E8E261A2E436063264AB
:100B8000862036026D412613A6C480082F51A7C4C3
:100B9000EC42ED41A6445FED4320E96D412B0E6A26
:100BA000C42F3C684469436942694120EE8601973D
:100BB000368E216ABD907DBD8D878E213ABD90888D
:100BC0007D20A426258E4BF6BD96562D238E4BFAFE
:100BD000BD96562D198E4BFEBD96562D0F200BCC73
:100BE0000000FD213C8640FD213A0C360C360C36C7
:100BF0003540BD850F397DA3D70A05A3D70A0DA3BC
:100C0000D70A347734028101260D7D004626357DD2
:100C100020A42703BD4C9C108E20FA8D5A108E21E3
:100C20000A8D54108E211A8D4EBD84366F02108E9F
:100C300020EEBD83DA4F0D3927014C0D2627028A9D
:100C400080B721433502B72142BDEB5AF6205C7DC7
:100C50002148260FC1052704C1062607C662BDB379
:100C60006820127D214E260DC1072704C1082605E4
:100C7000C663BDB36835F7BD8436C60FA6A5A78584
:100C80005A2AF94FA7029645489A3B48484848488F
:100C9000AA03A703108E20EEBD83DA39BD85063482
:100CA000408E213ABD907DBD8D998E213EBD9088AC
:100CB0003344108E211A8E4D6DBD4CD6108E210AF4
:100CC0008E4D59BD4CD6108E20FA8E4D59BD4CD646
:100CD0003540BD850F39F63A73C501274D7D237F19
:100CE0002648E623C40F27015A58583ABD907D7D07
:100CF000217527098E4D55BD907DBD8CA98E213E55
:100D0000BD907DBD8CA930C4BD907D3028BD907D47
:100D1000BD8CA93028BD908833443024BD907DBD62
:100D20008CA93024BD90883344393028BD907D8E05
:100D3000213EBD907DBD8CA93028BD9088334430C4
:100D400024BD907D8E213EBD907DBD8CA93024BDFB
:100D5000908833443901C90FDB66ABCC7769D6BFC5
:100D6000956D8637BD69D6BF956D8637BD5A8CBCEB
:100D7000CC5DAFEBFF60DBE6FF6489705F67ABCCF7
:100D80007734377F214A7F21507F2156C601BD73BA
:100D900017290A108E2146BD4E22B73B10C602BD50
:100DA0007317290A108E214CBD4E22B73B20C60373
:100DB000BD7317296B108E2152BD4E22E6A4340656
:100DC000FC000EF73B33B73B32ECE4F82144C5049A
:100DD0002724B73BB0BD850634408E57E5BD907DD6
:100DE00034108E2196BDB05F35103540BD850F1093
:100DF0008E2196BD83CD3506B73BB03440BD850608
:100E000034408E2181BDA1D58E4E91BDA4212D06E9
:100E1000C1032602CA043540BD850F3540F7214481
:100E200035B734147F2145C10226037321458E0056
:100E3000C5A685260286817D2145273A3402B63A29
:100E40007385403502262F7D237F262A3440BD85B9
:100E50000634408E2181BDA1D58E4E9BBDA4212F8D
:100E60000E3402847F810335022C0484808A03358A
:100E700040BD850F3540A7A48E00CDA685A7218E45
:100E800000D5A685A7228E00D1A685A7238D113572
:100E90009417C8000000189896800014F4240000ED
:100EA0003414B61E89840148E6A4C47F5A8E4F1CB0
:100EB0007D2145274C34023404C6038E4F1F344035
:100EC000BD85063440B63A738408271234108E214B
:100ED00081BDA1D58E4E91BDA42135102D05C60230
:100EE0008E4F243540BD850F35404FE1E42E0286FC
:100EF000083402F6000EC407EAE0F7000E350435A8
:100F000002AA858E4F29E621AA858E4F2BE622AABA
:100F1000858E4F2DE623AA85A72535942060E020F5
:100F200060E060E020602060E010000400080083C2
:100F300083858534077F2145C1032603732145A698
:100F4000A47D237F26274D2A244C34108E4F2F5A00
:100F5000A18535102602847FA7A4BD4EA0A784FCDE
:100F6000000EF73B33B73B3235071A01398601A72C
:100F70002435071CFE39340786F0B73B10B73B20F9
:100F8000B73BB0FC000E84F7F73B33B73B32FD00B4
:100F90000E7D3B107D3B207D3BB086F1B73B10B70B
:100FA0003B20B73BB0358734760F3A7D00242A5476
:100FB0007D02F5272FF62040FA018E2727C664BD53
:100FC000B388F62040C10226067F20407F201AF613
:100FD000018EC102102602607F018E7F23017F23D4
:100FE00002160254860EF6030827193D108E534E42
:100FF00031A5BD52491029023F73003A86FFB70060
:1010000025B70024108E007734101F21BDA1D58E86
:101010002181BDA1F23510343030A4BDA1D58E237D
:1010200043BDA1F23530BD8640BD8980102902083C
:10103000B60075B72177B61E888408B72176B6004A
:101040000484F044444444B7216F8E1E92BD907DC9
:101050008E217CBD908833448E1E8EBD907D8E2166
:1010600078BD908833448E1E76BDA1D58E2165BD96
:10107000A1E28E2160BDA1E2BD87BC7F2175B621B2
:101080006F840781052D46732175B63A7384102647
:101090001DB61E89840126168E50DFBDA1D58E2176
:1010A0006ABDA1F2C6E7F70008F73B5420288E215D
:1010B00065BDA1D5B6216F8508270286088005C6C3
:1010C000053D8E50E43085BDA1D5BD9C8E8E216A34
:1010D000BDA1F2BD5111BD42A51029015B35F60934
:1010E000C49BA6387B864B8A7879A4A9CF067982DF
:1010F0008CBFC17C8421084001800000000D831258
:101100006ECB0CFBA882BB0CF1FAA5170CE90453BB
:101110003134777D237F261F1A50F6005EC50110FB
:10112000260058CA01F7005E1CAFC6E8B63A7384C1
:1011300004271CC6E7203EF6005D1F98840FC4F00C
:10114000340257575757860A3DEBE057502026F791
:10115000215F8EA78EBD907D8E215ABD908833442D
:101160007F215E8E216ABDA1D5BD9DE78E50FDBD5C
:10117000517DF6215FF70008F73B5435F734103006
:10118000C4BDA1D5AEE4BDA1D5BDA201BDA1D5BD53
:101190009C8E8E8883BDA1D5BDA071BDA2B8BD9D1A
:1011A000D5BD51AE351030055AC1E52CD0398E2150
:1011B0006ABDA1D5BDA0113402A6C4847FA7C435E1
:1011C000028E215ABDA4212F06BDA1E2F7215F3373
:1011D000453934767E500434766FC28E5406BD9005
:1011E0007D8E2186BD907D8E540ABD907DBD8D87FC
:1011F000BD8F628E2181BDA1D5BD9C8E31C47F0083
:101200005E7F005F7E501734766FC28E5406BD90AD
:101210007D8E218ABD907D8E540ABD907DBD8D87C7
:10122000BD8F1E7E51F335F6C621BDB3887F2040A9
:101230007F201A1A021601220F270D3A2706C6FF31
:10124000D739D7381A027E50DD34767F2190B60325
:10125000088102270B7321907D030727087F2190C7
:10126000FC030E27C33440AE22BD53C7AE24BD538A
:10127000DC35402CB30D382A507F203F86FFB72144
:101280008F7F201CFC030E830001FD21587D02F599
:1012900026187D007027133420C606F720454F1FFF
:1012A00001108E1FECBD83BE35207F2264C6FBBDBE
:1012B00079127F00387D02F72608AE22BD53C77E23
:1012C0005347AE24BD53C7207E8E2191BD53C7AE78
:1012D0002CBD53C77D02F72638ADB8067D21902777
:1012E00009AE24BD53DC2C1F205DFC215883000176
:1012F000FD215810830000270EAE24BD53DC2D477E
:10130000AE24BD53C72040AE24BD53C7BD53FA2001
:1013100036ADB8087D21902709AE22BD53DC2F1FC2
:101320002025FC2158830001FD215810830000274F
:101330000EAE22BD53DC2E0FAE22BD53C72008AE29
:1013400022BD53C7BD53FA8E2191BD53B01F21104A
:10135000AEA4AD980A2803BDB38835F60077031014
:101360000315A071A0116F72030900770310031514
:101370009C8E9DD56F720309007C031A031F8F6238
:101380008F1E707903090080032E03338F628F1E36
:10139000705703090084032403298F628F1E70791C
:1013A000030900880338033D8F628F1E70570309BD
:1013B00034206F0410AEA4108C00772705BD9088F0
:1013C00035A0BDA1E235A0342010AEA4108C00776A
:1013D0002705BD907D35A0BDA1D535A0342010AE28
:1013E000A4108C00772705BD965635A0BDA42135E5
:1013F000A034610F39BD74E735D17F002786FFB770
:101400000038B70039390180000007C80000347780
:101410000F3B7D20A42605BD572135F7863C6FE2A2
:101420004A2EFB8640A76EA7E812A7E818A7E81C7B
:10143000A7E821A7E825A7E82AA7E82EA7E833A769
:10144000E8370F300F3186019732BD8506EFE44F44
:10145000F620ECD72F53C30001ED623062BD91EF4F
:101460008E216ABD907DBD8D873064BD9088ECE88B
:1014700016ED6CC30001EDE81630E812BD907D302A
:1014800068BD9088EEE4BD5721BD467EBD55E70D91
:1014900023102A00DFB620A4102700D630E81C81D4
:1014A00002230A30E8258104230330E82EBD907D15
:1014B000301CBD907DBDD0BA30E816BD91EFBD8D1A
:1014C0008730E812BD90883068BD907DBD8F1E1FAB
:1014D00031BD907DBD8CA9306CBD91EFBD8CA93024
:1014E000E816BD91EFBD8CA9306EBD907DBD8F62B9
:1014F000306EBD9088BD9229ECE816830003102D54
:10150000FF6C108300042F02C60458588E55C83053
:1015100085BD907DBD8CA9306CBD91EFBD8D878E52
:1015200055C4B620A44724038E55BCBD907D30E839
:1015300012BD907DBD8CA93044BD96562C36ECE88A
:1015400016108375302C2BBE00B4BD907D7D00B885
:1015500027098E216ABD907DBD8D873064BD907D49
:10156000BD8D8730E816BD91EF3044BD9656102DE5
:10157000FEFC0C3BA662E6E8163DFD20E8A663E60D
:10158000E8173DFD20EAA662E6E8173DF320E9FDF5
:1015900020E924037C20E8A663E6E8163DF320E971
:1015A000FD20E924037C20E8BD5683BD4B3CEEE4DE
:1015B000BD850F32E83C35F704A000007AA3D70AB6
:1015C00007C800007DCCCCCD02E0D4FE02B0624E54
:1015D000029EE9790296353F0290F5C358588E571E
:1015E000093085BD907D39F620FD8E20FE31E81A48
:1015F0008D7AF620FD8E210231E81E8D6FF620FDDA
:10160000E1E8222F03E7E822F6210D8E210E31E8D2
:10161000238D59F6210D8E211231E8278D4EF621AA
:101620000DE1E82B2F03E7E82BF6211D8E211E315B
:10163000E82C8D38F6211D8E212231E8308D2DF6D3
:10164000211DE1E8342F03E7E834F6212D8E212E09
:1016500031E8358D17F6212D8E213231E8398D0C88
:10166000F6212DE1E83D2F03E7E83D39BD907DBD32
:1016700055DCBD8CA930A4BD907DBD8F62BD908826
:10168000334439F620FD108E20FE30E81A8D6DF6B9
:1016900020FD108E210230E81E8D61E6E822F72041
:1016A000FDF6210D108E210E30E8238D4FF6210D11
:1016B000108E211230E8278D43E6E82BF7210DF636
:1016C000211D108E211E30E82C8D31F6211D108E2B
:1016D000212230E8308D25E6E834F7211DF6212D52
:1016E000108E212E30E8358D13F6212D108E2132EB
:1016F00030E8398D07E6E83DF7212D39BD907DBDF5
:1017000055DCBD8D8730A4BD9088334439018000FD
:101710000004A0000007C800000AFA00000E9C4068
:101720000034377F21A21A508E1EC1BD839F0F2C1B
:101730000F2D1CAFBD57E97D21A226117321A28E6A
:1017400057A13410C60C3404BD85183263108E1EA8
:10175000C1113F962C260E962D27F2BD4A5386FFC7
:10176000B720A335B71CFEC6FF851027143404C666
:10177000018E3B10108E2146BD4F333504C4EF203F
:101780002E852027143404C6028E3B20108E214C57
:10179000BD4F333504C4DF2016854027123404C6FC
:1017A000038E3BB0108E2152BD4F333504C4BF1A97
:1017B00040D42CD72C1CBF1024FF92BD58F8BD85F7
:1017C0000634408E57E5BD907D34108E2196BDB015
:1017D0005F35103540BD850FBD467E108E2196BD0C
:1017E00083CD7E57267CCCCCCD3417B6214A84FEDF
:1017F000B7214AB6215084FEB72150B6215684FE47
:10180000B721567D1E7B27121A40963384F7B73BCB
:10181000008A08B73B0097331CBF7F1E7BB6216A46
:10182000484781022C221A4096338A02B73B009720
:10183000331CBF121A4096338A01B73B0084FEB7AF
:101840003B0097331CBF200D1A40963384FDB73BF5
:101850000097331CBFDC30DD40963297420F3CF6D8
:1018600021703DDD3E0F3D9631F621703DD33DDDCB
:101870003D9630F621703DDB3DD73DB6214B84FED1
:10188000B73B108A01B73B10B6215184FEB73B200D
:101890008A01B73B20B6215784FEB73BB08A01B717
:1018A0003BB086FFB73B011A4096338A10B73B0026
:1018B00084EFB73B0097331CBFB620EC9E30260860
:1018C000D632C1012602962FB73B01DC3D261A967F
:1018D0003F810126141A40963384BFB73B008A40EB
:1018E000B73B0097331CBF200D1A40963384DFB7F7
:1018F0003B0097331CBF3597340786FFB73B011A6F
:101900004096338A20B73B0097331CBF1A4096336A
:101910008A10B73B0084EFB73B0097331CBF86208B
:101920004A2CFDB63B0085402705C688BDB38835E7
:10193000877D008C27177D004427058E1E8E200D85
:101940008C007C27058E5AE320038E5AA03934760A
:101950000F457D008C26040F4335F6BD85063440C7
:10196000B6008C4A48488E59E73186BD59EF8E2122
:10197000A3BD907D8EA793BD907DBD8F1E8E8B06DF
:10198000BD907DBD8CA93402A6C4847FA7C4350256
:101990008E008DBD96562E040F43203E0D432634F7
:1019A0000C438601B70044BD5A157F005EBD898097
:1019B0001029002D8E1E92BD907D8E217CBD9088B9
:1019C00033448E1E8EBD907D8E2178BD9088334429
:1019D0001A0120060F43860197453540BD850F3516
:1019E000F6BDB3687E59D420FA007C211A008434F5
:1019F00070342010AEA43028BD907D3024BD907D81
:101A0000BDD0BA3520AE22BD907DBD8D878E21A37D
:101A1000BD908835F03476F600752705BD5AA420B0
:101A200003BD5A618E21ABBD908833448E21A7BD82
:101A3000908833448E1E8EBD907D8E21A3BD907DF7
:101A4000BD8D878E21A7BD96562F03BD907D8E211B
:101A5000ABBD96562C03BD907D8E1E8EBD908835F5
:101A6000F634168E00956D0126038E5A98BD907D32
:101A70008E5A9CBD96562F188E2181BDA1D58E5AA7
:101A8000E7BDA42133452F0833448E5A9CBD907D79
:101A90008E5AA0BD907D359602C0000001800000E6
:101AA00079A3D70B34168E009D6D0126038E5ADB69
:101AB000BD907D8E5ADFBD96562F188E2181BDA117
:101AC000D58E5AE7BDA42133452F0833448E5ADF03
:101AD000BD907D8E5AE3BD907D35967CF5C28F7B9F
:101AE000A3D70A73D1B7171898968000346010AE48
:101AF000841027006C3404BD5B9BBD5B63295D1FB4
:101B000021BD5B90263EA60F2B3A10AE04108C6EC2
:101B10006A272F108E21DC6DA6272710AE04108CAB
:101B20006DBC26040D2A271A8102261034765F86A2
:101B30000D8E82B9CE1EA5BDAC9E3576C6611A0249
:101B4000201A972910AE063308AD9804290E10AE5E
:101B500084270935041F98BD5BBD20993502BD5B04
:101B6000BD35E034208D29271C0D1C261CB600280D
:101B700034027F1E847F1E85108E1E84113F6DE00F
:101B80002603BD86241CFD35A05FD71C1A0235A094
:101B90003442FE1E60A64281C835C234565D271B02
:101BA000BD843634101E124F3402BDCB7CA7A06C0E
:101BB000E4A6E4811025F33502352035D634774D7F
:101BC0002703BD844E35F734631A50FE24CD2730E9
:101BD0001F13BD84792934108E000010AF84EF02EA
:101BE000AFC410AF42108E6DB110AF048699A70E2E
:101BF00086FFA70F1E13BD5F651E1335631CFD39DD
:101C00003404C670BDB38835040F1934765F860D71
:101C10008E82B9CE1EA5BDAC9E357635631A0239CB
:101C200034631A5010BE24CD27141F12BD847929A5
:101C3000EAEE22EF0210AF84AF22AFC420BD34041D
:101C4000C670BDB388350420D234671A50EE021036
:101C5000AE84270FEF2210AFC4BD849F1F213567CC
:101C60001CFD3935671A0239342010AE841A022758
:101C7000041F211CFD35A03420AE0210AE021CFD55
:101C80002604AE841A0235A0D617C103260B34767B
:101C90005FCE1EB1BDAC9E35763945444954204DCA
:101CA0004F44450D4C4541524E204D4F44450D4942
:101CB0004E53455254204D4F44450D172020484166
:101CC0004C5445442020030D110D120D130D140D1D
:101CD000000023C56DB2000000000000000099FF65
:101CE00034118E23C56F808C248125F935913402FF
:101CF000A6C45F81092306840F8B0AC6033404C679
:101D0000053D8E23C5308510AE84350435827D00B7
:101D10001B260DFC21B02607108E21B0BD83BE39D5
:101D2000C61534765F860D8E82B9CE1EA5BDAC9EDB
:101D300035761A023934730D1B1026009ABD5CEEFD
:101D4000102700AA5D2717BD6335102900A834109D
:101D50008E20011F98BD634735101029009CBD617E
:101D6000823406BD61C635061029008634108E5DAA
:101D7000C4BD64713510AE9F247A1F13BD63F48C0B
:101D8000000026F61F31EE9F2478BD63E6BD64593E
:101D9000EE9F247AEF9F24783406EC9F2470BDC414
:101DA00068E39F2476ED9F2476CC0000ED9F24709D
:101DB000ED9F2472ED9F247A3506BD648AC618BD56
:101DC000B38835F31720434C454152494E470D1215
:101DD0001212C6111A0239C61534765F860D8E822C
:101DE000B9CE1EA5BDAC9E357635731A0239C61321
:101DF00020E7C61620E3C67120DFC67220DB3473ED
:101E00000D1B26D3A60FBD5CEE2629BD5BC729227C
:101E1000341686078E5CA4BD5C8835167D00692764
:101E20000C3416860B8E5CC8BD5C8835169718BDC1
:101E30005D1335F3C6177E5DD934730D1B26988666
:101E4000019719C6FEBD7912A60FBD5CEE2607BD2F
:101E50005BC729DE2007BD616E29971F218D0220F7
:101E6000CC341686078E5C9ABD5C883516108E21A0
:101E7000C4BDB8D7341286068E21C4BDB324351232
:101E8000393473BD5CEE1027FF645D2705BD6335F3
:101E90002947BD5B9027471F126D04261EB621AF50
:101EA00081042E307C21AF6304BD5AEC1FA8A7E447
:101EB0002802AF626F247A21AF35F310AE6210AE04
:101EC000A4BD5B9B34161F211F9810AEA4BD5BBD43
:101ED00035162711C6147E5DD9C6717E5DD986FF81
:101EE000971C7F21AFBD5D1335F38E21B04FBD84AC
:101EF000278E21BCBD839F8E23C96F8430058C241F
:101F00002425F78E5CD0BF23C58E23C58D57BD62B7
:101F100041CC0000FD2470FD2472FD24741CAF1020
:101F20008E21C0103F0F190F1AC6FFD7180F1BC6FE
:101F3000BFBDB5EB108E21B0BD83CDC640BDB5E1B0
:101F400086FF971B8C0000271A8C1F4F272C8C2391
:101F5000C525078C2424102501CC1F13AE02BF24F5
:101F60007420CA20BA3407BD6182CC0001ED9F24E1
:101F700070BD61C6ED9F247235870D191026011BB7
:101F8000EC061083043E27361E131F12BD5C202969
:101F900029C60FA6C5A7855AC10424F7BD5C681FD2
:101FA00013BE2474BD6182EC9F24708D3CED9F2490
:101FB00070BD61C6ED9F247220261F232022EC04F1
:101FC00010836DB11027FF5710835D1327317D00FB
:101FD000182A0810835D0E102702C9C612BDB36807
:101FE000108E21C0103F7E5F2D1E898B01191E8926
:101FF000890019391E898B99191E898999193934D3
:10200000403308BD5CEE3540102700805D2707BDDA
:10201000633510290080BD616E29761F21108E2145
:10202000C0103F3404C6FEBD79127D0069270C3410
:1020300016860B8E5CCABD5C88351635041F12BD32
:102040005B9B1F213420108E21C4BDB8D73412866B
:10205000068E21C4BDB3243512BD5C681F9835209F
:102060001E12BD5BBD28D87D006927183416860B6B
:102070008E5CCCBD5C8835163416860B8E5CCEBD6E
:102080005C883516C601BD78ED7E5F2DC6137E5F78
:10209000DDC6167E5FDDC6717E5FDD0D1A2627EC7C
:1020A0000410835DD2274810835DD1275510835DCE
:1020B000CF272110835DD0272F10836DB11027FE0D
:1020C0005EC6117E5FDDEC061083043E1026FEB86E
:1020D0000F1A20C71E13BD5C682805C601BD78ED28
:1020E000BD5E611E317E5FE01E13BD5C7720EA3469
:1020F0001686078E5CAFBD5C8835168601971A7E02
:102100005FE01E13BD5C4929D73410BE24748D7264
:10211000EC9F2470BD5FF4ED9F2470BD61C6ED9F00
:102120002472351020BA1F1263040F1CC6FEBD793D
:10213000125F8C23F72507C603BD6335292C8D2E2E
:102140002921BD5AEC280F5D261B341286078E5CB0
:10215000BBBDB29235126F247A21AFC601BD78EDB6
:102160007E5F2DC616BDB36820ECC67120F734061D
:102170008D10BD61C6290910A39F247227021A027F
:10218000358634775F108E24CBCE24CD8C23F72573
:1021900009108E247FCE247DC60310BF2478FF242F
:1021A00076BF247AF7247C1F108323C52F054CC0EB
:1021B0000520F9488E24243086BF24708E244A30AE
:1021C00086BF247235F73470EC9F2470CE0000AEC9
:1021D0008427308D323406F6247CBDCB7C3402BD9E
:1021E000CB7C1F8935021F013506BD5FF4108300CB
:1021F0000027078C0000270B20D98C000026041F25
:102200003035F01A0235F03437108E0008F6247C91
:102210003440BDCB7C3402BDCB7C1F893502E3E169
:102220001F03313F26E735B7BD5B90270D7F21BCEB
:102230007F21BD108E21BC113F39108E21BC103F73
:10224000398E2006C603108E23F7BDCB7CA7A0BD18
:10225000CB7CA7A031238C201825EF108E2438BD0D
:10226000CB7CA7A08C202A25F6108E245EBDCB7CCB
:10227000A7A08C203C25F6108E249CBDCB7CA7A06B
:102280008C205725F68E2004BDCB7CB7247FBDCB98
:102290007CB724808E2002BDCB7CB7247DBDCB7C57
:1022A000B7247E3934703308BD5CEE2768BD616E9B
:1022B00029631F9833413410BD5CEE26521F12353E
:1022C000101E894D26035D2705BD63352955BD6167
:1022D000823406EC9F2470BDC4681E12BD61821E4C
:1022E0001210A39F24763506223534108E2001BDAE
:1022F00063473510293134108E632BBD647135105E
:10230000BD637B2912C619BDB38835707E5F2D353C
:1023100010C6172002C613BDB36835707E5F2DC688
:102320007020F4C67120F0C67220EC1720434F5085
:1023300059494E470D34168E2000C603BDCB7C8113
:10234000AA27021A02359634764D27271F89B6220E
:10235000DE8102262286AABDCB97301FBDCB7C81B1
:10236000AA2614301F8655BDCB97301FBDCB7C816C
:102370005526041CFD35F61A0235F6347034161F46
:1023800089BD63E6351610AE9F2478FE247AAE84AC
:102390004D270A1F138E2006BD64D21E138C000029
:1023A0002713108C00002738BD64131F23BD63F46E
:1023B000BD640620E81F894F1F31BDCB97BDCB9769
:1023C000EE9F247810AF9F2478EF9F247ABE247A62
:1023D0003406BD61C6ED9F24723506BD648A35F0B2
:1023E000C6701A0235F034165D27078E20004FBDE7
:1023F000CB9735963406BDCB7C3402BDCB7C1F8990
:1024000035021F01358634161F891F21BD63F41F55
:10241000123596347630041E121E893002BD64597E
:102420001E121E89CE000C34063402BDCB7C35044E
:102430001E12BDCB9735061E12335F118300002696
:10244000E6EC9F2476830001ED9F2476EC9F2470B8
:10245000BD5FE9ED9F247035F6346634041F3035D6
:1024600004BDCB9734041F301E893504BDCB97358E
:10247000E6347634765F860D8E82B9CE1EA5BDAC6D
:102480009E3576860ABDB29235F634765D27418E4A
:102490002002FE247DBD64598E2004FE247FBD648D
:1024A000598E2006BD64D2EE9F247ABD64598E20D9
:1024B00018BD64D2EE9F2470BD64598E202ABD647D
:1024C000D2EE9F2472BD645986AA8E2000BDCB97A0
:1024D00035F63406FC247283245E308B3586C84082
:1024E000C761475470256B50007546526F766B9EDE
:1024F0000077564170796BCE007C564270576BE680
:102500000080494170AD6BF20084494270E86C0A6A
:102510000088574671426B5000764D45701A6B54D7
:10252000008C414570216C16008D564372536BDA56
:102530000095494372526BFE009D5245762B000078
:10254000000053497618000000004853784100000D
:102550000000495372576C2E00A44D53727F6C3AA1
:1025600000AC4155730E6B6000A14D446EDF6B549F
:1025700000A2475073126C2200BE474E73136C22A8
:1025800000BA524172C26C6A00C5444372AC6C71AD
:1025900000CD4F5572A26C7800D1495072A16C7871
:1025A00000D5535774346B5C02F65344741A6B5065
:1025B00002F7534673566BB60302484673706BC2FC
:1025C00002FD4C46738D6BB602F8464D73F56B9E5B
:1025D0000310465873F46B9E0315564D73AC6BCEC7
:1025E000031A565873B16BCE031F494D73C06BF27B
:1025F0000324495873C56BF20329424D73B66BE649
:10260000032E425873BB6BE60333514D73CA6C0AF9
:102610000338515873CF6C0A033D434C6D120000D0
:1026200000005649BD3D6B5400D9534FBCB96C7F77
:1026300000DB4343BD3E6B5C00DD4250BD4C6B5044
:1026400000DC5557734F6B5000DA4656BD3F6B6444
:1026500000DE4356BD346B5C00DF4349BD406B5028
:1026600000E0435ABD416B5C00E14359BD426B5CE5
:1026700000E2564578306B5000E74141BDAF6B54E6
:1026800000E65054BDAB6B5000E54744BDAC6B5009
:1026900000EA5041BDAD6B5000E95044BDAE6B50F7
:1026A00000E85842BDE46C4600EB5942BDE56C467B
:1026B00000EF5854BDE26C4600F35954BDE36C463C
:1026C00000F75849BDB36B5400FB584CBDB66B5076
:1026D00000FD584DBDC26CC200FE585ABDBC6B54C3
:1026E00000FC5850BDB96B7001125949BDB46B5410
:1026F0000115594CBDB76B500117594DBDC36CC284
:102700000118595ABDBD6B5401165950BDBA6B70B2
:1027100001134F49BDB56B58012C4F4CBDB86B54DC
:10272000012E4F4DBDC46CC2012F4F5ABDBE6B541C
:10273000012D5650BDBB6B700114504C77D3000077
:1027400000005449BD706CFE01735652BE0C6B60A4
:1027500003435350BECE6BAA1FDF4F50C0696C9429
:10276000006D5248C3236B50006750506E286B6851
:10277000006050536E216B5000614F546E4F6B5888
:1027800000654F536E466B5000665252C33A6B5011
:1027900000474543C3536B5000685254C3546B58B1
:1027A000006A5250C3556B50006B584FC3526B5068
:1027B000006C4E4FC0AE6B5420404E4CC3596B540E
:1027C000018E4C49C09A6B5401CA4C56C0A16CD1C1
:1027D00001CC424EC2626B5801D44243C2B56B92E7
:1027E00001E24249C2376B5001D55646C29D6C5238
:1027F00001E5564CC29E6C5201E9425AC2F16B800F
:1028000001D64255C2FF6CE0026D424CC2FE6CE044
:1028100001ED4253C2336B5001D84246C2A56C5EF3
:1028200001D94252C2DA6B9201DD4256C2506B505E
:1028300001E04247C23E6B5001E1434FC9076D06BC
:10284000034E4655C5826D0A24814346C4D36B6C42
:1028500000004445C3326B5401C84453C3316B700C
:1028600001C95358BFE66B5001CB4644C39A6B581D
:102870000000464FC3CD000000004643C3D5000012
:1028800000004650C3396C9B24BF464CC3E26B88A2
:1028900002F34647C44D6B5000C44D43C3DE6B503A
:1028A00002F54A506D336B8E0000424B6EB400004F
:1028B000000054546EA76B540000544DBE066C8D3E
:1028C00000515353CA216B7400005253CAF16B7408
:1028D00000004353CB376B7400005352C4886B70B5
:1028E00003D250476E996B50000053546E836B684F
:1028F0000000534D6E6A6B5000004C4C6DBC6B5029
:102900000000524D6E076B500000504EC4AF6CA4D7
:10291000242423505D136B6C043E234C5DFE6B70CE
:10292000043E23455E396B70043E23465DCF0000B4
:10293000043E23425DD00000043E23495DD20000E6
:10294000043E23445DD10000043E23435D356B6C9F
:10295000043E234B5D0E6CBB043E23516DB1000061
:10296000043E45505E816B6C0000435062280000BD
:1029700000004E52C4B06B9824C54E41C4A96B9858
:1029800024C84552C4AA6B841FB34149C4AC6C2E01
:10299000213A4152C4AD6CAD202C5453C4AE6CB43A
:1029A000232C444FC060000000004345C4B1000028
:1029B0000000564EC4AB6B50FFF05952C1B46B7C53
:1029C0002014574BC19E6B7820155043C1466D0EA5
:1029D00020164D55BFEC6C5203A75653BFE96C5EF1
:1029E00003B04456BFED6C5E03AC4D41BFEA6C5280
:1029F00003BA4D49BFEB6C5203BE53497618000031
:102A000000004C4C6DBC6B500000524D6E076B507B
:102A100000004341C1E66CEF00544F5572A26C7840
:102A200000D1495072A16C7800D5434DC1D16B6083
:102A3000005C495372576C2E00A4424B6EB40000E8
:102A40000000434C6D120000000046526F766B9EF2
:102A50000077564170796BCE007C574671426B50BF
:102A60000076475470256B500075494170AD6BF28C
:102A70000084524172C26C6A00C554546EA76B54F4
:102A80000000534FBCB96C8600DB4D53727F6C3A2B
:102A900000AC50476E996B50000053546E836B5CD2
:102AA0000000534D6E6A6B5000005952C1B46B7CEC
:102AB0002014574BC19E6B7820155043C1466D0EB4
:102AC00020164F50C0696C94006D4543C3536B5042
:102AD00000685252C33A6B5000474552C4AA6B84F7
:102AE0001FB32A49444EC0456D02EC122A4F504391
:102AF000C026000000002A525354C04800000000C5
:102B00002A545354C0396B5003D12A434C53C02C20
:102B1000000000002A455345BFEE6B9203C22A45D0
:102B20005352C0466B9203C42A535245C0076B925E
:102B300003C82A535442C0476B9203C62A534156D6
:102B4000CA206B7400002A52434CCAF06B74000018
:102B50000181010001810200018103000181040063
:102B6000018106000181080001810800018218012D
:102B700001810901018216010182530101829985B7
:102B800001823201028299000184099900010182C7
:102B9000990101840255000001859999000001897D
:102BA00019F424000070A7C5AC47018919F424006A
:102BB0000099F4240000018010C35000000280003E
:102BC00000000180199896800070A7C5AC4701806D
:102BD00002C00000004000000000018002C00000B0
:102BE0000079A3D70A00018006A3CCCCCD86A3CC64
:102BF000CCCD01807CF5C28F5D40000000000180DB
:102C00007CF5C28F5D73D1B7170001807DCCCCCC31
:102C1000CDFDCCCCCCCD018006C8000000018000E9
:102C20000000018006C80000004000000000018094
:102C300011C35000007AA3D70A00018011C35000CD
:102C400000400000000001800FFA0000004000007A
:102C50000000018032E3257408B2E3257408018086
:102C600032E32574084000000000020203018105E0
:102C7000000202030181010002020201810100023F
:102C800002030082180002020301820300020223F1
:102C90000082590002010301810600020101008344
:102CA000099900000201090083099900000201014D
:102CB0000081050102010A008199000202180182C7
:102CC000180102010100893CDDD29350BCDDD29392
:102CD00050020201008032E3257408B2E325740833
:102CE000020232018032E3257408B2E3257408023F
:102CF000010100803CDDD29350BCDDD293500187AE
:102D00001A00018736000187300001871F00018704
:102D10000400343786178E1F9B318815BDCC79A7E8
:102D20008034765F860A8E1F9BCE1EA5BDAC9E3575
:102D30007635B73422BD5B902604C642205E10AEC5
:102D4000023410A60EA1C4260E35101F98BD5BBD1F
:102D5000BD5B9B1F212058BD5B9B1F2110AE02272E
:102D60000DA60EA1C427391F98BD5BBD20E91F9891
:102D7000BD5BBDAEE4BD5C68291E1F12BD5B9B1F21
:102D80002110AE02A60EA1C427161F12BD5C681F3B
:102D9000981E12BD5BBD28E43510C6411A02200FF3
:102DA0001F98BD5BBD3510BD5BBDBD5B9B1F213555
:102DB000A2123420108E1E80103F35A03420A60FA2
:102DC0008107261786010F2AE6C42702972AB72112
:102DD000DC7F21DF962BB721DE202A810027269673
:102DE0002A26228601B721DCB721DE972B7F21DF3F
:102DF000A60F810226057F21DE0F2B860DB73A052F
:102E00008605B73A0535A0A60F8107261386010F60
:102E10002AE6C42702972A7F21DCB721DEB721DF0B
:102E200039BD6F1D96602007BD6F1D1F98D6614A82
:102E30002A028610585858CB603404ABE0B73A05E4
:102E40008601B73A05393440BD6F1D9665200934B7
:102E500040BD6F1D1F98D666D71FCE6E66E6C6D7DB
:102E60001D44971E35C0000A000D3430E6C48E6E36
:102E700081E685FB21E4F721E4108E21EC103F353B
:102E8000B001FF3410E6C4F721E786FFB721E597CC
:102E900020108E21E8103F35903410E6C48E6E81EC
:102EA000E685F721E620EAE6C45C1F9BC602F7230D
:102EB000427E8000BD74A186FFB7043E1A507E801A
:102EC0003834058664E6C43D3404860AE641545429
:102ED00054543DEBE03404A641840FABE035853417
:102EE00076BD6F1DC10126257D02F526207D00706F
:102EF00027133420C606F720454F1F01108E1FEC04
:102F0000BD83BE3520C601F700C4BDF6EB35F6A67D
:102F100044A724EC42ED22ECC4EDA45D39E6C4E7FD
:102F2000A4390AA3D70A3E0DCCCCCCCE1180000028
:102F30000114A000000117C800000170A7C5AC482B
:102F400011C350000073D1B7175A0E9C4000007790
:102F500083126E980AFA0000007AA3D70A3E07C8C7
:102F60000000007DCCCCCCCD04A00000000080008F
:102F700000003470201934707D20401026008C7DB4
:102F8000018E102600857F201A7F23027F2301BD3A
:102F900085063440AE66BDA1D5108E6F3B8E6F2284
:102FA000BDA4212D17312A30058C6F3B2DF28E6F79
:102FB0006DBDA1D5BDA071BDA2B8201C3025BDA19D
:102FC000D5BD9C8E8E6F6DBDA1D5BDA071BDA2B8C3
:102FD00030A4BDA1D5BD9C8E8602AE648C00772640
:102FE000044FF60308BD714629108A80F60308BD18
:102FF000714629067F005EBDA1F23540BD850F35C3
:103000007039A685A7A55A2AF935B0C6281A0235FF
:10301000F03540BD850F1CFD35F0BD6F1D7F005E96
:1030200039BD6F13393470BD6F1D7F005ECE02F65F
:10303000108E02F6BD744B35F03410BD907DBD8C02
:10304000A98E8883BD907DBD8F62BD917FAEE4BDAA
:10305000907DBD8D8735903450BD85063440AE647B
:10306000BD907D8E8B06BD70397F005E30A4BD9013
:10307000883540BD850F3550393450BD8506344004
:10308000AE64BD907D8E8AFABD70398603108C00C7
:103090007C26058601F60308BD714629087F005E7F
:1030A00030A4BD90883540BD850F3550393450BDB2
:1030B00085063440AE64BD907D8E8B0ABD70398626
:1030C00083108C008426058681F60308BD7146298D
:1030D000688E0088BD907D3402A6C4847FA7C43565
:1030E000023044BD907D20273450BD85063440AE6B
:1030F00064BD907D8E8B16BD703930C4BD907D341B
:1031000002A6C4847FA7C435028E0084BD907D8E44
:103110008AF6BD907DBD8CA9BD8F628E9AD1BD9679
:10312000562E1433447F005E30A4BD90883540BDD8
:10313000850F35501CFD39C6223540BD850F1A025A
:1031400035D0BD6F1D3934723402847F4488013418
:1031500004AAE0350227648E71CA4D2A038E71F2EB
:103160003402BD721A341030C44FADF13502274B12
:103170008E71D24D2A038E71FABD721A34108E717F
:10318000DA4D2A038E72023404847FC6063D3085F0
:1031900035043410AE84ADF8025D2716C10527044E
:1031A000C1042C0EAEE4AE02ADF802AEE4AE04AD46
:1031B000F80232644D2704C6091A0235F2189896AF
:1031C0008000018000017BA3D70A71BD71C2722803
:1031D000724071C271BD72407228007C031A031FD5
:1031E000007703100315007CA78EA78E0077A78EAB
:1031F000A78E71BD71C67228724071C671BD7240D2
:103200007228008403240329007703100315008427
:10321000A78EA78E0077A78EA78E3406840148104C
:10322000AE868B04AE86358634045FBDA1D51E12F2
:10323000BDA4212F015333451E123404AAE0358466
:1032400034045FBD907D1E12BD96562F015333444A
:1032500020E612BD6F1339123420BD6F137F00B802
:1032600010BF00B4108C00A427097C00B8108E0099
:10327000A42004108E00A84F5FEDA4ED2235A0120B
:103280003420BD6F137F00B910BF00B6108C00ACA6
:1032900027097C00B9108E00AC20DC108E00B02015
:1032A000D61212E6C4C10126037F00A33460E6C033
:1032B0003404BD7317293931A51F98BD6F1D35041E
:1032C00035E03460ECC01E897D237F27034D271A2B
:1032D000C103270481032E303404BD731729113133
:1032E000A51F98BD6F1D350435E0C6771A0235E07D
:1032F000350634765F860D8E82B9CE1EA5BDAC9E96
:103300003576C6501A0235E0C6031A0235E0BD6FA5
:103310001D3912BD6F133934125A8E00116D852676
:10332000021A0235923466108E733F34045454549A
:1033300054E6A5E7803504C40FE6A5E78035E630FE
:10334000313233343536373839414243444546BD4E
:103350006F1D7F201C397D20401026018F7D018E3E
:10336000102601887F201A7F2302BD6F0F7E74C153
:103370007D2040102601757D018E1026016E7F2074
:103380001A7F23027F0307BD6F0F7E74C17D20402B
:10339000102601587D018E102601517F201A7F23AF
:1033A000028601B70307BD6F0F7E74C1CC70792010
:1033B00021CC7079201CCC70572017CC705720126C
:1033C000CC70AD200DCC70AD2008CC70E82003CCC3
:1033D00070E87D2040102601137D018E1026010C1F
:1033E0007F201A7F23023406F60308ADF11029006E
:1033F000F57E74C1127D2040102600F07D018E10F4
:103400002600E97F201A7F2302CC6F763406F6036C
:1034100008ADF1102900CF7E74C17D204010260038
:10342000CB7D018E102600C47F201A7F2302BD6F42
:103430001D7E74C17D2040102600B17D018E1026B6
:1034400000AA7F201A7F23027F23013410E6C427BD
:103450004BC10327222E453440BD850634407D00F4
:1034600075270A86818E0084BD907D201F86018E7F
:10347000007CBD907D20154F7D007527028A803429
:1034800040BD850634408E0077BDA1D5BD7146355F
:1034900040BD850F354028043510204A3510BD6FDA
:1034A0001D7F0024B620408102260C7F20407F2013
:1034B0001A7F23027F23017D02F6270586FEB700CF
:1034C0002486FF97387F201C7F0025F602F6C10274
:1034D0002F077D00752702CB02F703082709BD746B
:1034E000F3C6FBBD79123986FF973839C628BDB3BC
:1034F0006820F33440BD85063440C1022605BD7501
:10350000AC20028D0F3540BD850F35C03402A6C4F6
:10351000AA4135823430CC0000FD030E108E757E3A
:10352000B603084A484831A6AEA4BDA1D5AE22BD17
:10353000A1D5BDA0117D030727258E02F8BDA1D519
:10354000BD750C2712BD759BFD030E8E7596BDA132
:10355000D5BDA011BD9DD58E0309BDA1F235B08E9C
:1035600002FDBDA1D5BD750C27EDBD9DD5BD759BDB
:10357000C30001FD030E8E02FDBDA1D520D90315A8
:10358000031003150310031F031A0333032E03292B
:103590000324033D0338018000000030C4BDA1D5E1
:1035A000BD886B30E3BDA252334535863430CC0044
:1035B00000FD030E8E0315BD907D8E0310BD907D22
:1035C000BD8D87BD92B18E0302BD907DBD750C2768
:1035D00021BD907DBD887530E3BD9119334435061A
:1035E000FD030E8E7596BD907DBD8F1EBD8D87BD72
:1035F000943F8E0309BD908833446F0435B0B60004
:103600000E840FB7000EF6000FF73B33B73B327F47
:10361000043F86FFB70022397F00277F03A0BD77D4
:10362000827D2201102B00ED7E76988601B703A0E3
:10363000BD77827D2201102B00DB86FFB700277D3E
:1036400000752754F602F6C1032D4D3450BD850692
:103650003440C103270F8E0338BD771A8E0084BD16
:10366000907D7E767B8E0088BD907D3402A6C484DA
:103670007FA7C435028E0324BD771A8E8AF6BD90CB
:103680007DBD8CA9BD8F628E9AD1BD9656102E003D
:10369000783540BD850F3550BD75FEC6FDBD79122C
:1036A000B600232661B601D42751D60081012F111F
:1036B000F601E48103260ABD7745BDF4425C3D1F57
:1036C00089F72200F73BD2F601DFF7039F7D39DF50
:1036D0002B297F0027B63BD08504260BB602ED8A46
:1036E00002B70010B73BD1B602ED8A01B70010B7A0
:1036F0003BD1B63BD084042602200B86FFB70023C3
:10370000B70028BD6DB21CFD393540BD850F355061
:10371000C6221A0239C6211A0239BD907D3402A68A
:10372000C4847FA7C435023004BD907D3402A6C492
:10373000847FA7C435023044BD96562F05BD9088BE
:1037400033443344393477B60052C6B43D3406B6F8
:103750000053C6033DE3E1C340001F014FE680BDB7
:10376000F4815D27F7F7203C4FE680BDF49B5D2791
:10377000F7F7203D4FE680BDF4B55D27F7F7203E13
:1037800035F734767F2201B602F6273DBD85063433
:1037900040810222108E0315BDA1D58E0310BDA459
:1037A000212F29201F8E031A810327038E032E7DCC
:1037B00000752702300A34103005BD907D3510BDEC
:1037C00096562F083540BD850F35763986FFB722CE
:1037D0000120F134107D006F2707C627BDB3882074
:1037E00023F60016C404261CD616C5182707C6459E
:1037F000BDB388200F7F2264C6074F1F01108E1FA4
:10380000ECBD83BE35903410BE21F426124F340631
:10381000C6F7BD79123506BD7821C607BD782135BA
:1038200090BD84C3ED036F02108E21F4BD83DA399D
:10383000BD6F1D26037F226439C6597F00261A02F8
:10384000397D20402610B6002481FE27087D002502
:10385000270370002439C628BDB3683934060F62C7
:103860000F60860197610F630F648602B73A058681
:1038700080B73A04B63A048480B72258108E2216D4
:1038800010BF223AC601D748B63A758580260D0F7B
:10389000487F223A7F223BC601F73A04BD78C14FE8
:1038A000B73A01B73A028626B73A0586A8B73A056D
:1038B0007F3A05F603CAC480F703CABD7928358666
:1038C0000034161F89C4605454545454D7498E7818
:1038D000E9E6852708F73A07C684F73A05841EB754
:1038E0003A068A81B73A0635960A0D3B0034071A24
:1038F00050F503CD270ACA408609B73A057F03CDA4
:10390000FA3A03F73A03F703CC4FBDB764FD03C699
:10391000358734071A50F43A03F73A03F703CC4FCC
:10392000BDB764FD03C635873407FA03CAF703CA77
:1039300034044FBDB764FD03C43504F403CB27073B
:10394000C620BD78ED3587C6DFBD791235877F2269
:10395000567F22571A50861BB73A018607B73A029C
:103960001CAF108E2204113FA624E6258504270EE5
:103970007D22582609340286FFB722573502850872
:103980002703BD79C2C5062703BD79C58510271B4E
:10399000BE223A8C220A2613BD7A5C8E00FF108E5E
:1039A000220ABD83BE108E2204113FC5012703BD2C
:1039B0007A1585012703BD7A7D85022703BD7AA28A
:1039C00020927E6EB43476BD84361F13BD84C3AF9F
:1039D000458607A74486FFA7428604A743C4305400
:1039E0005454108E79FD31B54FE6A0E7804C810428
:1039F00026F71F31108E1E96BD83DA35F67A057ACA
:103A0000097A0D7A114C4C300D524D300D4C4C3121
:103A10000D524D310D343610BE223AF63A04C40729
:103A2000588E7A4CAE85BC223A271F8C00002605A2
:103A30008E00002006BF223A8E000F108C00002757
:103A400009BD83BE108E2204113F35B60000000070
:103A50002216222E220A00000000000034328E00BE
:103A60000F108E2216BD83BE108E2204113F108EC1
:103A7000222EBD83BE108E2204113F35B234201099
:103A8000BE223A108C220A2706108C2222260E8E85
:103A9000FFFFBD83BE108E2204113F35A0B63A0051
:103AA00035A0342010BE223A108C22162706108C26
:103AB000222E2613B63A048502270C8EFFFFBD8303
:103AC000BE108E2204113F35A034769614A7425FB3
:103AD0007F2256108E220ABD83CD108E2204103F05
:103AE0008CFFFF27108C00FF27328C000027E45F3B
:103AF0007F225620DEB63A00810A27D7810D27D3D0
:103B0000813B27CF813F26078680B7225620C4AE4F
:103B100045A7855CC15025BBC65020B7AE45860D74
:103B2000A7855CE743A684BA2256A78435F61CAF66
:103B3000108E223CBD83BECE00004F108E2216BDDB
:103B400083CD8C000F270F8C0000270A8CFFFF26E7
:103B50000FC604BD7928108E2204103F1F1320DBEE
:103B6000C610BD78ED7F22541E13F6225434024F46
:103B7000E1432467350210AE45A6A57C2254810A94
:103B80002712810D270E812025E0812C26060D1F8E
:103B90002702860D8CFFFF2725108E2216BD83CDB0
:103BA000108E2204103F340286048C000F272C351F
:103BB000028C000027DE8CFFFF2703BF2202847FD8
:103BC000911D2605C606F73A05B73A008E0000811A
:103BD0000D26970D1E2693860A20B91F89BD7928C8
:103BE0003504C6EFBD79121A50108E223CBD83BE3B
:103BF0001CAFAE45BD84DB1F31BD844E16FF381CA3
:103C0000AF108E2222BD83CD108E2204103F20F1F2
:103C10001CAF108E2248BD83BECE00004F108E22F6
:103C20002EBD83CD8C000F270F8C0000270A8CFF40
:103C3000FF260FC604BD7928108E2204103F1F13E3
:103C400020DBC610BD78ED7F22551E13F6225534B9
:103C5000024FE1432442350210AE45A6A55CF7228F
:103C6000558CFFFF271D108E222EBD83CD108E2276
:103C700004103F340286048C000F271C35028C0090
:103C80000027DEE14326090D1D2705C606F73A0584
:103C9000B73A008E000020B41F89BD79283504C6CC
:103CA000EFBD79121A50108E2248BD83BE1CAFAEF4
:103CB00045BD84DB1F31BD844E16FF5DFFFFFFFF56
:103CC000FFFFFFFFFFFFFFFFFFFFFFFFFFFFFFFF04
:103CD000FFFFFFFFFFFFFFFFFFFFFFFFFFFFFFFFF4
:103CE000FFFFFFFFFFFFFFFFFFFFFFFFFFFFFFFFE4
:103CF000FFFFFFFFFFFFFFFFFFFFFFFFFFFFFFFFD4
:104000007B8EFA353466108E645934206FE2BD859C
:1040100018326335E634773420108E1E53113F3545
:10402000208E24818603F602EE102700C85A3D3008
:10403000855F8C249C2D2234328E633534106FE2E0
:10404000BD85183263102900BB8E624134106FE2C7
:10405000BD851832633532C603BF22E2F722E16D17
:1040600089000210270096BD85063440BD84C3BF79
:1040700022E4CC6464ED81BF22E6BE22E2AE84304D
:10408000027F22E81CFCBD439BBD4134240729105C
:10409000C608BDB368280E2507C606BDB36820054F
:1040A000C607BDB368BE22E4BD84DB30A90001BDF4
:1040B000908830A9000EBD908830A9001BBD908863
:1040C000334430A90005BD908830A90012BD908806
:1040D00030A9001FBD9088334430A90009BD9088E5
:1040E00030A90016BD908830A90023BD90883344C4
:1040F0003540BD850F108E1E53103F35F7C699BD54
:10410000B36820F1C671BDB368353220E80D41585F
:104110005E416A2A41E12F41E12B41F32D41F32811
:1041200041FD29422856423249424943425A5342AC
:104130005A6A42692921251F3420108E410DA1A4FD
:1041400027103123108C41342DF435201CFC1A012A
:1041500020053506ADB801393406A6A43520C6635E
:10416000BD433B860D5FBD42C3393406A6A435204E
:10417000BD439B812D26158631C631BD42C3864580
:104180005FBD42C3862F5FBD42C3200B812B270733
:10419000862B7A22E8301F1F89BD439B1E89C030C1
:1041A000272EBD47515A2F1B341030C814BD907DA7
:1041B00030C814BD907D30C814BD907D3510BD460B
:1041C0002720E2BD46FFBD4766BD439BBD41343954
:1041D00086525FBD42C386315FBD42C320E51A02ED
:1041E000393406A6A43520C620BD433BBD439BBD44
:1041F0004134393406A6A43520C63020EC3406A656
:10420000A43520C640BD433BBD439B812D261334BE
:10421000068630C631BD42C33506C610BD433BBD20
:10422000439B1CFCBD4134393406A6A43520C6008E
:1042300020B73406A6A435201F89BD439B1E89BD27
:1042400042C3BD439BBD4134393406A6A435205F2B
:10425000BD42C3BD439BBD4134393406A6A43520BD
:104260001F89BD439B1E8920D63406A6A435201F76
:1042700089BD439B1E8920C72A462742E02F451B44
:1042800042E02B468842E02D46BF42E04546FF42D1
:10429000E044475142E052476642E05643EC42E573
:1042A0004943EC42F3434401430353443343196A03
:1042B000443942FB3044334324314433432F0D44CB
:1042C00033433A34168E4278A184270D30058C4250
:1042D000C32DF51CFC1A0120053001AD980235965E
:1042E000AE84AD8439AE84C0305A860D3DC3000122
:1042F000AD8439AE84CC001BAD8439AE84CC002DA6
:10430000AD8439AE8434108E034E8609C0305A3DD8
:1043100030851F103510AD8439AE8434108E03D231
:10432000860C20E8AE8434108E43D4860820DDAE9F
:104330008434108E43E0860820D239340681282741
:1043400023812927303410BE22E6E11F35102D14B9
:104350003410BE22E6EC83BF22E635105FBD42C3B7
:10436000ECE420E135063410BE22E6ED81BF22E602
:1043700035101CFC393410BE22E6EC83BF22E63532
:1043800010C164270A8128270D5FBD42C320E61CA7
:10439000FC1A0235063935061CFC393404F622E1D4
:1043A000BDCB7C3402B622E84C810E26148E63F419
:1043B00034106FE2BE22E2AE84F622E1BD851832EF
:1043C00063B722E8811F35022602860D812027CDA2
:1043D0001CFC35844000000040000000400000004C
:1043E000018000004000000040000000343730AB86
:1043F0003008BD907D301CBD907D301CBD907D355A
:10440000B734371F028E43D4BD907D30A90005BD5F
:10441000907D30A90001BD907D6DA900002712BDDF
:1044200090968E4000BD907DBD8CA9BD9096BDD16B
:104430004535B734371F0120B734378E43D4BD908C
:104440007D30ABBD907D8EFFCCBD907DBD8CA98EA7
:10445000A78EBD907D35B73446F622E12605BD8492
:10446000792037FC247D8300012B311F03FF247D3D
:104470008E2002C603BD4004BE247F3410CC63F4FA
:1044800034066FE2C603BD85183263BF247F1F1355
:104490008E2004BD400435101CFD35C6C670BDB36A
:1044A000681A0220F53456F622E12605BD849F20C5
:1044B00034FE247FC6038C38FF242C8C20572527FC
:1044C0003410BD40043042EEE4BD40043540FF24CA
:1044D0007F8E2004BD4004FE247D3341FF247D8E69
:1044E0002002BD400435D6C6073F34408E203CC66E
:1044F00003108E249CA6A0BDCB978C205725F68E4A
:104500002004FE247FBD40048E2002FE247DBD4099
:104510000486AA8E2000BDCB9735C0343732781F71
:1045200032A6A448A7E4A761A624BD4605A62CBDD3
:104530004605A6A810BD4605A6612A0140E6E42A64
:1045400001503402E1E02F08863EA0E42C1F200633
:1045500086C2A0612F17A76230A4BD46153024BDC6
:104560004615302CBD461530A810BD461530A4BDEB
:10457000907DBD907DBD8CA93024BD907DBD907D8A
:10458000BD8CA9BD8F62BD8D991F31BD907D302C32
:10459000BD907D30A4BD907DBD8CA930A810BD908C
:1045A0007D3024BD907DBD8CA9BD8F62BD8CA930AE
:1045B000E4BD9088334430A4BD907D30A810BD90F8
:1045C0007DBD8CA9302CBD907D3024BD907DBD8CEF
:1045D000A9BD8F1EBD8CA93064BD9088334430A81E
:1045E00014BD907D3028BD907DBD8F1E30A814BDB8
:1045F0009088334433A8143064BD907D30E4BD907E
:104600007D326835B748A1632C04A7632006A162F8
:104610002F02A76239A6844859AB6428056F01CCE4
:1046200000805646A78439343732781F32302CBD8B
:10463000907D30A4BD907DBD8CA930A810BD907D2B
:104640003024BD907DBD8CA9BD8F1E30E4BD908807
:104650003344302CBD907D3024BD907DBD8CA9307D
:10466000A4BD907D30A810BD907DBD8CA9BD8F628A
:104670003064BD9088334430A814BD907D3028BD8F
:10468000907DBD8F627E45EC343731C4302CBD90B7
:104690007DBD8F62302CBD9088334430A810BD9012
:1046A0007DBD8F6230A810BD9088334430A814BD02
:1046B000907DBD8F6230A814BD9088334435B734E7
:1046C0003731C4302CBD907DBD9096BD8F1E302CEF
:1046D000BD9088334430A810BD907DBD9096BD8FAD
:1046E0001E30A810BD9088334430A814BD907DBD05
:1046F0009096BD8F1E30A814BD9088334435B734D2
:104700003731C4302CBD907D30A4BD907D302CBDA0
:104710009088334430A4BD9088334430A810BD90B5
:104720007D3024BD907D30A810BD90883344302466
:10473000BD9088334430A814BD907D3028BD907D55
:1047400030A814BD908833443028BD908833443558
:10475000B7343731C43028BD907D3024BD907D30D2
:10476000A4BD907D35B7334C398E22E9BD839F8E31
:1047700022EDBD839FB6018E8401B7018E7D231F7C
:10478000271034765F86008E493BCE1EA5BDAC9EB9
:1047900035767D23052706CE2306BD49887F22E98D
:1047A0007F22EA108E22E9113FBD4A1129EFCE2364
:1047B0001FBD4964BD49BC8601B7007534765F866C
:1047C0000D8E82B9CE1EA5BDAC9E35767C231F34DE
:1047D000765F86008E48DACE1EA5BDAC9E35767F0C
:1047E00023027F23017F21BC7F21BD108E21BC11BC
:1047F0003F34765F86008E493BCE1EA5BDAC9E350C
:10480000767F231F7D02F6270C7C2302BD4A2A10E7
:104810002900A820037C23018E22F1BF2303BD4A77
:1048200059102900967F22ED7F22EE108E22ED1185
:104830003FBD4A11102900837F00757F005E3476EA
:104840005F860D8E82B9CE1EA5BDAC9E35767C23CB
:104850001F34765F86008E4900CE1EA5BDAC9E3506
:10486000767F21BC7F21BD108E21BC113F34765F45
:1048700086008E493BCE1EA5BDAC9E35767F231F9C
:104880007D02F627057C230220037C23018E22F97A
:10489000BF2303BD4A5929237F22ED7F22EE108ECC
:1048A00022ED113FBD4A11102900108601B7018E7B
:1048B000BD4988C623BDB3887E479D7F018E7F2377
:1048C000027F230134765F86008E493BCE1EA5BD54
:1048D000AC9E3576BD49887E479D496E736572747E
:1048E0002073686F7274696E67206261723A20701B
:1048F000726573732050415553452F434F4E540DED
:1049000052656D6F76652073686F7274696E67208B
:104910006261723A2070726573732050415553453D
:104920002F434F4E540D17204556414C5541544985
:104930004E47204E554C4C2020200D20202020207A
:104940002020202020202020202020202020202067
:104950002020202020202020202020202020202057
:104960002020200D8E007CBD907D8E0084BD907D2A
:104970008E0080BD907D8E0088BD907D8E00C5BD6F
:10498000907DB600753602393702B700758E00C5C6
:10499000BD908833448E0088BD908833448E00805B
:1049A000BD908833448E0084BD908833448E007C53
:1049B000BD908833447F005E7F23053934407C23DB
:1049C00005BD850634408EA78EBD907D8E0080BDCE
:1049D00090888E0088BD908833448EA793BD907DCB
:1049E0008E007CBD908833448E4A0DBD907D8E0034
:1049F00084BD90883344CC0000FD00C5FD00C77F16
:104A0000005E3540BD850F35C004A000007BA3D7F4
:104A10000A34047D02F52710C664BDB3887F018E79
:104A20007F23017F23021A0235843470B60070811F
:104A3000012709C645BDB3681A022012FC24BF270E
:104A4000087D02F5260ABDC3D5BDF6EB1CFD35F089
:104A5000C664BDB3881A0220F5B600DB8105257D4A
:104A600081082279B602F626057F0027202CBD4A50
:104A7000E5296486FFB70027B70038C6FB8E791298
:104A800034106FE2BD851832637D0075270CB602C5
:104A9000F681032D05BD4B5E293D86FFB70022C67A
:104AA000FD8E791234106FE2BD85183263B6002393
:104AB00026224AB70023B700287D02F62610347656
:104AC0005F860A8E4926CE1EA5BDAC9E3576108E19
:104AD0001E80103F1CFD39BDB3681A0239C624BDC3
:104AE000B3681A02393470BD850634408E4B4EB619
:104AF00002F6810222068D382E1E2016108E4B4E95
:104B00008003484831A6B6007548484831A68D3024
:104B10002E06C6211A022011FC030E10B302F12F3B
:104B200006C6461A0220021CFD3540BD850F35F031
:104B300034408E0315BDA1D58E0310BDA42135C010
:104B40003440AEA4BD907DAE22BD965635C0031F45
:104B5000031A0333032E03290324033D033834705F
:104B6000BD850634408103270A8D418E0084BD90A7
:104B70007D20168E0088BD907D3402A6C4847FA758
:104B8000C435028E0324BD907D8E8AF6BD907DBD16
:104B90008CA9BD8F628E9AD1BD96562F06C6221A59
:104BA0000220021CFD3540BD850F35F08E0338BD57
:104BB000907D3402A6C4847FA7C435028E033DBD18
:104BC000907D3402A6C4847FA7C435023044BD96CC
:104BD000562F03BD908833443934771F32B6018E87
:104BE0002726F6205CC0052B21C103221DBD8506AA
:104BF00034408D1D7D02F62605BD4C4B2003BD4D76
:104C0000228D0E3540BD850F35F7C624BDB3682013
:104C1000F73410F6205CC501272F8EA78EBD907D3E
:104C20008EA793BD907D30A90004BD907D30A90072
:104C300000BD907DBDD17F30A90000BD9088334478
:104C400030A90004BD908833443590342081012779
:104C5000048D15200AF62301C1022605BD4CB4358A
:104C6000A0C629BDB36820F7BE230334108C22F1FF
:104C7000261F8EA78EBD907D8EA793BD907D30A9F7
:104C80000004BD907D30A90000BD907DBDD17F2086
:104C90000E30A90004BD907D30A90000BD907D3587
:104CA00010BD921FBD90883344BD921F3004BD904B
:104CB000883344398EA78EBD907D8EA793BD907D9D
:104CC0008EA78EBD907D8EA793BD907D30A90004E8
:104CD000BD907D30A90000BD907D8E22F134103052
:104CE0000CBD907DAEE43008BD907DBDD2CEBDD16F
:104CF0007FAEE43004BD907D35103084BD907DBD25
:104D0000D2CEBDD17F30A90000BD9088334430A9F8
:104D10000004BD90883344E6A9001ECA01E7A9003B
:104D20001E39342081012708BD4C68BD4D46200D39
:104D3000F62302C1022608BD4DEEBD4CB435A0C617
:104D400029BDB36820F7B600A28101260A7D00C400
:104D50002605C648BDB36834011A50FC24BF260599
:104D60008E0000203E10B324C32615BE24B9F602DF
:104D7000EF318510BC24B72304108E0000122011DF
:104D8000BE24BBF602EF3085FC24BF10B324C3263B
:104D900012C68034108E78ED34106FE2BD85183263
:104DA0006335103501BD4DA9391F127D00C426069B
:104DB00031A90024200431A9002C8608BE23038CCD
:104DC00022F127023128BD4DCA39345634026DE430
:104DD0002718A68034011A50C609F73A72A7A0C650
:104DE00008F73A7235016AE420E4350235D63470AA
:104DF0007D00C426063089002420043089002C86DA
:104E000010CE22F1BD4E0935F0342734026DE4276F
:104E10001834011A508609B73A72E6808608B73A04
:104E2000723501E7C06AE420E4350235A7FFFFFFD1
:104E3000FFFFFFFFFFFFFFFFFFFFFFFFFFFFFFFF82
:104E4000FFFFFFFFFFFFFFFFFFFFFFFFFFFFFFFF72
:104E5000FFFFFFFFFFFFFFFFFFFFFFFFFFFFFFFF62
:104E6000FFFFFFFFFFFFFFFFFFFFFFFFFFFFFFFF52
:00000001FF
